:020000040800F2
:10000000F01200206D0E00085D0300085F03000879
:1000100063030008670300086B030008000000008A
:100020000000000000000000000000006F03000856
:100030007103000800000000730300087503000846
:10004000870E0008870E0008870E0008870E00083C
:10005000870E0008870E0008870E0008870E00082C
:10006000870E0008870E0008870E0008870E00081C
:10007000870E0008870E0008870E0008870E00080C
:10008000870E0008870E0008870E0008870E0008FC
:10009000870E0008870E0008870E0008870E0008EC
:1000A000870E00080B060008870E0008870E000860
:1000B000870E0008870E0008870E0008870E0008CC
:1000C000870E0008870E0008870E0008870E0008BC
:1000D000870E0008F30D0008870E0008870E000841
:1000E000870E0008870E0008870E0008870E00089C
:1000F000870E0008870E0008870E0008870E00088C
:10010000870E0008870E0008870E0008870E00087B
:10011000870E0008870E0008870E0008870E00086B
:10012000870E0008870E0008870E0008870E00085B
:1001300000F002F800F068F80AA090E8000C824491
:100140008344AAF10107DA4501D100F05DF8AFF26E
:10015000090EBAE80F0013F0010F18BFFB1A43F0A5
:1001600001031847D4330000F43300000A444FF071
:10017000000C10F8013B13F0070408BF10F8014B06
:100180001D1108BF10F8015B641E05D010F8016B4B
:10019000641E01F8016BF9D113F0080F1EBF10F8AF
:1001A000014BAD1C0C1B09D16D1E58BF01F801CBD2
:1001B000FAD505E014F8016B01F8016B6D1EF9D555
:1001C0009142D6D37047000000230024002500266A
:1001D000103A28BF78C1FBD8520728BF30C148BFAA
:1001E0000B607047642902F0CB84002070471FB574
:1001F00002F058FE04000020002102F0ABFE401C7B
:1002000060601FBD10B510BD02F027FE1146FFF75C
:10021000EEFF00F009F802F057FE03B4FFF7F2FF1B
:1002200003BC00F05FFD000000240025012000F069
:100230003BFD00F0CFFC4FF4E13000F061FD00F039
:10024000EDFB85E00121084600F0CCFB00210220F7
:1002500000F0C8FB0121032000F0C4FB00210420B2
:1002600000F0C0FB0121052000F0BCFB2DB93B34A0
:10027000B42C09DDB124012506E03B3C14F1B40F98
:1002800002DA6FF0B0040025204600F08BFB04F189
:10029000B406F11706EB5171C910C1F13201C8B2B1
:1002A00000F067F9F11706EB5171C910C1F1320185
:1002B000C8B200F051F94FF4E16000F0C8FC4FF40F
:1002C000E16000F0C4FC0021012000F08BFB012163
:1002D000022000F087FB0021032000F083FB0121B6
:1002E000042000F07FFB0021052000F07BFB2DB9EE
:1002F0003B34B42C09DDB124012506E03B3C14F16C
:10030000B40F02DA6FF0B0040025204600F04AFB7B
:1003100004F1B406F11706EB5171C910C1F13201B5
:10032000C8B200F026F9F11706EB5171C910C1F1FE
:100330003201C8B200F010F94FF4E16000F087FC20
:100340004FF4E16000F083FC214602A002F0D8FBEC
:1003500078E7000025642C0D0A000000704700BFFC
:10036000FEE700BFFEE700BFFEE700BFFEE7704705
:1003700070477047704700000CB500200190009056
:100380006C48006840F480306A49086000BF6948E2
:10039000006800F4003000900198401C0190009823
:1003A00018B90198B0F5A06FF1D16248006800F467
:1003B000003010B10120009001E000200090009872
:1003C000012843D15C48006840F010005A49086099
:1003D0000846006820F0030008600846006840F006
:1003E0000200086053484068524948600846406827
:1003F00048600846406840F48060486008464068AD
:1004000020F47C1048600846406840F4E8104860DA
:100410000846006840F08070086000BF45480068EA
:1004200000F000700028F9D04248406820F0030036
:10043000404948600846406840F00200486000BFFC
:100440003C48406800F00C000828F9D10CBD10B5FC
:10045000FFF792FF10BD10B53648006840F001006C
:1004600034490860084640683449084031494860CA
:1004700008460068324908402E490860084600686E
:1004800020F4802008600846406820F4FE004860A0
:100490004FF41F008860FFF7DAFF4FF00060294932
:1004A000086010BD10B5002100200022214B5B68C0
:1004B00003F00C0121B1042906D0082928D107E056
:1004C000214B224C236027E01F4B204C236023E06C
:1004D000184B5B6803F47010164B5B6803F48032B2
:1004E000022303EB904022B9194B4343174C23607E
:1004F0000DE0104B5B6803F4003323B1144B43430E
:10050000124C236003E0104B4343104C236003E084
:100510000D4B0E4C236000BF00BF064B5B68C3F35E
:1005200003130C4CE15C094B1B68CB40074C236068
:1005300010BD000000100240002002400000FFF843
:10054000FFFFF6FE08ED00E000127A00040C002028
:1005500000093D00080C002010B50446322C00DDD7
:1005600010BD04F132014FF0804002F085FA00BF67
:10057000F6E710B50446322C00DD10BDC4F164006E
:1005800081B24FF0804002F075FA00BFF5E710B578
:100590004021F84800F007FE4FF48051F54800F084
:1005A00002FE2021F44800F0FEFD4FF48051F24895
:1005B00000F0F9FD4FF40041EF4800F0F4FD192080
:1005C000FFF7D7FF1920FFF7C7FFEB480C30006893
:1005D00020F47060E8490C31086010BD10B54FF48C
:1005E0000051E64800F0C3FD0446E548007828B114
:1005F00024B90020E2490870012010BD012C02D16D
:100600000120DF4908700020F7E770B5FFF7E6FF2B
:1006100038B1DC48007808B9012000E00020D94951
:100620000870D848007810B9FFF7B1FF70BD0121FC
:10063000D54802F050FA00287AD00121D24802F0C1
:100640005BFAD2480068D149496888423ED0CF4819
:100650000068CE49496888420BDDCD480078401CCF
:1006600040B2CB490870C9484068401CC74948603F
:100670000AE0C7480078401E40B2C5490870C34828
:100680004068401EC1494860C1480078082802D12E
:100690000020BF490870BE4890F90000401C10B906
:1006A0000720BB490870B4480C30006840F4706003
:1006B000B849B74A92F90020895C6FF4706242EA47
:1006C0000121084085B2AC480C300560B248007882
:1006D000401C40B2B049087008460078022800D09B
:1006E000A4E70020AC490870012441E0A74850F875
:1006F0003400A64901EBC4014968884236D0A348BA
:1007000050F83400A14901EBC4014968884210DD6A
:10071000A248005D401C40B2A04908559B4800EB30
:10072000C4004068401C994901EBC40148600FE0D7
:100730001EE19A48005D401E40B298490855934812
:1007400000EBC4004068401E904901EBC4014860C2
:100750009248005D042802D10020904908558F4836
:100760000057401C10B903208C490855601CC4B2C6
:10077000052CBBDD894890F901008949085C00F02F
:10078000020020B104217B4800F00BFD03E00421AE
:10079000784800F008FD814890F901008049085C24
:1007A00000F0010020B10821724800F0FAFC03E0DB
:1007B0000821704800F0F7FC784890F90200784969
:1007C000085C00F0020028B14FF48071694800F025
:1007D000E8FC04E04FF48071664800F0E4FC6F48E8
:1007E00090F902006E49085C00F0010028B14FF456
:1007F0000061604800F0D5FC04E04FF400615D4802
:1008000000F0D1FC654890F903006549085C00F0F0
:10081000020020B10821584800F0C3FC03E0082181
:10082000554800F0C0FC5D4890F903005C49085C45
:1008300000F0010020B110214F4800F0B2FC03E0AD
:1008400010214D4800F0AFFC544890F90400544981
:10085000085C00F0020020B14021474800F0A1FCF4
:1008600003E04021444800F09EFC4C4890F904000D
:100870004B49085C00F0010020B180213E4800F0A7
:1008800090FC03E080213C4800F08DFC434890F947
:1008900005004349085C00F0020028B14FF4005104
:1008A000354800F07EFC04E04FF40051324800F07F
:1008B0007AFC3A4890F905003949085C00F00100DB
:1008C00028B14FF480412C4800F06BFC04E04FF459
:1008D0008041294800F067FC2C488168C06881424B
:1008E00004D14021234800F05EFC03E04021214870
:1008F00000F057FC254801694069814205D14FF459
:1009000080511C4800F04FFC04E04FF4805119481E
:1009100000F047FC1D488169C069814204D1202153
:10092000154800F040FC03E02021134800F039FC9A
:100930001648016A406A814205D14FF480510E4841
:1009400000F031FC04E04FF480510B4800F029FC2A
:100950000E48816AC06A814205D14FF400410648C1
:1009600000F021FC04E04FF40041034800F019FCC2
:1009700000BF5BE600080140000C01400010014090
:10098000210C0020180C0020002C0140480C0020F5
:10099000190C00202C350008200C00201A0C002017
:1009A000343500082DE9F0478246BAF1B40F02DC75
:1009B0001AF1B40F02DA0120BDE8F087504602F0C8
:1009C000B6FB06467B4A7C4B02F0C8FB044600227D
:1009D0007A4B02F0D5FA804602F07AFB784908603B
:1009E0000020E9E7024619B90020754B43F83200B0
:1009F000012903D10802724B43F8320000207047EE
:100A000001466F4800EBC10040686D4A52F8312042
:100A1000904201D0012070470020FCE700B589B06A
:100A2000012140F61D0000F0CBFD0121084600F039
:100A3000D4FD41F64C10ADF8200010208DF82300B5
:100A400002208DF8220008A95E4800F0FDFA4FF65A
:100A5000F870ADF8200008A95B4800F0F5FA032013
:100A6000ADF8200018208DF8230001208DF8220019
:100A700008A9544800F0E8FA4FF40050ADF82000FF
:100A800048208DF8230002208DF8220008A94F4845
:100A900000F0DAFA40F2E730ADF8180040F29F506B
:100AA000ADF814000020ADF81A00ADF8160005A945
:100AB0004FF0804001F0EAF96020ADF8000001201D
:100AC000ADF802000020ADF80600ADF80800694658
:100AD0004FF0804001F017FA69464FF0804001F076
:100AE00054FA0121880701F039FD0821C80601F0F8
:100AF00059FE0821C80601F05EFE0121880701F0B9
:100B000021FE0121880701F01DFD4B214FF080409F
:100B100001F0B0FF4B214FF0804001F0ADFF40F2FB
:100B2000E730ADF818008F20ADF814000020ADF8C4
:100B30001A00ADF816008DF81C0005A9244801F034
:100B4000A5F90121224801F0C3FF012241212048DB
:100B500001F013FD4FF4A06000F0A8F919208DF802
:100B6000100003208DF811008DF8120001208DF87F
:100B7000130004A800F09FF90121154801F0E2FCE0
:100B80004021104800F00FFB4FF480510D4800F059
:100B90000AFB20210C4800F006FB4FF480510A4864
:100BA00000F001FB4FF40041074800F0FCFA09B0E7
:100BB00000BD0000C3F5285C8FC226400000E03F66
:100BC000480C002000080140000C014000100140CA
:100BD000002C014010B56FF0040000F0B6F92E486B
:100BE00000682E49B0FBF1F02D49087008460078E6
:100BF00000EB4001C1EBC0104FF6FF7101EAC000ED
:100C00002849088010BD0146254A12784A434FF012
:100C1000E0235A6100229A611A46126942F00102E9
:100C20001A6100BF4FF0E022106900F001021AB112
:100C300000F48032002AF5D04FF0E022126922F051
:100C400001024FF0E0231A6100229A6170470146C9
:100C5000144A12884A434FF0E0235A6100229A61F5
:100C60001A46126942F001021A6100BF4FF0E022F9
:100C7000106900F001021AB100F48032002AF5D0A8
:100C80004FF0E022126922F001024FF0E0231A61D6
:100C900000229A6170470000040C002000127A00C4
:100CA000220C0020240C0020014649060B4A9269C0
:100CB00042F00102094B9A61094A526822F0E0624F
:100CC000074B5A601A4652680A435A60704710B57B
:100CD0004FF4A06000F0EAF810BD000000100240E0
:100CE0000000014000BF704700BF594A128802F05F
:100CF0004002002AF9D0C2B2554B1B1D1A80704722
:100D000010B592B00446012144F2050000F058FCF1
:100D10000121084600F047FC4FF40070ADF8440094
:100D200001208DF8460018208DF8470011A9494888
:100D300000F08AF94FF48060ADF8440004208DF88B
:100D4000470011A9434800F07FF91020ADF8440096
:100D50008DF8470011A93F4800F076F910213D4871
:100D600000F01FFA25208DF8300000208DF83100AA
:100D70008DF8320001208DF833000CA800F09BF8AC
:100D8000354800F085FE3248001D0190334802903E
:100D900000200390072004900020059080200690FA
:100DA000002007900890202009904FF440500A90AE
:100DB00000200B9001A9284800F00CFF01212648D3
:100DC00000F033FF0D940020ADF83800ADF83A0084
:100DD000ADF83C00ADF840000C20ADF83E000DA988
:100DE0001B4800F094FC0121194800F01CFD12B0D2
:100DF00010BD10B540F22551154800F005FE30B386
:100E0000134800F081FD1649164A92F900208854D3
:100E10000846144991F90010405C732811D1002054
:100E20000F49104A92F9002088540846007861283A
:100E300004D1481C01F0E0FE0B490860FF2009497D
:100E4000087008480078401C40B20649087010BD80
:100E50000038014000080140580002402C0C0020DE
:100E6000780C0020330C0020000C0020094880473B
:100E700009480047FEE7FEE7FEE7FEE7FEE7FEE77C
:100E8000FEE7FEE7FEE7FEE704480549054A064B94
:100E9000704700005704000831010008F00C0020E2
:100EA000F0120020F00E0020F00E00203149014326
:100EB000314A1160704770B5002100230F22C478B9
:100EC00004B32D4C246804F4E064C4F5E064210A02
:100ED000C1F10403CA40447804FA03F18478144051
:100EE00021430901254C0678A155047804F01F051B
:100EF0000124AC4005786D11AD0005F1E025C5F881
:100F0000004109E0047804F01F050124AC401C4DA9
:100F10000678761145F8264070BD1A4A0A40024309
:100F2000154B1B1F1A60704739B1134A121D126806
:100F30000243114B1B1D1A6006E00F4A121D126876
:100F400082430D4B1B1D1A607047042808D14FF0D7
:100F5000E021096941F004014FF0E022116107E04E
:100F60004FF0E021096921F004014FF0E022116106
:100F7000704700000000FA050CED00E000E400E01E
:100F800080E100E080FFFF1F10B50446CC4884429A
:100F900008D10121042000F02DFB0021042000F0E5
:100FA00029FB46E0C748844208D10121082000F00F
:100FB00021FB0021082000F01DFB3AE0C2488442DA
:100FC00008D10121102000F015FB0021102000F0B5
:100FD00011FB2EE0BD48844208D10121202000F001
:100FE00009FB0021202000F005FB22E0B8488442E4
:100FF00008D10121402000F0FDFA0021402000F03E
:10100000F9FA16E0B348844208D10121802000F0AB
:10101000F1FA0021802000F0EDFA0AE0AE488442A7
:1010200007D10121801500F0E5FA0021A01500F09C
:10103000E1FA10BD10B50121084600F0DBFA0021ED
:10104000012000F0D7FA10BD2DE9F041024600253D
:101050000026002000230024002791F803C00CF094
:101060000F0591F803C00CF0100CBCF1000F03D079
:1010700091F802C04CEA050591F800C0BCF1000FE0
:1010800031D0146800202BE04FF0010C0CFA00F373
:10109000B1F800C00CEA03069E4220D183004FF055
:1010A0000F0C0CFA03F7BC4305FA03FC4CEA0404EA
:1010B00091F803C0BCF1280F06D14FF0010C0CFAD7
:1010C00000FCC2F814C00AE091F803C0BCF1480F5C
:1010D00005D14FF0010C0CFA00FCC2F810C0401C06
:1010E0000828D1D31460B1F800C0BCF1FF0F34DD83
:1010F000546800202EE000F1080C4FF0010808FAB7
:101100000CF3B1F800C00CEA03069E4221D1830023
:101110004FF00F0C0CFA03F7BC4305FA03FC4CEA42
:10112000040491F803C0BCF1280F05D100F1080CAC
:1011300008FA0CF8C2F8148091F803C0BCF1480F0B
:1011400007D100F1080C4FF0010808FA0CF8C2F8BA
:101150001080401C0828CED35460BDE8F0814FF6C3
:10116000FF710180022181700421C1707047024625
:10117000002093680B400BB1012000E00020704775
:101180000146886880B2704702460020D3680B4051
:101190000BB1012000E0002070470146C86880B212
:1011A000704701617047416170470AB1016100E019
:1011B00041617047C16070474FF480320A438261D9
:1011C0008161826182698269704702460020434BD7
:1011D00018684FF68073184040EA021008433F4BEE
:1011E000186070473E49C8617047F0B50A46002351
:1011F00000240021002500F00046B6F1004F02D186
:10120000364EF16901E0354E7168C0F3034583B293
:1012100000F44016B6F5401F08D121F070612F4E42
:10122000766826F070662D4F7E6012E000F480161E
:10123000B6F5801F06D1032606FA05F4A14341F056
:10124000706106E0460D360103FA06F6B14341F03F
:10125000706122B1460D360103FA06F6314300F003
:101260000046B6F1004F02D11C4EF16101E01B4E69
:101270007160F0BD30B500228B071C0F0F2303FAFD
:1012800004F2164B08338C1053F824309343134C5C
:1012900008348D1044F8253023468C1053F8243040
:1012A0008C07240F00FA04F423430C4C08348D10EF
:1012B00044F8253030BD0A49DC3108607047000031
:1012C00000080140000C01400010014000140140E2
:1012D00000180140001C01400020014000000140B6
:1012E00000002042DF48006840F00100DD4908604E
:1012F00008464068DC490840DA494860084600680A
:10130000DA490840D74908600846006820F4802080
:1013100008600846406820F4FE0048604FF41F0053
:1013200088607047CF49096821F48031CD4A116047
:101330001146096821F480211160B0F5803F03D087
:10134000B0F5802F0ED106E0C649096841F480311E
:10135000C44A116007E0C349096841F4A021C14AA9
:10136000116000E000BF00BF704710B501460022C9
:10137000002300204A11012A02D1BA4C236806E05A
:10138000022A02D1B74C236A01E0B64C636A01F02D
:101390001F02012494401C400CB1012000E00020F9
:1013A00010BD38B5002000900024002500BF31207A
:1013B000FFF7DBFF05460098401C00900098B0F551
:1013C000A06F01D0002DF2D03120FFF7CEFF08B181
:1013D000012400E00024204638BD01460020A14A37
:1013E000106820F0F80040EAC10010607047A04982
:1013F00008607047024600209A4B586820F47C1021
:1014000042EA01031843974B5860704798490866B1
:10141000704701460020934A506820F003000843BB
:10142000506070478F48406800F00C0070470146DC
:1014300000208C4A506820F0F0000843506070474C
:1014400001460020874A506820F4E060084350605D
:10145000704701460020834A506820F4605040EAFB
:10146000C1005060704729B17E4A527A02437D4BD9
:101470005A7204E07B4A527A82437A4B5A7270471E
:101480007B49D8310860704701460020754A506892
:1014900020F440400843506070470021714A2032D8
:1014A0001170704A82F82010012802D004280AD155
:1014B00004E001216B4A2032117005E00521694AE0
:1014C0002032117000E000BF00BF7047694908601A
:1014D00070476449096A0143624A1162704765496D
:1014E00044390860704730B50021002200240023F1
:1014F0005C4D6D6805F00C0121B1042905D0082967
:1015000023D105E05C4D056022E05B4D05601FE0E6
:10151000544D6D6805F47012524D6D6805F48034B9
:10152000022505EB92421CB9544D554305600BE072
:101530004C4D6D6805F400351DB1504D55430560A7
:1015400002E04D4D5543056002E04B4D056000BF84
:1015500000BF444D6D6805F0F0010909484D6B5C12
:101560000568DD4045603F4D6D6805F4E061090A9E
:10157000434D6B5C4568DD4085603A4D6D6805F410
:101580006051C90A3E4D6B5C4568DD40C560354D14
:101590006D6805F44041890B3A4D6B5CC568B5FB3D
:1015A000F3F5056130BD29B12E4A526902432D4B36
:1015B0005A6104E02B4A526982432A4B5A617047B0
:1015C00029B1284A92690243264B9A6104E0254AD0
:1015D00092698243234B9A61704729B1214AD269AB
:1015E0000243204BDA6104E01E4AD26982431D4B5C
:1015F000DA61704729B11B4AD2680243194BDA609D
:1016000004E0184AD2688243164BDA60704729B169
:10161000144A12690243134B1A6104E0114A126919
:101620008243104B1A617047124940390860704775
:101630000F49C86470470B49C87170470948406A30
:1016400040F0807007494862704701460020054A13
:1016500092680A400AB1012000E000207047014969
:1016600088727047001002400000FFF8FFFFF6FE8E
:10167000000042428004424200127A0000093D000C
:10168000340C0020440C002010B50446FB48844272
:1016900009D101218803FFF7ADFF00214FF48040FD
:1016A000FFF7A8FF32E0F648844209D1012148043F
:1016B000FFF7ADFF00214FF40030FFF7A8FF25E052
:1016C000F048844209D101218804FFF7A0FF0021DE
:1016D0004FF48020FFF79BFF18E0EB48844209D1CC
:1016E0000121C804FFF793FF00214FF40020FFF70A
:1016F0008EFF0BE0E548844208D101210805FFF781
:1017000086FF00214FF48010FFF781FF10BD2DE907
:10171000F04786B005460E460024A24600BFA1460B
:101720000027B08900B100BF2F462C8A4CF6FF700D
:101730000440F08804432C82AC894EF6F310044038
:10174000B08831890843718908430443AC81AC8A6D
:101750004FF6FF400440B0890443AC8201A8FFF774
:10176000C2FEC648874202D1DDF810A001E0DDF8D4
:101770000CA0A88900F4004040B10AEBCA0000EBBD
:101780000A1031684900B0FBF1F807E00AEBCA0023
:1017900000EB0A1031688900B0FBF1F86420B8FB57
:1017A000F0F004012009642101FB1089A88900F4EC
:1017B000004040B1322000EBC900B0FBF1F000F076
:1017C0000700044308E0322000EB09106421B0FB5D
:1017D000F1F000F00F0004432C8106B0BDE8F08763
:1017E0004FF41651016000218180C18001810C21DC
:1017F000418100218181704710B502460020108A86
:101800004FF2FF0318400B884C8823438C882343F6
:10181000CC8823431843108210BD002101804180F1
:101820008180C180704721B1828942F40052828157
:1018300004E082894DF6FF731A4082817047F0B54B
:101840000346002400260025002040F66A17B9420E
:1018500000D100BF1846C1F3421401F01F06012752
:1018600007FA06F5012C01D10C3004E0022C01D15D
:10187000103000E014301AB107682F43076002E00F
:101880000768AF430760F0BD1AB1838A0B438382B8
:1018900002E0838A8B4383827047028A4FF6F0739B
:1018A0001A400282028A0A430282704782894FF2FA
:1018B000FF731A40828182890A438281704721B175
:1018C000828942F00202828104E082894FF6FD7330
:1018D0001A4082817047028A4FF6DF731A400282F3
:1018E000028A0A430282704721B1028A42F480428E
:1018F000028204E0028A4BF6FF731A4002827047AC
:10190000C1F308028280704701468888C0F308004E
:101910007047818941F0010181817047028BD2B209
:101920000283028B42EA012202837047028B02F497
:101930007F420283028B0A430283704721B1828A6D
:1019400042F02002828204E0828A4FF6DF731A405E
:101950008282704721B1828A42F01002828204E0C2
:10196000828A4FF6EF731A408282704721B1828AD1
:1019700042F00802828204E0828A4FF6F7731A402E
:101980008282704721B1828942F40042828103E061
:101990008289C2F30E028281704721B1828A42F4A9
:1019A0000062828204E0828A4FF2FF731A408282D0
:1019B0007047828A4FF6FB731A408282828A0A43FA
:1019C0008282704721B1828A42F00202828204E060
:1019D000828A4FF6FD731A408282704702460020C9
:1019E000B1F5007F00D100BF13880B400BB101207F
:1019F00000E00020704701F40072B2F5007F00D1D2
:101A000000BFCA430280704770B50246002400231D
:101A10000025002040F66A16B14200D100BFC1F394
:101A2000421501F01F03012606FA03F3012D02D12E
:101A30009689334006E0022D02D1168A334001E038
:101A4000968A33400C12012606FA04F416883440B4
:101A500013B10CB1012000E0002070BD10B50022D0
:101A6000002340F66A14A14200D100BF0A120124EB
:101A70009440A3B2DC43048010BD00000038014054
:101A80000044004000480040004C0040005000402E
:101A900001684FF6FE721140016000210160416053
:101AA0008160C1608D49884208D18C4908394968F4
:101AB00041F00F01894A083A51608AE087491431A0
:101AC000884208D185490839496841F0F001834AC4
:101AD000083A51607DE081492831884208D17F4928
:101AE0000839496841F470617C4A083A516070E0F5
:101AF0007A493C31884208D178490839496841F42B
:101B00007041764A083A516063E074495031884226
:101B100008D172490839496841F470216F4A083A7E
:101B2000516056E06D496431884208D16B490839EB
:101B3000496841F47001694A083A516049E06749CF
:101B40007831884208D165490839496841F07061A7
:101B5000624A083A51603CE06149884206D1011F5F
:101B6000096841F00F01021F116032E05C49143135
:101B7000884208D15A49091F096841F0F001584AC2
:101B8000121F116025E056492831884208D1544976
:101B9000091F096841F47061514A121F116018E071
:101BA0004F493C31884208D14D49091F096841F429
:101BB00070414B4A121F11600BE049495031884275
:101BC00007D14749091F096841F47021444A121F8F
:101BD0001160704710B50022026847F6F0739A430F
:101BE0000C6A8B6823430C6923434C6923438C693B
:101BF0002343CC6923434C6A23438C6A23431A430F
:101C00000260CB6843600B6883604B68C36010BDA3
:101C10000021016041608160C160016141618161B9
:101C2000C161016241628162704721B1026842F084
:101C30000102026004E002684FF6FE731A4002607F
:101C400070471AB103680B43036002E003688B43DB
:101C500003607047416070470146486880B2704732
:101C600001460020002201F080531BB11C4B083BB1
:101C70001A6802E0194B083B1A6802EA01030BB12B
:101C8000012000E00020704700F0805119B1144994
:101C9000091F086002E01149083948607047014691
:101CA0000020002201F080531BB10D4B083B1A6845
:101CB00002E00A4B083B1A6802EA01030BB101205B
:101CC00000E00020704700F0805119B10449091F5D
:101CD000086002E001490839486070470800024086
:101CE0000804024010B50446FE48844208D1012190
:101CF000C014FFF77FFC0021E014FFF77BFCC4E079
:101D0000B4F1804F08D101210846FFF780FC002183
:101D10000120FFF77CFCB8E0F348844208D10121A0
:101D20000220FFF774FC00210220FFF770FCACE0FA
:101D3000EE48844208D101210420FFF768FC00210D
:101D40000420FFF764FCA0E0E948844208D10121A7
:101D50000820FFF75CFC00210820FFF758FC94E006
:101D6000E448844208D101211020FFF750FC0021F3
:101D70001020FFF74CFC88E0DF48844208D10121A5
:101D80002020FFF744FC00212020FFF740FC7CE0EE
:101D9000DA48844208D101214014FFF72BFC0021CE
:101DA0006014FFF727FC70E0D548844209D1012177
:101DB000C804FFF71FFC00214FF40020FFF71AFCB6
:101DC00063E0D048844209D101210805FFF712FCE5
:101DD00000214FF48010FFF70DFC56E0CA48844202
:101DE00009D101214805FFF705FC00214FF400103F
:101DF000FFF700FC49E0C548844208D1012140209A
:101E0000FFF705FC00214020FFF701FC3DE0C04842
:101E1000844208D101218020FFF7F9FB00218020B6
:101E2000FFF7F5FB31E0BB48844208D10121801562
:101E3000FFF7EDFB0021A015FFF7E9FB25E0B64811
:101E4000844209D101210804FFF7D4FB00214FF49B
:101E50008030FFF7CFFB18E0B048844209D1012160
:101E60004804FFF7C7FB00214FF40030FFF7C2FB27
:101E70000BE0AB48844208D101218804FFF7BAFB8C
:101E800000214FF48020FFF7B5FB10BD002202882F
:101E9000944B98420ED0994B98420BD0B0F1804FA2
:101EA00008D0914B984205D0904B984202D0904B6D
:101EB000984204D14FF68F731A404B881A438D4BCA
:101EC000984207D08C4B984204D04FF6FF431A40FB
:101ED000CB881A4302808B8883850B880385814BCE
:101EE00098420BD0854B984208D08B4B984205D036
:101EF0008A4B984202D08A4B984201D10B7A0386D2
:101F000001238382704770B5002400220023058CD2
:101F10004FF6FE7635400584028C8388048B4FF69D
:101F20008F752C40B51E2C400D882C43751E2A4001
:101F30000D892A434D882A436A4DA8420BD06F4D24
:101F4000A84208D0744DA84205D0744DA84202D0D2
:101F5000734DA84213D14FF6F7752A404D892A4395
:101F60004FF6FB752A408D882A434FF6FF652B40BC
:101F70004FF6FF552B408D892B43CD892B43838012
:101F80000483CD888586028470BD70B5002400224C
:101F90000023058C4FF6EF7635400584028C83884C
:101FA000048B48F6FF752C404FF6FF452C400D88FA
:101FB0004FF6FF7606EA05252C434FF6DF752A40DB
:101FC0000D8906EA05152A434D8806EA05152A43B8
:101FD000444DA84202D0494DA8421DD14FF67F750D
:101FE0002A404D894FF6FF7606EA05152A434FF63B
:101FF000BF752A408D8806EA05152A434FF6FF353E
:102000002B404FF2FF752B408D8906EA85052B4347
:10201000CD8906EA85052B4383800483CD88058717
:10202000028470BD70B5002400220023058C4FF699
:10203000FF6635400584028C8388848B4FF68F754C
:102040002C404FF6FC752C400D882C434FF6FF5565
:102050002A400D894FF6FF7606EA05252A434D886A
:1020600006EA05252A431F4DA84202D0234DA84267
:102070001DD14FF2FF752A404D894FF6FF7606EAD3
:1020800005252A434FF6FF352A408D8806EA0525A7
:102090002A434EF6FF752B404DF6FF752B408D8978
:1020A00006EA05152B43CD8906EA05152B438380E7
:1020B0008483CD888587028470BD70B5002200239B
:1020C0000024058C4EF6FF7635400584038C848809
:1020D000828B48F6FF752A404FF6FF452A400D884F
:1020E00020E00000002C01400004004000080040F7
:1020F000000C00400010004000140040003401407B
:10210000004C0140005001400054014000180040C4
:10211000001C0040002000400040014000440140FD
:10212000004801404FF6FF7606EA05252A434DF6A2
:10213000FF752B400D8906EA05352B434D8806EACD
:1021400005352B43FA4DA84202D0FA4DA84208D1DA
:102150004BF6FF752C408D894FF6FF7606EA851504
:102160002C4384808283CD88A0F84050038470BDC6
:10217000828B4FF2FF331A408283828B4FF6FF73BC
:1021800003EA01231A4382837047F0B50C461546D3
:10219000002200210026078C4EF6FF7C07EA0C0780
:1021A0000784828B018C4FF6FF7707EA043640F6EE
:1021B000FF473A404FF6FF7707EA05273A434FF6C5
:1021C000FF7707EA03373A43D94FB8420ED0D94FC9
:1021D000B8420BD0B0F1804F08D0D74FB84205D0ED
:1021E000D64FB84202D0D64FB84206D14DF6FF774F
:1021F000394046F48057394305E047F6FF573940E8
:1022000044F48057394382830184F0BD828B4FF6BA
:10221000F3731A408283828B0A4382837047F0B53E
:102220000C461546002200210026078C4FF6FF6C55
:1022300007EA0C070784828B018C4FF6FF7707EAC9
:1022400004264FF60C773A404FF6FF7707EA03175C
:102250002F433A43B64FB8420ED0B64FB8420BD0D8
:10226000B0F1804F08D0B44FB84205D0B34FB84258
:1022700002D0B34FB84206D14FF6FF57394046F46B
:102280008077394305E04FF2FF57394044F48077B7
:10229000394382830184F0BD028B4FF2FF331A4031
:1022A0000283028B4FF6FF7303EA01231A43028372
:1022B0007047F0B50C461546002200210026078C19
:1022C0004FF6EF7C07EA0C070784028B018C4FF670
:1022D000FF7707EA041640F6FF473A404FF6FF77CC
:1022E00007EA03373A434FF6FF7707EA05273A43F1
:1022F0008F4FB8420ED08F4FB8420BD0B0F1804F05
:1023000008D08D4FB84205D08C4FB84202D08C4FC8
:10231000B84206D14FF6DF77394046F0100739430F
:1023200005E04FF65F77394044F0100739430283E8
:102330000184F0BD028B4FF6F3731A400283028BC7
:102340000A4302837047F0B50C461546002200216F
:10235000068C4FF6FE773E400684028B018C4FF6CA
:102360000C7632407E1C06EA03162E433243704E32
:10237000B0420ED06F4EB0420BD0B0F1804F08D0BB
:102380006D4EB04205D06D4EB04202D06C4EB042A0
:1023900006D14FF6FD76314044F00106314305E0A9
:1023A0004FF6F576314044F0010631430283018453
:1023B000F0BD70B505460C465D4885420ED05D48BF
:1023C00085420BD0B5F1804F08D05B48854205D0DF
:1023D0005A48854202D05A48854200D100E000BFE9
:1023E000208850B92389A28861882846FFF7ABFF6F
:1023F000E1882846FFF79EFF25E0208804280AD1BF
:102400002389A28861882846FFF753FFE188284680
:10241000FFF742FF17E0208808280AD12389A28805
:1024200061882846FFF7FBFEE1882846FFF7EEFEAD
:1024300009E02389A28861882846FFF7A6FEE18883
:102440002846FFF795FE70BD2DE9F04105460C4684
:1024500000260127608808B9022600E00026A0882F
:10246000012801D1022700E001272088A0B9238993
:10247000A28861882846FFF766FFE1882846FFF7B3
:1024800059FF23893A4631462846FFF712FFE18873
:102490002846FFF701FF13E02389A28861882846B8
:1024A000FFF707FFE1882846FFF7F6FE23893A4643
:1024B00031462846FFF747FFE1882846FFF73AFFF5
:1024C000BDE8F0810A884B881A438B881A43CB8871
:1024D0001A430B891A434B891A438B891A43A0F874
:1024E000442070474FF6FF71818000210180C18038
:1024F0004180017270470021018041808180C1804C
:10250000018141818181C181704700210180418029
:10251000012181800021C18001817047002101805B
:1025200041808180C18001814181818170470000AB
:10253000002C01400034014000040040000800402D
:10254000000C004021B1028842F00102028004E048
:1025500002884FF6FE731A400280704731B1B0F81E
:10256000442042F40042A0F8442005E0B0F84420A2
:10257000C2F30E02A0F8442070471AB183890B43BE
:10258000838102E083898B43838170478182704716
:1025900041EA0203A0F8483070471AB183890B431F
:1025A000838102E083898B438381704701894FF6E1
:1025B000F8721140018170470A46002101894FF6E7
:1025C0008F73194011430181704730B504460D46A1
:1025D00029462046FFF7F0FF208940F007002081C0
:1025E00030BD2DE9F04104460D4616461F46602DCC
:1025F00006D13B46012231462046FFF75AFE05E050
:102600003B46012231462046FFF79DFE29462046E3
:10261000FFF7D2FF208940F007002081BDE8F0815C
:1026200030B50C4600210189C9B24FF6FF7505EAA5
:102630000325154325432943018130BD2DE9F04190
:1026400005460E4617469846002443463A4631460C
:102650002846FFF7E5FF2C894FF6F870044044F058
:1026600007044FF68F70044044F070042C81BDE8DD
:10267000F081F0B504460D4616461F463B463246ED
:1026800029462046FFF7CCFF208940F48040208176
:10269000F0BD0185828270470A46002101884FF60D
:1026A0008F731940114301807047F0B50C461546F1
:1026B0001E460021002200230189028B038C4FF665
:1026C000F877394021434FF6FC473A4040F2011772
:1026D0003A434FF6DD773B404FF6FF7707EA0617A0
:1026E0002F433B43018102830384F0BD0A4600214E
:1026F000018B4FF68F7319401143018370470A46CF
:102700000021018B48F6FF7319404FF6FF7303EA6F
:1027100002231943018370470A460021818B4FF63B
:102720008F7319401143818370470A460021818BC2
:1027300048F6FF7319404FF6FF7303EA022319436B
:102740008183704721B1028842F08002028004E058
:1027500002884FF67F731A400280704721B1828849
:1027600042F00402828004E082884FF6FB731A4034
:102770008280704721B1828842F00802828004E0A2
:1027800082884FF6F7731A408280704721B18288A1
:1027900042F00102828004E082884FF6FE731A4004
:1027A000828070470A460021018B4FF6F77319406B
:1027B0001143018370470A460021018B4FF2FF73DA
:1027C00019404FF6FF7303EA022319430183704750
:1027D0000A460021818B4FF6F7731940114381831C
:1027E00070470A460021818B4FF2FF7319404FF664
:1027F000FF7303EA02231943818370470A460021CD
:10280000018B4FF6FB7319401143018370470A4651
:102810000021018B4FF6FF3319404FF6FF7303EA97
:1028200002231943018370470A460021818B4FF62A
:10283000FB7319401143818370470A460021818B45
:102840004FF6FF3319404FF6FF7303EA0223194393
:10285000818370470A460021018B4FF67F73194030
:102860001143018370470A460021018BC1F30E0119
:102870004FF6FF7303EA02231943018370470A46A8
:102880000021818B4FF67F7319401143818370477C
:102890000A460021818BC1F30E014FF6FF7303EA54
:1028A00002231943818370470A460021018C4FF6A9
:1028B000FD7319401143018470470A460021018CC1
:1028C0004FF6F77319401143018470470A460021FF
:1028D000018C4FF6DF7319404FF6FF7303EA0213C2
:1028E0001943018470470A460021018C4FF67F731B
:1028F00019404FF6FF7303EA02131943018470472E
:102900000A460021018C4FF6FF5319404FF6FF7322
:1029100003EA02231943018470470A460021018C0F
:102920004FF2FF7319404FF6FF7303EA0223194376
:10293000018470470A460021018C4DF6FF7319404F
:102940004FF6FF7303EA023319430184704730B531
:10295000002301248C40A3B2048C9C430484048C87
:1029600002FA01F5ADB22C43048430BD30B500232A
:1029700004248C40A3B2048C9C430484048C02FA8B
:1029800001F5ADB22C43048430BD70B50346002080
:1029900000241846183001258D40ACB21D8CA5438B
:1029A0001D8409B1082909D100EB6100056825F0F3
:1029B000700505600568154305600EE00D1FC5F341
:1029C0004E052844056825F4E045056005684FF686
:1029D000FF7606EA02263543056070BD21B1028804
:1029E00042F00202028004E002884FF6FD731A40B2
:1029F0000280704721B1028842F00402028004E0A4
:102A000002884FF6FB731A400280704721B182881A
:102A100042F08002828004E082884FF67F731A4081
:102A20008280704702884FF6F7731A40028002884E
:102A30000A430280704782884FF68F731A40828063
:102A400082880A438280704702894FF6F8731A40E1
:102A5000028102890A430281704702894FF67F731F
:102A60001A40028102890A430281704781847047BB
:102A700081857047818670470187704781877047DD
:102A8000A0F84010704702884FF6FF431A400280BA
:102A900002880A43028070470146888E70470146CB
:102AA000088F70470146888F70470146B1F8400093
:102AB00070470146888C70470146088D7047024672
:102AC0000020138A0B400BB1012000E0002070476A
:102AD000CA430282704730B502460020002300241A
:102AE000158A05EA0103958905EA010413B10CB1C1
:102AF000012000E0002030BDCA43028270477047C9
:102B00000FB4044910B503AA029800F0E5F810BC10
:102B10005DF814FB280C00202DE9F0410E46044618
:102B2000002020622046E168884730B3252805D080
:102B3000D4E901219047206A401CF2E7E168204671
:102B400000278847050018D0A5F14100192802D8B0
:102B500020354FF400673246294620462760FDF7AE
:102B600041FB40B1012804D0F61D26F007060836C7
:102B7000D8E7361DD6E72846DAE7206ABDE8F081B7
:102B80002DE9F0410646002410687529314616A546
:102B900010D0AFF30080002802DA404213A507E00E
:102BA00031688A0701D512A502E0490704D511A5AD
:102BB000012401E0AFF3008000210A2206F124077E
:102BC00009E0B0FBF2FCB0FBF2F302FB1C0030307A
:102BD00078541846491C0028F3D123462A4630462B
:102BE000BDE8F04100F01EB8000000002D0000001C
:102BF0002B0000002000000070B5064600F00EF823
:102C00000468054630460A22002100F077F82C605F
:102C100070BD7047704770477047000000487047AC
:102C20008C0C00202DE9F0470D469946924604464B
:102C300000F124080168880604D5E06921F010013C
:102C4000216000E00120A84201DD471B00E00027D1
:102C5000A1697A1902EB0900081AA0612078C00660
:102C600002D42046AFF30080002608E0D4E9012119
:102C70001AF806009047206A401C761C20624E45D8
:102C8000F4DB2078C0060AD52046AFF3008006E0CA
:102C9000D4E9012130209047206A401C2062381E70
:102CA000A7F10107F4DC07E0D4E9012118F80500D9
:102CB0009047206A401C2062281EA5F10105F3DC24
:102CC0002046AFF300802078000602D50220BDE840
:102CD000F0870120FBE70000074B70B50D467B44F1
:102CE00000F055F80446284600F0B3F810B14FF054
:102CF000FF3070BD204670BD07E0FFFF2DE9F047B3
:102D000091460F4680460446002614F8015B2DB11B
:102D100000F030F80068405DC007F6D12B2D02D0DE
:102D20002D2D18D0641E4A463946204600F042F840
:102D300027B13968A14201D1C7F800804FF00204E1
:102D400071050BD54042002803DDFFF767FF0460E3
:102D5000A007BDE8F08746F48066E4E70028F8DACB
:102D6000FFF75CFF04606FF00040F2E70048704737
:102D70008C0C002010B500F095F8001D10BD00BFB0
:102D8000D501000001694A1C02610878704700B54E
:102D90008FB0CDE901310021059105497944CDE994
:102DA000031011466846FFF7B7FE0FB000BD0000E4
:102DB000E5FFFFFF2DE9F05F824615468B460027B1
:102DC0000AF10104B9460078302801D09DB113E022
:102DD00014F8010B0127782803D0582801D045B1F9
:102DE0000AE00DB1102D07D1002714F8010B1025B2
:102DF00002E0082500E00A250026B0460EE005FBAB
:102E0000080005FB06F101271FFA80F801EB1046C8
:102E1000B6F5803F00D3B94614F8010B294600F0FF
:102E200045F80028EBDABBF1000F05D00FB1641EA6
:102E300000E05446CBF80040B9F1000F06D0FFF790
:102E4000EDFE02210160C81EBDE8F09F48EA064081
:102E5000FAE7007B00F0800070477546FFF786FFB9
:102E6000AE4605006946534620F00700854618B077
:102E700020B5FEF709F8BDE820404FF000064FF0FE
:102E800000074FF000084FF0000B21F00701AC469F
:102E9000ACE8C009ACE8C009ACE8C009ACE8C009BE
:102EA0008D46704700487047AC0C00203A2800D28D
:102EB000303820F02002412A01D3A2F137008842A5
:102EC00001D34FF0FF3070470446AFF30080204637
:102ED000FDF7A3F94FF0013C50F8042B51F8043BE7
:102EE0009A4221D1A2EB0C03934313EACC1317D1DE
:102EF00050F8042B51F8043B9A4215D1A2EB0C0375
:102F0000934313EACC130BD150F8042B51F8043B34
:102F10009A4209D1A2EB0C03934313EACC13DBD002
:102F20004FF00000704700BFD01A01BAB1FA81F12A
:102F300001F0180122FA01F0CB40C1F12001DBB20F
:102F4000C0B2C01A2CFA01F3D11A914311EAC3118D
:102F5000E6D1704710B500290AD00878002807D0BC
:102F600005487844FFF7B6FF002801D0002010BDC7
:102F70000248784410BD0000F6050000EE05000090
:102F800010B591EA030F48BF83F0004300F1EC81D4
:102F9000841A71EB030C05D2121943EB0C03001BCE
:102FA00061EB0C01DFF824E14FEA1154A4EB135C50
:102FB0001EEA430F18BF9EEA445F73D023EA0E0354
:102FC000DCF1200E21EA045143F4801332D322FABB
:102FD0000CFE10EB0E0023FA0CFE41EB0E01CCF1BF
:102FE000200E03FA0EFE10EB0E0051F10001B1F5B8
:102FF000801FCCF1200E32D201EB045112FA0EF2F6
:10300000BDE8104058BF7047401C38BF5FEA42021D
:1030100018BF7047002814BF20F0010041F10001E3
:103020004FEA410313F5001F38BF7047A1F1C041BB
:1030300000F08CB9012A43EB0302ACF1200CDCF167
:103040001F0E32BF4FF0000E23FA0CF310EB0300FB
:1030500041EB0451B4EB115FD0D0A1EB045101F569
:10306000801149085FEA300001EB04510ED350F1A2
:10307000000038BF12FA0EFE08D1BDE81040C9E7C3
:10308000401C38BF5FEA4202CAD1C3E7BDE8104026
:103090004FEA410313F5001F38BF7047A1F1C0414B
:1030A00000F054B99EEA445F08D011EA5E0FBDE813
:1030B000104004BF01F0004100207047BDE81040FF
:1030C00070B500F0F5F800BF64FBBE3E0000E0FF05
:1030D0004FEA41034FEA5353A3F58063D3F11E0334
:1030E000C8BFD3F1210C0CDD4FF0004242EAC122EF
:1030F00042EA505232FA03FC8CEAE17CACEBE1701C
:103100007047102BC4BF0020704703F5787CBCF1DA
:10311000FF3F04D06FF0004282EA2100704770B593
:1031200000F0C6F84992248000207047F2E710F0C2
:10313000004248BF4042B0FA80F310FA03F10AD0CF
:10314000C3F11D0303F580634FEA415002EB0352C4
:1031500002EBD12170474FF000007047DFF848C103
:1031600070B51CEA111E1EBF1CEA13159EEA0C0F57
:1031700095EA0C0F00F06F8081EA030423EA4C13F8
:103180004EEAD47E21EA4C1141F4801143F48013BD
:10319000AE44A1FB024CA0FB0365AEF17F7E361965
:1031A00055EB0C05A1FB034C4CF10003A0FB021CEA
:1031B00016EB0C06654153F10003094218BF46F0B7
:1031C000010613F4007F0BD14FEA03314FEA0530BB
:1031D000340341EA155140EA16506FF003020AE049
:1031E0004FEAC3214FEAC520F40241EA555140EAB3
:1031F00056506FF0020202EB2E4201EB025585EAB7
:10320000CE710AD05FEA440C18BF24F0004450F19C
:10321000000041F1000120EAD47040F2FE7C6245DA
:1032200000D270BDA84214BF4FF080444FF040441C
:10323000002E08BF0024BEF1806FA8BFA1F1C041DD
:10324000BDE8704080F282804FF0000001F1C04183
:1032500001F0004170479EEA0C0F0CEA131518BFED
:1032600095EA0C0F06D04FF0000081EA030E0EF035
:10327000004170BD00F01CF88900013E00F007B865
:1032800000F009B84FEA430C5FEA5C5C08D081EAC1
:10329000030100F05BB84FEA410C5FEA5C5CF6D1D9
:1032A0004FF00000014970470000FF070000F87F61
:1032B0000EF1020E2EF0030E5EF8046B364205D4BA
:1032C000012A43EB030515F5001F12D8012841EB35
:1032D000010C1CF5001F0CD80ED14FEAD17C15F55E
:1032E000001F0CEB4C0C0CF1020C08BF4CEBD37C18
:1032F00004E04FF0080C01E04FEAD37C0CEB4C05E6
:1033000026FA05F606F00706B6F1040C06D20EEB17
:10331000860CBDE870404CF0010C6047DFE80CF013
:10332000090B02024FF000414FF00000A1F500210F
:1033300070BD19461046012851EB010418BFD4F5A1
:10334000001484BF002001F0004170BD0808A0F502
:1033500000114FEA3101704710B591EA030F48BFE1
:1033600083F000433FF514AE841A71EB030C07D2CF
:1033700012198CF0004C43EB0C03001B61EB0C01A9
:10338000DFF8A4E14FEA1154A4EB135C1EEA430FEB
:1033900018BF9EEA445F00F0B08023EA6E035242F9
:1033A00021EA0451C3EB6E0338BF5B1EDCF1200E33
:1033B00025D322FA0CFE10EB0E0043FA0CFE41EB73
:1033C0000E01CCF1200E03FA0EFE10EB0E0051F1AF
:1033D0000001CCF1200E29D412FA0EF201EB0451B7
:1033E000BDE8104058BF7047401C1CBFB2F1004FF1
:1033F000704700280CBF491C20F00100704712EBF9
:10340000020E43EB030218BF4FF0010E4EEA4202D8
:10341000ACF1200CDCF11E0E54D943FA0CFE10EB7B
:103420000E0051F1FF31CCF11E0ED5D50EF1010E7B
:1034300012FA0EFE404141EB010101EB445C5FEAF0
:103440005C5C10D910EBDE7001EB045138BFBEF1AB
:10345000004FBDE8104018BF704700280CBF491C42
:1034600020F00100704730D24FEAD42C11F5001142
:1034700024F400641BD0B1FA81F20B3AA41AA41E02
:10348000D2F12003914030FA03F31943904001EB4D
:10349000CC71002C01EB0451BDE81040A8BF70476F
:1034A00001F1C0414FF0000001F000417047B0FA57
:1034B00080F310FA03F100D110BDE41A173C48055F
:1034C000C90AE4E701EB045110BD491001EB0451B6
:1034D000BDE810404FEA300002E04FF000017047B5
:1034E0004A0008BF0042F8D0B2F5001F28BF70475D
:1034F00001F000414FF0000070479EEA445F07D0A2
:1035000011EA5E0FBDE8104004BF002100207047A3
:10351000BDE8104070B5FFF7CBFE00BF40DFF63EC0
:1035200083F00041104670470000E0FF09010302EC
:1035300006040C08030200016836000800000020A1
:10354000480C00006C010008B8380008480C002046
:10355000A8060000C8010008100100004300000098
:10356000F8FFFFFF004040404040404040404141A4
:103570004141414040404040404040404040404048
:1035800040404040400502020202020202020202E2
:1035900002020202022020202020202020202002DF
:1035A000020202020202909090909090101010106F
:1035B000101010101010101010101010101010100B
:1035C000020202020202888888888888080808089F
:1035D000080808080808080808080808080808086B
:1035E0000202020240000000000000000000000093
:1035F00000000000000000000000000000000000CB
:1036000000000000000000000000000000000000BA
:1036100000000000000000000000000000000000AA
:10362000000000000000000000000000000000009A
:10363000000000000000000000000000000000008A
:10364000000000000000000000000000000000007A
:10365000000000000000000000000000000000006A
:10366000000000000000000011100A03050911FF0E
:10367000118905C312E012F072F8073D4428FF11CA
:10368000AA44700B83013844829292740183280803
:103690007C44FF017D7D7D044905647D01FF9A0125
:1036A00002818A010B013669419949FA0101011D24
:1036B00038083F3F0303F31311011E01F11161812B
:1036C000312D816111F1393B4141072C01C1211E8E
:1036D000AB21C114390139360738D33303033F3FD7
:1036E00023E0E06A7FA81A7FBF4C0618060A21363D
:1036F00040407F40401C1F204001AB201F14113A66
:10370000600E6C300C034601361C07070601780971
:103710000404048444444484071C0484C405790ECE
:1037200009110A79112940034107072610181412BC
:10373000112E0F1010100F0F331F10260810121229
:103740000D22186B0D120A5929590701605A800180
:10375000013D20087F030C300C037F25385454585A
:10376000257C04047805223C40407C17FFAAAAAAC5
:1037700028080A2CFF681E2649494932101D0204F8
:1037800008100F100A03050911FF118905C312E083
:1037900012F072F8073D4428FF11AA44700B830110
:1037A00038448292927401831E7C44FF017D01990A
:1037B0000559BB9A0102818A010B01366941994979
:1037C000FA010101204BF808011135F81860803525
:1037D000806018F82B202006312BE0101EAB10E083
:1037E00014613937043E8868186A7FA71A7FBE4C77
:1037F0000618060A114640407F40401C1F20400129
:10380000AB201F141162603A602F01441E4020203B
:1038100020C0ED190729EA2A4005115A600E8918BF
:10382000792959070149260C0A0A090C360F08089C
:10383000080F2C080F08151D0809090E0719181C78
:1038400009090918190A5929590701605A80010103
:103850003D20087F030C300C037F25385454582535
:103860007C04047805223C40407C17FFAAAAAA28C1
:10387000080A2CFF681E264949493210160204081E
:10388000107FBBFFFF4002700FD980017109FD80DE
:1038900009FD8009C9800A3440015184A24A04907C
:1038A0000901020304060708090216012928692CE8
:0838B0000500020406080000F7
:0400000508000131BD
:00000001FF
