:020000040800F2
:10000000D801012031020008610E00082D0D000802
:10001000310D0008D9050008BF16000800000000D7
:100020000000000000000000000000007B1300083A
:10003000C50B0008000000006D0F000891140008B7
:100040004B0200084B0200084B0200084B0200085C
:100050004B0200084B0200084B0200084B0200084C
:100060004B0200084B0200084B0200084B0200083C
:100070004B0200084B0200084B0200084B0200082C
:100080004B0200084B0200084B0200084B0200081C
:100090004B0200084B0200084B0200084B0200080C
:1000A0004B0200084B0200084B0200084B020008FC
:1000B0004B0200084B0200084B0200084B020008EC
:1000C0004B0200084B0200084B0200084B020008DC
:1000D0004B020008FD1400084B0200084B02000808
:1000E0004B0200084B0200084B0200084B020008BC
:1000F0004B0200084B0200084B0200084B020008AC
:100100004B0200084B0200084B0200084B0200089B
:100110004B0200084B0200084B0200084B0200088B
:100120004B0200080D0800084B0200084B020008B3
:100130004B0200084B0200084B0200084B0200086B
:100140004B0200084B0200084B0200084B0200085B
:100150004B0200084B0200084B0200084B0200084B
:100160004B0200084B0200084B0200084B0200083B
:100170004B0200084B020008FD0600084B02000875
:100180004B0200084B02000800F002F800F041F8B2
:100190000AA090E8000C82448344AAF10107DA45E2
:1001A00001D100F036F8AFF2090EBAE80F0013F0F3
:1001B000010F18BFFB1A43F001031847481A00004B
:1001C000681A0000103A24BF78C878C1FAD85207DC
:1001D00024BF30C830C144BF04680C6070470000C1
:1001E0000023002400250026103A28BF78C1FBD840
:1001F000520728BF30C148BF0B607047642900F028
:100200006D80002070471FB501F0A8FC1FBD10B520
:1002100010BD00F0B1F91146FFF7F5FF01F082FBC8
:1002200000F0CFF903B4FFF7F2FF03BC01F050FA7E
:100230000948804709480047FEE7FEE7FEE7FEE77A
:10024000FEE7FEE7FEE7FEE7FEE7FEE704480549B6
:10025000054A064B70470000951400088901000804
:10026000D8FB0020D8010120D8FD0020D8FD0020B7
:10027000704700000FB4044910B503AA029800F0BB
:100280004DF910BC5DF814FB0400002070B5044665
:1002900085690068C10601D5302600E02026C00728
:1002A00007D070BDD4E9012130469047206A401C38
:1002B00020626D1EF6D570BD70B504468569007864
:1002C000C00707D170BDD4E9012120209047206AE2
:1002D000401C20626D1EF6D570BD00002DE9F04176
:1002E0000646002410687529314616A510D0AFF3D4
:1002F0000080002802DA404213A507E031688A072F
:1003000001D512A502E0490704D511A5012401E099
:10031000AFF3008000210A2206F1240709E0B0FBB8
:10032000F2FCB0FBF2F302FB1C00303078541846AC
:10033000491C0028F3D123462A463046BDE8F04147
:1003400000F093B8000000002D0000002B0000001A
:10035000200000002DE9F0474FF0000A89460446CE
:10036000C0F820A02046E1688847002876D02528DC
:1003700006D0D4E901219047206A401C2062F1E7B1
:10038000E168204600258847C4F81CA006460027DF
:10039000C4F818A02A2E09D0304601F092F938B3DB
:1003A00004EB8708303EC8F8186019E059F8041BC0
:1003B000204604EB87029161E1688847012F0646D9
:1003C00018D1E069002820DA25F020051DE0D8F8D2
:1003D000180000EB800006EB40003038C8F8180029
:1003E0002046E1688847064601F06BF90028EED107
:1003F000012F0AD02E2E08D12046E16888477F1CA5
:100400000646022F45F02005C4DBA069002803DA68
:10041000404245F00105A061E80701D025F0100534
:10042000B6B1A6F14100192802D8203645F400657E
:100430004A463146204625604D46FFF7DFFE58B15B
:10044000012806D0ED1D25F0070000F1080989E715
:1004500004E005F1040985E730468AE7206ABDE833
:10046000F08770477047704770472DE9F0470D4699
:1004700099469246044600F124080168880604D58E
:10048000E06921F01001216000E00120A84201DDB7
:10049000471B00E00027A1697A1902EB0900081A3E
:1004A000A0612078C00602D42046FFF7EFFE0026A8
:1004B00008E0D4E901211AF806009047206A401CA0
:1004C000761C20624E45F4DB2078C0060AD5204613
:1004D000FFF7DCFE06E0D4E9012130209047206AD6
:1004E000401C2062381EA7F10107F4DC07E0D4E9C4
:1004F000012118F805009047206A401C2062281E40
:10050000A5F10105F3DC2046FFF7D6FE20780006B2
:1005100002D50220BDE8F0870120FBE7074B70B54C
:100520000D467B4400F011F80446284600F020F800
:1005300010B14FF0FF3070BD204670BDFF120000BB
:1005400001694A1C02610878704700B58FB0CDE997
:1005500001310021059105497944CDE90310114687
:100560006846FFF7F7FE0FB000BD0000E5FFFFFF94
:10057000007B00F080007047754600F029F8AE4619
:1005800005006946534620F00700854618B020B59F
:10059000FFF75CFEBDE820404FF000064FF000077B
:1005A0004FF000084FF0000B21F00701AC46ACE81B
:1005B000C009ACE8C009ACE8C009ACE8C0098D4688
:1005C00070470446AFF300802046FFF72BFE000083
:1005D0000048704778FB002000BFFEE730B10749B4
:1005E000096841F00101054A116005E00349096805
:1005F00021F00101014A1160704700000000055020
:1006000001494861704700000000055030B10749BA
:10061000096841F48041054A116005E00349096811
:1006200021F48041014A116070470000000005502C
:1006300070B590B004460D4616460121880500F0BD
:1006400097FC1E4800F09CF900BF1C4800F044FADB
:100650000028FAD14FF000700190194802900394DD
:1006600000200490059506904FF48060079080006C
:100670000890099600110A9040020B9004200C90FB
:1006800003200D9000200E900F9001A90B4800F060
:100690006DFA01221021094800F04AFA39208DF83C
:1006A000000000208DF801008DF8020001208DF877
:1006B0000300684600F0D6FB10B070BD286402400D
:1006C00028000550002005490860C8601F204861C7
:1006D00000208861C86108624862704700000550C8
:1006E000014600200022044B1B6903EA01020AB103
:1006F000012000E0002070470000055008B50120EF
:10070000FFF7EEFF012821D100201149086000F019
:1007100069F80120FFF774FF684601F091F80D4871
:100720000078012802D10C4801F0C2F80B4800788B
:10073000401C0A49087000200949087009490880CE
:1007400000F044F801200249086000BF08BD000025
:10075000900241422100002078AB00201A000020C6
:100760001F0000201C00002029B1074AD268024364
:10077000054BDA6006E0044AD268C3439BB21A40D4
:10078000014BDA60704700000000055000210E4A5E
:10079000126844F201039A430B4B1A601A4611681F
:1007A00040F6F2729143028843881A4383881A43C1
:1007B000C3881A4303891A4343891A4383891A4316
:1007C0001143014A116070470000055010B5012126
:1007D000034800F0C9F80120FFF700FF10BD00003A
:1007E0002864024010B50020FFF7F8FE00BF05485E
:1007F000006800F001000028F9D10021024800F053
:10080000B3F810BD000005502864024010B54049FF
:10081000404800F06BF9012878D13F480088401C1F
:100820003D4908803A493B4800F084F83A49088835
:1008300000EBD0714910A0EB4101002965D10024E3
:1008400034E0502000EB84003449085C80103449C7
:100850000978C1EB0111334A02EBC1010855502060
:1008600000EB84002D49085C8007C00E512101EB8C
:1008700084012A4A515C00EB611029490978C1EBD7
:100880000111294A02EBC1010855512000EB8400F7
:100890002249085C00F01F0021490978C1EB0111D1
:1008A000224A02EBC1010855601CC4B2782CC8DB97
:1008B000002423E01A480078C0EB0010194901EB2E
:1008C000C000005D16490978C1EB0111164A02EB20
:1008D000C101095D084412490978C1EB0111134AAD
:1008E00002EBC101095D08440D490978C1EB011112
:1008F0000F4A02EBC1010855601CC4B2782CD9DB49
:1009000007480078401C0649087000BF10BD000071
:1009100000080010286402401C000020380000205D
:100920001F000020B8020020F83A00203873002091
:1009300078AB00200246094B9A4201D2084801E0F8
:100940000648103801F000531BB1064B0B40C36042
:1009500002E0044B0B4083607047000010640240CB
:10096000006002407D0F7D0F21B1026842F001025C
:10097000026003E0026822F001020260704700009A
:10098000016821F001010160002101604160816086
:10099000C1600161212141614A49884204D13D2160
:1009A000484A103A91608CE046491831884205D196
:1009B0004FF47461434A103A916082E0414930310A
:1009C000884205D14FF474113E4A103A916078E0A4
:1009D0003C494831884205D14FF07461394A103A98
:1009E00091606EE037496031884204D13649354A1A
:1009F000103AD16065E033497831884204D13349F7
:100A0000304A103AD1605CE02E499031884204D1DE
:100A10002F492C4A103AD16053E02A49A831884224
:100A200005D14FF03D51274A103AD16049E029499C
:100A3000884204D13D21274A083A116041E0254906
:100A40001831884205D14FF47461224A083A116086
:100A500037E020493031884205D14FF474111D4AE6
:100A6000083A11602DE01B494831884205D14FF00A
:100A70007461184A083A116023E0164960318842CF
:100A800004D11149134A121F11601AE0114978313B
:100A9000884204D10D490F4A121F116011E00D491F
:100AA0009031884204D10A490A4A121F116008E0B5
:100AB0000849A831884204D14FF03D51054A121F20
:100AC00011607047106002403D000020400F002080
:100AD00000003D2010640240014600200A6802F038
:100AE00001020AB1012000E00020704730B5034642
:100AF0000A46002000240B4DAB4201D20A4901E016
:100B00000849103902F000550DB14C6800E00C683E
:100B1000064D2C4004EA02050DB1012000E0002042
:100B200030BD000010640240006002407D0F7D0F68
:100B300010B501F080034BB122B1436943F080034B
:100B4000436103E0436923F08003436180290BD0B4
:100B50002AB1036801F01E042343036004E0036824
:100B600001F01E04A343036010BD000010B5002275
:100B70000268134B1A40CC680B6823434C6923432B
:100B80008C692343CC6923430C6A23434C6A234377
:100B90008C6A23434C6B23438C6B23431A430260C0
:100BA000426922F00702D1E90B3423431A43426120
:100BB0000B6943604B6883608B68C36010BD0000A5
:100BC0003F801CF07047F0B50A4600210023002446
:100BD00000BF3DE0012505FA01F3156805EA0304AD
:100BE0009C4234D105684F000326BE40B5430560E2
:100BF00015794E00B5400668354305601579012D1D
:100C000002D01579022D16D185684F000326BE400B
:100C1000B543856055794E00B5408668354385609B
:100C2000456801268E40B5434560456896798E40FB
:100C3000B6B235434560C5684F000326BE40B54394
:100C4000C560D5794E00B540C6683543C560491CBE
:100C50001029BFD3F0BDF0B5002300244D07ED0EE1
:100C600002FA05F3CE1000F1200555F826504E0784
:100C7000F70E0F26BE40B543CF1000F1200646F810
:100C80002750CE1000F1200555F8265045EA030400
:100C9000CE1000F1200545F82640F0BD1CB501211D
:100CA000084600F065F9002208211C48FFF7D3FF31
:100CB0004FF48070009002208DF8040003208DF81E
:100CC000050000208DF8060001208DF80700694618
:100CD0001248FFF778FF4FF0C061081100F0ECF9FF
:100CE0000121082000F044F91820009001208DF81F
:100CF000040000208DF8060002208DF80500012078
:100D00008DF8070069460648FFF75DFF002005499A
:100D1000086001200449C1F890021CBD0000024097
:100D2000000C02408C8241420080414200BFFEE73D
:100D300000BFFEE700B587B001210F2000F018F9D1
:100D40000121084600F024F95020019002208DF87E
:100D5000080000208DF80A0003208DF8090001200A
:100D60008DF80B0001A93B48FFF72DFF4FF4707081
:100D7000019001A93848FFF726FF4FF43C6001902D
:100D800001A93648FFF71FFF0D2204213148FFF764
:100D900062FF0D2206212F48FFF75DFF0D2207217C
:100DA0002D48FFF758FF0D2206212C48FFF753FF6F
:100DB0000D2207212948FFF74EFF0D220821274861
:100DC000FFF749FF0D2209212448FFF744FF0D22B8
:100DD0000B212248FFF73FFF0D2206211E48FFF797
:100DE0003AFF0D2208211C48FFF735FF0D2209218B
:100DF0001948FFF730FFFFF765FC0020ADF80C0045
:100E0000ADF81600ADF81800ADF814002020ADF8CC
:100E100010008020ADF812000020ADF80E0003A8ED
:100E2000FFF7B4FC01210846FFF79EFC0120FFF705
:100E3000EDFB4E208DF8000001208DF8010002200E
:100E40008DF8020001208DF80300684600F00AF8D2
:100E500007B000BD0000024000040240000802404C
:100E60007047000070B5002100230F22C4781CB326
:100E7000174C246804F4E064C4F5E064C4F307216B
:100E8000C1F10404E3B20A4144789C40E1B28478A1
:100E9000144021430C07210E0E4C0578615504784F
:100EA00004F01F050124AC4005786D11AD0005F17B
:100EB000E025C5F8004109E0047804F01F0501248D
:100EC000AC40054D0678761145F8264070BD00000F
:100ED0000CED00E000E400E080E100E070B50025EA
:100EE000FFF7DCFE642000F013FC0A2000F010FC89
:100EF00000F0F0F88021122000F01AFA08B1012069
:100F000070BD322000F004FC0A2000F055F90446C0
:100F1000772C01D00220F3E70B2000F04DF90446B6
:100F2000212C01D00220EBE7002518E0002606E086
:100F30003046711CCEB2642801D10320E0E70A4A92
:100F400002EB45025178084A12F8150000F0F0F95A
:100F50000028EDD1022000F0DBFB681C85B24E2D8D
:100F6000E4D30020CCE70000661B000870470000B7
:100F700029B1064A12680243044B1A6004E0034A8E
:100F800012688243014B1A607047000030380240FB
:100F900029B1064A12680243044B1A6004E0034A6E
:100FA00012688243014B1A607047000034380240D7
:100FB00029B1064A12680243044B1A6004E0034A4E
:100FC00012688243014B1A607047000044380240A7
:100FD000F0B5002100220024022500260223324F12
:100FE0003F6807F00C0121B1042905D0082937D149
:100FF00005E02E4F076036E02D4F076033E02A4FA3
:101000003F1F3F68C7F38056274F3F1F3F6807F0D9
:101010003F036EB1264FB7FBF3F7DFF88CC0ACF19E
:10102000040CDCF800C0CCF3881C07FB0CF40CE0CB
:101030001E4FB7FBF3F7DFF870C0ACF1040CDCF81F
:1010400000C0CCF3881C07FB0CF4174F3F1F3F6810
:10105000C7F301477F1C7D00B4FBF5F7076002E092
:10106000124F076000BF00BF0F4F3F6807F0F0014D
:101070000909104F7A5C0768D74047600A4F3F68FC
:1010800007F4E051890A0B4F7A5C4768D7408760C4
:10109000054F3F6807F46041490B064F7A5C47688B
:1010A000D740C760F0BD0000083802400024F400BB
:1010B00000127A000A00002002460020044B186843
:1010C00020F0EC6042EA01031843014B18607047BE
:1010D000083802401CB501210820FFF749FFC02055
:1010E000009001208DF8040002208DF805000020FA
:1010F0008DF8060001208DF8070069460148FFF7CA
:1011000062FD1CBD000C024010B5782000F01CFBF5
:1011100001200B4908600B49C1F89802782000F0C3
:1011200013FB00200649091F0860782000F00CFB23
:1011300000200449C1F89C02782000F005FB10BD96
:101140009C8241420080414270B5002417480068EB
:1011500020F44040154908600846006808600825EA
:1011600015E0782000F0F0FA0120114908606006CF
:10117000040E1048D0F81C0208B1601CC4B27820DC
:1011800000F0E2FA00200A490860681EC5B2002D8E
:10119000E7DC0648006820F440400449086008463F
:1011A000006840F480400860204670BD000C02409A
:1011B000988241420080414270B50446002500F00B
:1011C0002FF8162000F0C0FA422000F05DF8DC2075
:1011D00000F0BAFA204600F057F8DC2000F0B4FA2C
:1011E00000F038F8DC2000F0AFFA00F019F8162013
:1011F00000F0AAFA432000F047F8DC2000F0A4FA3F
:10120000FFF7A2FF0546162000F09EFAFFF77CFFCD
:10121000162000F099FA00F01DF8284670BD000075
:1012200010B50120094908600949C1F898027820E1
:1012300000F08AFA002005490860782000F084FA5E
:1012400000200349C1F8980210BD00009C82414271
:101250000080414210B5002009490860782000F064
:1012600073FA01200749C1F89802782000F06CFA5F
:10127000012003490860782000F066FA10BD0000E4
:101280009C8241420080414270B5044600261BE02A
:1012900004F0800018B101202249086002E000201B
:1012A000204908606006040E782000F04DFA012005
:1012B0001C49091F0860782000F046FA00201A49EE
:1012C000C1F89802701CC6B2082EE1DB174800680E
:1012D00020F44040154908600846006808607820FE
:1012E00000F032FA01200F49091F0860782000F051
:1012F0002BFA0D48D0F81C0208B1012500E00025AA
:1013000000200849091F08600848006820F4404090
:10131000064908600846006840F480400860284696
:1013200070BD00009C82414200804142000C02409E
:1013300070B505460C460026FFF772FFDC2000F072
:1013400003FA4220FFF7A0FF00B10126DC2000F0E5
:10135000FBF92846FFF798FF00B10126DC2000F0DA
:10136000F3F92046FFF790FF00B10126162000F0A8
:10137000EBF9FFF76FFF304670BD70470CB50020EA
:10138000019000903448006840F480303249086091
:1013900000BF3148006800F4003000900198401C04
:1013A0000190009818B90198B0F5A04FF1D12A48E2
:1013B000006800F4003010B10120009001E000202E
:1013C00000900098012846D123484030006840F042
:1013D00080502149403108602048006840F4404076
:1013E0001E4908601C48083000681B490831086025
:1013F0000846006840F4004008600846006840F471
:10140000A05008601648091F0860081F006840F0D7
:101410008070091F086000BF0F48006800F000706E
:101420000028F9D040F205700E4908600A480830DB
:10143000006820F003000849083108600846006889
:1014400040F00200086000BF03480830006800F068
:101450000C000828F8D10CBD003802400070004094
:1014600008544007003C0240042808D14FF0E02116
:10147000096941F004014FF0E022116107E04FF0EB
:10148000E021096921F004014FF0E0221161704769
:101490007047000010B51548006840F4700013490B
:1014A00008601348006840F00100114908600020FE
:1014B0000F49083108600E4800680E4908400C4981
:1014C00008600D48091D0860081F006820F480208E
:1014D000091F0860002006490C310860FFF74EFF25
:1014E0004FF0006001498039086010BD88ED00E0D0
:1014F00000380240FFFFF6FE1030002410B540F225
:101500002551054800F018F820B1034800F0CEF846
:101510000249087010BD00000010014021000020A9
:1015200021B1828942F40052828104E082894DF621
:10153000FF731A408281704770B502460024002371
:101540000025002040F66A16B14200D100BFC1F369
:10155000421501F01F03012606FA03F3012D02D103
:101560009689334006E0022D02D1168A334001E00D
:10157000968A33400C12012606FA04F41688344089
:1015800013B10CB1012000E0002070BDF0B503469E
:10159000002400260025002040F66A17B94200D139
:1015A00000BF1846C1F3421401F01F06012707FAD5
:1015B00006F5012C01D10C3004E0022C01D11030D1
:1015C00000E014301AB107682F43076002E0076893
:1015D000AF430760F0BD00002DE9FF4705460E460A
:1015E0000024A14600BFA046B08900B100BF2C8AEC
:1015F00024F44054F08804432C82AC8941F20C60FE
:101600008443B08831890843718908430443AC811D
:10161000AC8A24F44074B0890443AC826846FFF776
:10162000D7FC2048854202D01F48854202D1DDF810
:101630000C9001E0DDF80890A88900F4004040B16A
:1016400009EBC90000EB091031684900B0FBF1F764
:1016500007E009EBC90000EB091031688900B0FB15
:10166000F1F76420B7FBF0F004012009642101FBCD
:101670001078A88900F4004040B1322000EBC80087
:10168000B0FBF1F000F00700044308E0322000EB6B
:1016900008106421B0FBF1F000F00F0004432C812E
:1016A000BDE8FF8700100140001401400146888812
:1016B000C0F308007047C1F308028280704700BF82
:1016C000FEE730380A2801D2012070470020704719
:1016D00000BF704710B504466FF00400FFF7C4FE6A
:1016E000E11704EB5171C1F3C701074A11701046AD
:1016F000007800EB4001C1EBC0104FF6FF7101EA2A
:10170000C0000249088010BD000000200200002037
:1017100070B504464FF4077094FBF0F0C6B24FF476
:10172000077094FBF0F100FB114085B205E04FF427
:10173000077000F02FF8701EC6B2002EF7D115B159
:10174000284600F027F870BD0146114A12784A4336
:101750004FF0E0235A6100229A611A46126942F062
:1017600001021A6100BF4FF0E022106900F001028F
:101770001AB100F48032002AF5D04FF0E02212694D
:1017800022F001024FF0E0231A6100229A617047B3
:10179000000000200146114A12884A434FF0E0231E
:1017A0005A6100229A611A46126942F001021A61D6
:1017B00000BF4FF0E022106900F001021AB100F4FE
:1017C0008032002AF5D04FF0E022126922F00102A7
:1017D0004FF0E0231A6100229A6170470200002056
:1017E00001200F498871C871087203210C480174E7
:1017F00001214174817481760321C1760121017731
:1018000080F8241080F82510032180F8261080F835
:101810002E1080F82F10012180F830107047000042
:10182000B8E3002000BF054A128802F04002002AF7
:10183000F9D0C2B2014B9A807047000000100140FD
:101840002DE9F04704464FF00008C14600277822F2
:101850001146134800F0C0F8002512E000260CE005
:10186000C5EB05100E4901EBC000805D092802DDC3
:10187000B044A9447F1C701CC6B2782EF0DB681CF3
:10188000C5B2782DEADBB8FBF7F02070B9FBF7F0B2
:1018900060706278217803A0FEF7ECFCBDE8F08769
:1018A00078AB0020253464202534640D0A00000044
:1018B00070B50646FEF796FF00211948FFF7FBFEBC
:1018C0002820FFF741FFFF211548FFF7F4FE2820ED
:1018D000FFF73AFF01211248FFF7EDFE2820FFF73E
:1018E00033FF00210E48FFF7E6FE2820FFF72CFF0C
:1018F000002410E000250BE02820FFF725FFC4EBB3
:10190000041006EBC000415D0548FFF7D4FE6D1CD6
:10191000782DF1DB641C782CECDBFEF757FF70BDF3
:10192000001001401CB5A820FFF7D4FE4FF47A3018
:1019300000F0BEF801210420FFF71AFB10200090F0
:1019400001208DF8040002208DF8050000208DF89C
:10195000060001208DF8070069461348FFF733F9A8
:10196000012012490860FFF73BFF06E010A0FEF7D8
:1019700081FC4FF4C870FFF7CBFEFFF7AFFA0028E9
:10198000F4D110A0FEF776FC4FF4E160FFF7C0FE43
:10199000FFF7D0F94FF48042A0210E48FEF748FE31
:1019A000FEF714FF00BFFEE700080240900241422C
:1019B0004F56373732355F496E69745265747279A4
:1019C0000D0A00004F56373732355F496E69744F44
:1019D0006B0D0A00380000202DE9F04703460F4642
:1019E000944600214EE000203AE0C1EB011603EBE3
:1019F000C60616F800808E1CC6EB061603EBC60959
:101A0000861C19F80660A8EB0602C1EB011603EB71
:101A1000C608861C18F806808E1CC6EB061603EB5B
:101A2000C606365CA8EB0605B2F1000801DBC1462C
:101A300001E0C8F100092E1E01DBB24601E0C6F14B
:101A4000000A09EB0A04022C00DC00247F2C00DDD4
:101A50007F24C1EB011803EBC80808F80040401CC4
:101A6000ACF102068642C0DC0026C1EB011803EB94
:101A7000C80888F87760C1EB011803EBC80888F83C
:101A80007660491CBE1E8E42ADDC00200BE00026B5
:101A900043F2C878984408F8006043F250789844BC
:101AA00008F80060401C7828F1DBBDE8F0870000F2
:101AB00010B588B0044601210846FFF759FA012104
:101AC0001020FFF775FA072209212248FFF7C3F813
:101AD00007220A211F48FFF7BEF84FF4C0600690A6
:101AE00002208DF81C008DF81D0000208DF81E00CE
:101AF00001208DF81F0006A91648FFF764F802942C
:101B00000020ADF80C00ADF80E00ADF81000ADF8F7
:101B100014000C20ADF8120002A90F48FFF75CFD7D
:101B200001210D48FFF7FCFC012240F225510A4833
:101B3000FFF72CFD25208DF8040003208DF805000B
:101B40008DF8060001208DF8070001A8FFF78AF93B
:101B500008B010BD00000240001001404FF040707E
:101B6000E1EE100A70471101124A173F185019038D
:101B70001A78320029502C782A00427F4D0963E000
:101B800064FF65206600670013F00D010FC5142186
:101B900022FF23012434253C26A12B006BAA13FF2E
:101BA000695D900A910192019301945F955396119A
:101BB000971A983D995A9A1E9B38AB069C2CA78081
:101BC000A8809E71A6067E0C7F16802A814E8261B7
:101BD000836F847B8586868E879788A489AF8AC524
:101BE0008BD78CE88D20A980AA80ACFF3300229986
:101BF00023034A00491347084B144C1746050CD0E1
:101C00000E310000241C00080000002038000000F5
:101C1000C40100085C1C000838000020A00101007D
:101C2000E0010008000000000000000000000000CB
:101C30000000010203040102030406070809000072
:101C400000000000001F0000000000000000000075
:0C1C500000000000000000000000000088
:040000050800018965
:00000001FF
