:020000040800F2
:10000000600B00208D0D00087502000877020008C3
:100010007B0200087F020008830200080000000045
:10002000000000000000000000000000870200083F
:1000300089020008000000008B0200088D02000801
:10004000A70D0008A70D0008A70D0008A70D0008C0
:10005000A70D0008A70D0008A70D0008A70D0008B0
:10006000A70D0008A70D0008A70D0008A70D0008A0
:10007000A70D0008A70D0008A70D0008A70D000890
:10008000A70D0008A70D0008A70D0008A70D000880
:10009000A70D0008A70D0008A70D0008A70D000870
:1000A000A70D0008A70D0008A70D0008A70D000860
:1000B000A70D0008A70D0008A70D0008A70D000850
:1000C000A70D0008A70D0008A70D0008A70D000840
:1000D000A70D0008010D0008A70D0008A70D0008D6
:1000E000A70D0008A70D0008A70D0008A70D000820
:1000F000A70D0008A70D0008A70D0008A70D000810
:10010000A70D0008A70D0008A70D0008A70D0008FF
:10011000A70D0008A70D0008A70D0008A70D0008EF
:10012000A70D0008A70D0008A70D0008A70D0008DF
:1001300000F002F800F03AF80AA090E8000C8244BF
:100140008344AAF10107DA4501D100F02FF8AFF29C
:10015000090EBAE80F0013F0010F18BFFB1A43F0A5
:1001600001031847DC2C0000FC2C0000103A24BFCF
:1001700078C878C1FAD8520724BF30C830C144BF0C
:1001800004680C607047000000230024002500264E
:10019000103A28BF78C1FBD8520728BF30C148BFEA
:1001A0000B6070471FB51FBD10B510BD01F005FCF9
:1001B0001146FFF7F7FF00F009F801F023FC03B444
:1001C000FFF7F2FF03BC00F041FD00001CB5002466
:1001D00000F0D2FC00F00BFC0121042001F080F9BA
:1001E0000220ADF8040010208DF8070003208DF8E0
:1001F000060001A91E4800F0B7FE0420ADF8040077
:100200008DF8070001A91A4800F0AEFE0221184837
:1002100000F059FF2AE00221154800F052FF0A20A1
:1002200000F0E7FC0221124800F04DFF00BF04215E
:100230000F4800F02CFF0028F9D0002404E0601CD7
:1002400084B20A2000F0B1FC0421094800F01FFF2D
:100250000028F4D1102005232246002100900846F2
:1002600000F035FA4FF4FA7000F0C3FCD3E7000059
:1002700000080140704700BFFEE700BFFEE700BF77
:10028000FEE700BFFEE77047704770477047000009
:100290000CB50020019000906C48006840F480305C
:1002A0006A49086000BF6948006800F400300090A7
:1002B0000198401C0190009818B90198B0F5A06F02
:1002C000F1D16248006800F4003010B101200090C4
:1002D00001E0002000900098012843D15C480068AC
:1002E00040F010005A4908600846006820F00300FA
:1002F00008600846006840F0020008605348406803
:10030000524948600846406848600846406840F4E2
:10031000806048600846406820F47C1048600846C9
:10032000406840F4E81048600846006840F080707B
:10033000086000BF4548006800F000700028F9D050
:100340004248406820F00300404948600846406841
:1003500040F00200486000BF3C48406800F00C00DC
:100360000828F9D10CBD10B5FFF792FF10BD10B5EC
:100370003648006840F0010034490860084640688B
:10038000344908403149486008460068324908400D
:100390002E4908600846006820F48020086008465E
:1003A000406820F4FE0048604FF41F008860FFF7AB
:1003B000DAFF4FF000602949086010BD10B5002138
:1003C00000200022214B5B6803F00C0121B10429BD
:1003D00006D0082928D107E0214B224C236027E0D2
:1003E0001F4B204C236023E0184B5B6803F4701014
:1003F000164B5B6803F48032022303EB904022B972
:10040000194B4343174C23600DE0104B5B6803F41A
:10041000003323B1144B4343124C236003E0104BD1
:100420004343104C236003E00D4B0E4C236000BF90
:1004300000BF064B5B68C3F303130C4CE15C094B34
:100440001B68CB40074C236010BD00000010024029
:10045000002002400000FFF8FFFFF6FE08ED00E07C
:1004600000127A000000002000093D000400002076
:1004700070B504460E4626B10221FE4800F021FE6A
:1004800003E00221FB4800F01EFE1021FA4800F0B4
:100490001AFE002517E02021F74800F014FE04F0B2
:1004A000800020B18021F44800F00BFE03E08021A1
:1004B000F14800F008FE2021EF4800F002FE60063F
:1004C000040E681CC5B2082DE5DB1021EA4800F0D7
:1004D000F8FD0221E74800F0F4FD70BD70B5044658
:1004E0000D4605F1B001C8B20021FFF7C1FF102190
:1004F00041EA14100021FFF7BBFF04F00F0141F0A7
:1005000001000021FFF7B4FF70BD10B500218D2060
:10051000FFF7AEFF00211420FFF7AAFF0021AF2054
:10052000FFF7A6FF10BD10B500218D20FFF7A0FF3B
:1005300000211020FFF79CFF0021AE20FFF798FF5D
:1005400010BD70B5002419E004F1B001C8B200215B
:10055000FFF78EFF00210846FFF78AFF00211020D9
:10056000FFF786FF002505E001210020FFF780FF4F
:10057000681CC5B2802DF7DB601CC4B2082CE3DB1D
:1005800070BD2DE9F04107460E4690460025002437
:10059000A8F12000C5B27F2F02DD0027B01CC6B233
:1005A00031463846FFF79AFF002408E004EB0511B6
:1005B000B24A505C0121FFF75BFF601CC4B2082CFB
:1005C000F4DB701CC1B23846FFF788FF002409E055
:1005D00004EB05110831A94A505C0121FFF748FFDF
:1005E000601CC4B2082CF3DBBDE8F0812DE9F05F9C
:1005F00006460F4690461C46DDF828A04FF0000B3B
:10060000E11704EB5171C910A4EBC10131B92046C7
:10061000E11704EB5171C1F3C70506E02046E1176D
:1006200004EB5171C910491CCDB23D4615E0294675
:100630003046FFF753FFB1460BE059460BF1010B73
:100640001AF801000121FFF713FF09F1010000F082
:10065000FF09C145F1DB681CC5B2A542E7DBBDE877
:10066000F09F38B5002410E000250AE004EBC51027
:10067000401C8349085C04EBC511814A5054681C36
:10068000C5B2082DF2DB601CC4B2802CECDB012467
:1006900007E000200121C1EBC411794A5054601CCD
:1006A000C4B2092CF5DB764807237F220021009095
:1006B0000846FFF79BFF38BD10B50246012000E059
:1006C00050430B00A1F10104E1B2F9D110BD2DE9B5
:1006D000FF4F81B0804615461E460E9F4FF0000A20
:1006E00000200090002D02DA6D424FF0010A002434
:1006F00032E0301B401EC1B20A20FFF7DDFFB5FB20
:10070000F0F00A21B0FBF1F201FB1209009898B950
:10071000701EA04210DDB9F1000F0BD1BB4607EBF4
:10072000DB71491001FB0481C8B220220299FFF756
:1007300028FF0FE001200090BB4607EBDB7149105A
:1007400001FB0481C8B209F13001CAB20299FFF776
:1007500018FF00BF601CC4B2B442CADBBAF1010F7B
:1007600004D12D2240460299FFF70BFF05B0BDE8EA
:10077000F08F2DE9F04105460C4616460DB980254F
:1007800001E0681EC5B22746E01704EB5070C0F3C5
:10079000C7012846FFF7A2FE284605EBD071491095
:1007A000A5EB410101290AD1E11704EB5171C910F0
:1007B00005EBC111324A505C0121FFF759FE0EB121
:1007C000632E39D12046E71704EB5777FF10A4EBCF
:1007D000C70CFE2707FA0CF721464FEAE47C04EB2E
:1007E0005C7C4FEAEC0CA4EBCC0CCCF108084FF08D
:1007F000FF0C4CFA08FC47EA0C0722464FEAE47C5F
:1008000004EB5C7C4FEAEC0C05EBCC1C0CF1010C0E
:10081000DFF86C8018F80CC007EA0C0723464FEA93
:10082000E47C04EB5C7C4FEAEC0C05EBCC1C0CF19B
:10083000010C08F80C702AE02046E31704EB537310
:10084000DB1005EBC3135B1C0D4FFB5C2146E71768
:1008500004EB5777FF10A4EBC70C012707FA0CF73E
:100860003B43DFB22246E31704EB5373DB1005EB87
:10087000C31307E0000C014000080140101E0008EF
:10088000340000205B1CDFF8DCC20CF80370274644
:10089000E11704EB5171C91005EBC111491CB14AB4
:1008A000505C0121FFF7E4FDBDE8F0812DE9FC5F1C
:1008B00005460E4617461C46DDF83080384601F0E6
:1008C000ABF80190A849384601F0C2F8834601F020
:1008D000A3F8642190FBF1F201FB1209B9F1000FBA
:1008E00001DB484601E0C9F100008246E01EC3B2C8
:1008F000CDF8008031462846019AFFF7E8FE0D2228
:1009000002EBC602D1B205EBC402153AD0B2012205
:10091000FFF72FFF05EBC4011039C8B2022352467E
:100920003146CDF80080FFF7D2FEBDE8FC9F2DE9EF
:10093000F04104460F46154600260EE0AA5D3946F2
:100940002046FFF71EFE04F10800C4B2782C02DD39
:100950000024B81CC7B2701CC6B2A85D0028EDD137
:10096000BDE8F0812DE9F04180460E46154600278E
:1009700031464046FFF7B2FD00240AE07B4A02EB15
:100980008511085D0121FFF773FD781CC7B2601C5B
:10099000C4B2102CF2DB701CC1B24046FFF79EFDC2
:1009A00000240CE06900491C704A02EB4111085D0B
:1009B0000121FFF75DFD781CC7B2601CC4B2102C8A
:1009C000F0DBBDE8F08138B5002404E00020654983
:1009D0000855601C84B2B4F5806FF7DB61480823CA
:1009E0007F22002100900846FFF700FE38BD08B5C1
:1009F0000121042000F074FDB020ADF800001020AB
:100A00008DF8030003208DF802006946584800F075
:100A1000ABFAB021564800F054FB0121082000F049
:100A20005FFD40F20310ADF8000010208DF80300C8
:100A300003208DF8020069464E4800F095FA40F216
:100A400003114C4800F03DFB01214A4800F039FBFE
:100A5000642000F0CEF80121464800F034FBC820A5
:100A600000F0C7F80121434800F02BFB0021AE2025
:100A7000FFF7FEFC00210846FFF7FAFC00211020DA
:100A8000FFF7F6FC00214020FFF7F2FC0021812057
:100A9000FFF7EEFC0021CF20FFF7EAFC0021A120A8
:100AA000FFF7E6FC0021C820FFF7E2FC0021A620AA
:100AB000FFF7DEFC0021A820FFF7DAFC00213F2031
:100AC000FFF7D6FC0021D320FFF7D2FC0021084617
:100AD000FFF7CEFC0021D520FFF7CAFC00218020C3
:100AE000FFF7C6FC0021D920FFF7C2FC0021F1204E
:100AF000FFF7BEFC0021DA20FFF7BAFC002112202C
:100B0000FFF7B6FC0021DB20FFF7B2FC00214020FC
:100B1000FFF7AEFC00212020FFF7AAFC00210220F5
:100B2000FFF7A6FC00218D20FFF7A2FC0021142076
:100B3000FFF79EFC0021A420FFF79AFC0021A620CD
:100B4000FFF796FC0021AF20FFF792FC0021AF20B9
:100B5000FFF78EFCFFF7F5FC00210846FFF7BEFC0F
:100B600008BD0000340000200000C8420024000836
:100B700000080140000C014010B56FF0040000F0C7
:100B800074F92E4800682E49B0FBF1F02D49087029
:100B90000846007800EB4001C1EBC0104FF6FF7132
:100BA00001EAC0002849088010BD0146254A127894
:100BB0004A434FF0E0235A6100229A611A461269B3
:100BC00042F001021A6100BF4FF0E022106900F00C
:100BD00001021AB100F48032002AF5D04FF0E02271
:100BE000126922F001024FF0E0231A6100229A619B
:100BF00070470146144A12884A434FF0E0235A6175
:100C000000229A611A46126942F001021A6100BF7D
:100C10004FF0E022106900F001021AB100F48032B6
:100C2000002AF5D04FF0E022126922F001024FF0C5
:100C3000E0231A6100229A61704700000000002042
:100C400000127A00140000201600002000BF704738
:100C500000BF4A4A128802F04002002AF9D0C2B20C
:100C6000464B1B1D1A80704710B586B00446012103
:100C700044F2050000F034FC4FF40070ADF81400AD
:100C800003208DF8160018208DF8170005A93C48A0
:100C900000F06AF94FF48060ADF8140004208DF87C
:100CA000170005A9364800F05FF925208DF80000EF
:100CB00003208DF801008DF8020001208DF803005B
:100CC000684600F088F801940020ADF80800ADF8FF
:100CD0000A00ADF80C00ADF810000C20ADF80E00C5
:100CE00001A9264800F0A3FC012240F22551234827
:100CF00000F035FD0121214800F025FD06B010BDB2
:100D000010B540F225511D4800F00EFE10B31B48EF
:100D100000F08AFDC4B21B48008800F40040C8B946
:100D20001848008800F4804060B10A2C03D00020ED
:100D30001449088020E01348008840F4004011491D
:100D4000088019E00D2C06D10E48008840F4804040
:100D50000C49088010E00B480088C0F30D000A49D8
:100D60000C5408480088401C064908800846008842
:100D7000C72801DD0020088010BD000000380140B8
:100D8000000801401C00002034040020094880476E
:100D900009480047FEE7FEE7FEE7FEE7FEE7FEE75D
:100DA000FEE7FEE7FEE7FEE704480549054A064B75
:100DB000704700006F030008310100086005002043
:100DC000600B0020600700206007002031490143CC
:100DD000314A1160704770B5002100230F22C4789A
:100DE00004B32D4C246804F4E064C4F5E064210AE3
:100DF000C1F10403CA40447804FA03F18478144032
:100E000021430901254C0678A155047804F01F05FB
:100E10000124AC4005786D11AD0005F1E025C5F861
:100E2000004109E0047804F01F050124AC401C4D8A
:100E30000678761145F8264070BD1A4A0A400243EA
:100E4000154B1B1F1A60704739B1134A121D1268E7
:100E50000243114B1B1D1A6006E00F4A121D126857
:100E600082430D4B1B1D1A607047042808D14FF0B8
:100E7000E021096941F004014FF0E022116107E02F
:100E80004FF0E021096921F004014FF0E0221161E7
:100E9000704700000000FA050CED00E000E400E0FF
:100EA00080E100E080FFFF1F10B50446CC4884427B
:100EB00008D10121042000F02DFB0021042000F0C6
:100EC00029FB46E0C748844208D10121082000F0F0
:100ED00021FB0021082000F01DFB3AE0C2488442BB
:100EE00008D10121102000F015FB0021102000F096
:100EF00011FB2EE0BD48844208D10121202000F0E2
:100F000009FB0021202000F005FB22E0B8488442C4
:100F100008D10121402000F0FDFA0021402000F01E
:100F2000F9FA16E0B348844208D10121802000F08C
:100F3000F1FA0021802000F0EDFA0AE0AE48844288
:100F400007D10121801500F0E5FA0021A01500F07D
:100F5000E1FA10BD10B50121084600F0DBFA0021CE
:100F6000012000F0D7FA10BD2DE9F041024600251E
:100F70000026002000230024002791F803C00CF075
:100F80000F0591F803C00CF0100CBCF1000F03D05A
:100F900091F802C04CEA050591F800C0BCF1000FC1
:100FA00031D0146800202BE04FF0010C0CFA00F354
:100FB000B1F800C00CEA03069E4220D183004FF036
:100FC0000F0C0CFA03F7BC4305FA03FC4CEA0404CB
:100FD00091F803C0BCF1280F06D14FF0010C0CFAB8
:100FE00000FCC2F814C00AE091F803C0BCF1480F3D
:100FF00005D14FF0010C0CFA00FCC2F810C0401CE7
:101000000828D1D31460B1F800C0BCF1FF0F34DD63
:10101000546800202EE000F1080C4FF0010808FA97
:101020000CF3B1F800C00CEA03069E4221D1830004
:101030004FF00F0C0CFA03F7BC4305FA03FC4CEA23
:10104000040491F803C0BCF1280F05D100F1080C8D
:1010500008FA0CF8C2F8148091F803C0BCF1480FEC
:1010600007D100F1080C4FF0010808FA0CF8C2F89B
:101070001080401C0828CED35460BDE8F0814FF6A4
:10108000FF710180022181700421C1707047024606
:10109000002093680B400BB1012000E00020704756
:1010A0000146886880B2704702460020D3680B4032
:1010B0000BB1012000E0002070470146C86880B2F3
:1010C000704701617047416170470AB1016100E0FA
:1010D00041617047C16070474FF480320A438261BA
:1010E0008161826182698269704702460020434BB8
:1010F00018684FF68073184040EA021008433F4BCF
:10110000186070473E49C8617047F0B50A46002331
:1011100000240021002500F00046B6F1004F02D166
:10112000364EF16901E0354E7168C0F3034583B274
:1011300000F44016B6F5401F08D121F070612F4E23
:10114000766826F070662D4F7E6012E000F48016FF
:10115000B6F5801F06D1032606FA05F4A14341F037
:10116000706106E0460D360103FA06F6B14341F020
:10117000706122B1460D360103FA06F6314300F0E4
:101180000046B6F1004F02D11C4EF16101E01B4E4A
:101190007160F0BD30B500228B071C0F0F2303FADE
:1011A00004F2164B08338C1053F824309343134C3D
:1011B00008348D1044F8253023468C1053F8243021
:1011C0008C07240F00FA04F423430C4C08348D10D0
:1011D00044F8253030BD0A49DC3108607047000012
:1011E00000080140000C01400010014000140140C3
:1011F00000180140001C0140002001400000014097
:1012000000002042DF48006840F00100DD4908602E
:1012100008464068DC490840DA49486008460068EA
:10122000DA490840D74908600846006820F4802061
:1012300008600846406820F4FE0048604FF41F0034
:1012400088607047CF49096821F48031CD4A116028
:101250001146096821F480211160B0F5803F03D068
:10126000B0F5802F0ED106E0C649096841F48031FF
:10127000C44A116007E0C349096841F4A021C14A8A
:10128000116000E000BF00BF704710B501460022AA
:10129000002300204A11012A02D1BA4C236806E03B
:1012A000022A02D1B74C236A01E0B64C636A01F00E
:1012B0001F02012494401C400CB1012000E00020DA
:1012C00010BD38B5002000900024002500BF31205B
:1012D000FFF7DBFF05460098401C00900098B0F532
:1012E000A06F01D0002DF2D03120FFF7CEFF08B162
:1012F000012400E00024204638BD01460020A14A18
:10130000106820F0F80040EAC10010607047A04962
:1013100008607047024600209A4B586820F47C1001
:1013200042EA01031843974B586070479849086692
:10133000704701460020934A506820F0030008439C
:10134000506070478F48406800F00C0070470146BD
:1013500000208C4A506820F0F0000843506070472D
:1013600001460020874A506820F4E060084350603E
:10137000704701460020834A506820F4605040EADC
:10138000C1005060704729B17E4A527A02437D4BBA
:101390005A7204E07B4A527A82437A4B5A727047FF
:1013A0007B49D8310860704701460020754A506873
:1013B00020F440400843506070470021714A2032B9
:1013C0001170704A82F82010012802D004280AD136
:1013D00004E001216B4A2032117005E00521694AC1
:1013E0002032117000E000BF00BF704769490860FB
:1013F00070476449096A0143624A1162704765494E
:1014000044390860704730B50021002200240023D1
:101410005C4D6D6805F00C0121B1042905D0082947
:1014200023D105E05C4D056022E05B4D05601FE0C7
:10143000544D6D6805F47012524D6D6805F480349A
:10144000022505EB92421CB9544D554305600BE053
:101450004C4D6D6805F400351DB1504D5543056088
:1014600002E04D4D5543056002E04B4D056000BF65
:1014700000BF444D6D6805F0F0010909484D6B5CF3
:101480000568DD4045603F4D6D6805F4E061090A7F
:10149000434D6B5C4568DD4085603A4D6D6805F4F1
:1014A0006051C90A3E4D6B5C4568DD40C560354DF5
:1014B0006D6805F44041890B3A4D6B5CC568B5FB1E
:1014C000F3F5056130BD29B12E4A526902432D4B17
:1014D0005A6104E02B4A526982432A4B5A61704791
:1014E00029B1284A92690243264B9A6104E0254AB1
:1014F00092698243234B9A61704729B1214AD2698C
:101500000243204BDA6104E01E4AD26982431D4B3C
:10151000DA61704729B11B4AD2680243194BDA607D
:1015200004E0184AD2688243164BDA60704729B14A
:10153000144A12690243134B1A6104E0114A1269FA
:101540008243104B1A617047124940390860704756
:101550000F49C86470470B49C87170470948406A11
:1015600040F0807007494862704701460020054AF4
:1015700092680A400AB1012000E00020704701494A
:1015800088727047001002400000FFF8FFFFF6FE6F
:10159000000042428004424200127A0000093D00ED
:1015A0001E0000202E00002010B50446FB48844297
:1015B00009D101218803FFF7ADFF00214FF48040DE
:1015C000FFF7A8FF32E0F648844209D10121480420
:1015D000FFF7ADFF00214FF40030FFF7A8FF25E033
:1015E000F048844209D101218804FFF7A0FF0021BF
:1015F0004FF48020FFF79BFF18E0EB48844209D1AD
:101600000121C804FFF793FF00214FF40020FFF7EA
:101610008EFF0BE0E548844208D101210805FFF761
:1016200086FF00214FF48010FFF781FF10BD2DE9E8
:10163000F04786B005460E460024A24600BFA146EC
:101640000027B08900B100BF2F462C8A4CF6FF70EE
:101650000440F08804432C82AC894EF6F310044019
:10166000B08831890843718908430443AC81AC8A4E
:101670004FF6FF400440B0890443AC8201A8FFF755
:10168000C2FEC648874202D1DDF810A001E0DDF8B5
:101690000CA0A88900F4004040B10AEBCA0000EB9E
:1016A0000A1031684900B0FBF1F807E00AEBCA0004
:1016B00000EB0A1031688900B0FBF1F86420B8FB38
:1016C000F0F004012009642101FB1089A88900F4CD
:1016D000004040B1322000EBC900B0FBF1F000F057
:1016E0000700044308E0322000EB09106421B0FB3E
:1016F000F1F000F00F0004432C8106B0BDE8F08744
:101700004FF41651016000218180C18001810C21BC
:10171000418100218181704710B502460020108A66
:101720004FF2FF0318400B884C8823438C882343D7
:10173000CC8823431843108210BD002101804180D2
:101740008180C180704721B1828942F40052828138
:1017500004E082894DF6FF731A4082817047F0B52C
:101760000346002400260025002040F66A17B942EF
:1017700000D100BF1846C1F3421401F01F06012733
:1017800007FA06F5012C01D10C3004E0022C01D13E
:10179000103000E014301AB107682F43076002E0F0
:1017A0000768AF430760F0BD1AB1838A0B43838299
:1017B00002E0838A8B4383827047028A4FF6F0737C
:1017C0001A400282028A0A430282704782894FF2DB
:1017D000FF731A40828182890A438281704721B156
:1017E000828942F00202828104E082894FF6FD7311
:1017F0001A4082817047028A4FF6DF731A400282D4
:10180000028A0A430282704721B1028A42F480426E
:10181000028204E0028A4BF6FF731A40028270478C
:10182000C1F308028280704701468888C0F308002F
:101830007047818941F0010181817047028BD2B2EA
:101840000283028B42EA012202837047028B02F478
:101850007F420283028B0A430283704721B1828A4E
:1018600042F02002828204E0828A4FF6DF731A403F
:101870008282704721B1828A42F01002828204E0A3
:10188000828A4FF6EF731A408282704721B1828AB2
:1018900042F00802828204E0828A4FF6F7731A400F
:1018A0008282704721B1828942F40042828103E042
:1018B0008289C2F30E028281704721B1828A42F48A
:1018C0000062828204E0828A4FF2FF731A408282B1
:1018D0007047828A4FF6FB731A408282828A0A43DB
:1018E0008282704721B1828A42F00202828204E041
:1018F000828A4FF6FD731A408282704702460020AA
:10190000B1F5007F00D100BF13880B400BB101205F
:1019100000E00020704701F40072B2F5007F00D1B2
:1019200000BFCA430280704770B5024600240023FE
:101930000025002040F66A16B14200D100BFC1F375
:10194000421501F01F03012606FA03F3012D02D10F
:101950009689334006E0022D02D1168A334001E019
:10196000968A33400C12012606FA04F41688344095
:1019700013B10CB1012000E0002070BD10B50022B1
:10198000002340F66A14A14200D100BF0A120124CC
:101990009440A3B2DC43048010BD00000038014035
:1019A0000044004000480040004C0040005000400F
:1019B00070477047704770477047754600F028F8C9
:1019C000AE4605006946534620F00700854618B02C
:1019D00020B5FFF7E9F9BDE820404FF000064FF0D1
:1019E00000074FF000084FF0000B21F00701AC4654
:1019F000ACE8C009ACE8C009ACE8C009ACE8C00973
:101A00008D4670470446AFF300802046FEF7D7FBB3
:101A100000487047FC04002041000B0ED3F19E02E9
:101A200008D950F400034FEA032323FA02F048BF19
:101A30004042704710B500F08CF800BF49922480F6
:101A4000002070476FF0004282EA200070470000DB
:101A50004FF47F0C1CEAD0121EBF1CEAD11392EA8D
:101A60000C0F93EA0C0F00F0478090EA010F48BF7B
:101A700042F480724FF0004C4CEA00204CEA012105
:101A800002EB0302A0FB0113A2F50002002918BF1C
:101A900043F001035B0028BF4FEA330342EB2242CD
:101AA0005FEA132C4CEBC2502EBFBCEB436FB2F578
:101AB0007C0F70474FEA036CBCF1004F08BF20F069
:101AC0000100B2F57C0F38BF70470BD582F0FF02E2
:101AD00012F5803FC8BF704700F1C040D8BF00F08A
:101AE0000040704700F5000C5FEA4C0C48BF70479F
:101AF000B0F1C04000F073B890EA010F0CEAD113C6
:101B000048BF42F48072624538BF634504D280EA20
:101B1000010000F00040704710B500F01AF800BF57
:101B20008900013E00F007B800F009B85FEA410CF7
:101B30005FEA1C6C08D080EA010000F050B85FEA50
:101B4000400C5FEA1C6CF6D14FF00040A0F580001D
:101B500070470EF1020E2EF0030E5EF8044B244285
:101B600004D44FEA4102B2F17F4F11D84FEA40034B
:101B7000B3F17F4F0CD80ED14FEAD07CB2F17F4F3A
:101B80000CEB4C0C0CF1020C08BF4CEBD17C04E0CC
:101B90004FF0080C01E04FEAD17C0CEB4C0324FA27
:101BA00003F404F00704B4F1040C06D20EEB840C29
:101BB000BDE810404CF0010C6047DFE80CF007086E
:101BC00002024FF00040A0F5800010BD0846420020
:101BD00018BFD2F1807288BF00F0004010BDFF2115
:101BE00041EAD050C005704700000000000000002E
:101BF000002F000000000700070000147F147F146E
:101C000000242A7F2A1200626408132300364955F3
:101C1000225000000503000000001C2241000000CB
:101C200041221C000014083E08140008083E080861
:101C3000000000A0600000080808080800006060BC
:101C40000000002010080402003E5149453E0000FB
:101C5000427F4000004261514946002141454B31DD
:101C6000001814127F10002745454539003C4A49A9
:101C7000493000017109050300364949493600061B
:101C80004949291E00003636000000005636000083
:101C900000081422410000141414141400004122FE
:101CA000140800020151090600324959513E007CD6
:101CB0001211127C007F49494936003E41414122C0
:101CC000007F4141221C007F49494941007F0909A9
:101CD0000901003E4149497A007F0808087F000059
:101CE000417F4100002040413F01007F0814224114
:101CF000007F40404040007F020C027F007F0408CC
:101D0000107F003E4141413E007F09090906003E27
:101D10004151215E007F0919294600464949493150
:101D20000001017F0101003F4040403F001F204073
:101D3000201F003F4038403F006314081463000731
:101D40000870080700615149454300007F41410088
:101D500000552A552A55000041417F000004020128
:101D60000204004040404040000001020400002006
:101D700054545478007F4844443800384444442044
:101D800000384444487F00385454541800087E09F1
:101D900001020018A4A4A47C007F080404780000B9
:101DA000447D4000004080847D00007F1028440076
:101DB0000000417F4000007C04180478007C080487
:101DC000047800384444443800FC242424180018C3
:101DD000242418FC007C08040408004854545420AF
:101DE00000043F444020003C4040207C001C204038
:101DF000201C003C4030403C004428102844001C7B
:101E0000A0A0A07C004464544C4414141414141472
:101E100000000000000000000000000000000000C2
:101E2000000000F800000000000000333000000057
:101E300000100C06100C060000000000000000005E
:101E400040C07840C0784000043F04043F040400D0
:101E5000007088FC08300000001820FF211E0000E0
:101E6000F008F000E018000000211C031E211E00F5
:101E700000F00888700000001E212324192721107B
:101E800010160E000000000000000000000000001E
:101E9000000000E0180402000000000718204000C5
:101EA00000020418E00000000040201807000000B5
:101EB000404080F0804040000202010F0102020019
:101EC000000000F0000000000101011F01010100FD
:101ED000000000000000000080B070000000000062
:101EE00000000000000000000001010101010101EB
:101EF0000000000000000000003030000000000082
:101F00000000000080601804006018060100000056
:101F100000E010080810E000000F102020100F0053
:101F2000001010F8000000000020203F20200000DA
:101F30000070080808887000003028242221300032
:101F400000300888884830000018202020110E003A
:101F50000000C02010F8000000070424243F2400E3
:101F600000F80888880808000019212020110E00B8
:101F700000E0108888180000000F112020110E00CA
:101F800000380808C83808000000003F00000000C2
:101F90000070880808887000001C222121221C0083
:101FA00000E010080810E0000000312222110F00AC
:101FB000000000C0C0000000000000303000000041
:101FC00000000080000000000000806000000000B1
:101FD00000008040201008000001020408102000CA
:101FE0004040404040404000040404040404040015
:101FF00000081020408000000020100804020100AA
:10200000007048080808F0000000003036010000A9
:10201000C030C828E810E0000718272423140B005C
:102020000000C038E0000000203C230202273820D6
:1020300008F8888888700000203F202020110E00BA
:10204000C0300808080838000718202020100800B1
:1020500008F808080810E000203F202020100F009A
:1020600008F88888E8081000203F20202320180066
:1020700008F88888E8081000203F200003000000CE
:10208000C03008080838000007182020221E02006F
:1020900008F808000008F808203F210101213F202E
:1020A000000808F8080800000020203F2020000059
:1020B00000000808F8080800C08080807F00000049
:1020C00008F888C028180800203F20012638200082
:1020D00008F8080000000000203F202020203000E9
:1020E00008F8F800F8F80800203F003F003F200003
:1020F00008F830C00008F808203F200007183F000B
:10210000E01008080810E0000F10202020100F0039
:1021100008F808080808F000203F2101010100002C
:10212000E01008080810E0000F18242438504F0071
:1021300008F8888888887000203F2000030C302031
:1021400000708808080838000038202121221C006F
:10215000180808F8080818000000203F20000000B8
:1021600008F808000008F808001F202020201F00A1
:102170000878880000C83808000007380E01000001
:10218000F80800F80008F800033C0700073C0300CB
:10219000081868808068180820302C03032C302031
:1021A0000838C800C83808000000203F20000000A0
:1021B00010080808C83808002038262120201800F8
:1021C000000000FE020202000000007F40404000CC
:1021D000000C30C000000000000000010638C00004
:1021E00000020202FE000000004040407F000000AC
:1021F00000000402020204000000000000000000D1
:1022000000000000000000008080808080808080CE
:1022100000020204000000000000000000000000B6
:1022200000008080808000000019242222223F20AC
:1022300008F8008080000000003F112020110E00EF
:102240000000008080800000000E1120202011007E
:10225000000000808088F800000E112020103F2030
:102260000000808080800000001F222222221300B4
:10227000008080F0888888180020203F20200000FF
:102280000000808080808000006B949494936000B4
:1022900008F8008080800000203F210000203F20BF
:1022A00000809898000000000020203F20200000BF
:1022B000000000809898000000C08080807F0000AF
:1022C00008F8000080808000203F24022D3020008C
:1022D000000808F8000000000020203F2020000037
:1022E0008080808080808000203F20003F20003F51
:1022F0008080008080800000203F210000203F205F
:102300000000808080800000001F202020201F000F
:10231000808000808000000080FFA12020110E003E
:102320000000008080808000000E112020A0FF802F
:10233000808080008080800020203F2120000100DC
:102340000000808080808000003324242424190031
:10235000008080E0808000000000001F202000003E
:102360008080000000808000001F202020103F207F
:10237000808080000080808000010E30080601000F
:1023800080800080008080800F300C030C300F00B4
:1023900000808000808080000020312E0E312000DF
:1023A000808080000080808080818E70180601000F
:1023B00000808080808080000021302C222130002D
:1023C00000000000807C020200000000003F40404E
:1023D00000000000FF00000000000000FF000000FF
:1023E0000002027C800000000040403F000000002E
:1023F00000060101020204040000000000000000C9
:10240000008060F8070004242425262424240400E6
:1024100000000000000000000000000000000000BC
:10242000010000FF000000F94949494949F900004D
:10243000000000000000000000000000000000009C
:102440000000F888888888FF88888888F80000005D
:10245000000000000000000000000000000000007C
:1024600000001F080808087F888888889F80F0007F
:10247000000000000000000000000000000000005C
:102480002030AC6330000202FE0202625AC6000035
:10249000000000000000000000000000000000003C
:1024A000226722121240308F80432C102C43800070
:1024B000000000000000000000000000000000001C
:1024C0000000FE82929292FE92929282FE000000A2
:1024D00000000000000000000000000000000000FC
:1024E00080601F00001E1212121E40807F0000003C
:1024F00000000000000000000000000000000000DC
:10250000080888A4ECAAAAF9AAAAECA488080800DA
:1025100000000000000000000000000000000000BB
:1025200088D496FD96D4880088D496FD96D48800E9
:10253000000000000000000000000000000000009B
:10254000424AD26A46C000F2121AD61212F20200B1
:10255000000000000000000000000000000000007B
:1025600040807F000100804F20180710204F80001E
:10257000000000000000000000000000000000005B
:10258000080889EE98007E42C24242C2427E0000A4
:10259000000000000000000000000000000000003B
:1025A000020100FF804320180700003F40407800F0
:1025B000000000000000000000000000000000001B
:1025C0000010101010D030FF30D01010101000008C
:1025D00000000000000000000000000000000000FB
:1025E00010080402090808FF08080902040810007E
:1025F00000000000000000000000000000000000DB
:1026000000020C80608040300FC8080828180000C5
:1026100000000000000000000000000000000000BA
:1026200002027E018040201806010618204080002A
:10263000000000000000000000000000000000009A
:10264000807000FF2010003E2A2A2A2A2A3E00001D
:10265000000000000000000000000000000000007A
:1026600080601807083008090909FF0909090800EE
:10267000000000000000000000000000000000005A
:10268000101010FF1050445465C644645444400078
:10269000000000000000000000000000000000003A
:1026A0000444827F0182824A562322524E820200D3
:1026B000000000000000000000000000000000001A
:1026C00020202020202020FF20202020202020004B
:1026D00000000000000000000000000000000000FA
:1026E00080804020100C0300030C102040808000EC
:1026F00000000000000000000000000000000000DA
:102700008886A2AAAAFEAAABAAFEAAAAA28A8600C4
:1027100000000000000000000000000000000000B9
:1027200008080482BF42221E2242BF020408080099
:102730000000000000000000000000000000000099
:1027400000FE0282BAAAAAAAAAAABA8202FE0000BF
:102750000000000000000000000000000000000079
:1027600000FF404F605048464850604F40FF000017
:102770000000000000000000000000000000000059
:102780001060028C0024242FE42424E42F2424004D
:102790000000000000000000000000000000000039
:1027A00004047E0100FF11090719090749917F0000
:1027B0000000000000000000000000000000000019
:1027C0000000F8888888880808FF08090AC80800F7
:1027D00000000000000000000000000000000000F9
:1027E00080601F0010201F80402116182641F8002D
:1027F00000000000000000000000000000000000D9
:10280000080808F80808081010FF101010F0000061
:1028100000000000000000000000000000000000B8
:102820001030101F088848300E014080403F0000E3
:102830000000000000000000000000000000000098
:10284000008040F8064220180EF088888888000032
:102850000000000000000000000000000000000078
:102860000000003F00000000003F040404040000DA
:102870000000000000000000000000000000000058
:10288000000000007E22222222223C620000000082
:102890000000000000000000000000000000000038
:1028A00000003F1111113F00003F1111113F0000C6
:1028B0000000000000000000000000000000000018
:1028C000000040201028660A8848281808000000E8
:1028D00000000000000000000000000000000000F8
:1028E00000000404023F2121222222221E20000097
:1028F00000000000000000000000000000000000D8
:10290000002024E4FCA26020988EE828081008002B
:1029100000000000000000000000000000000000B7
:10292000000403003F00090601203F0001020C00E3
:102930000000000000000000000000000000000097
:102940000000000000000000000000000000000087
:102950000000000000000000000000000000000077
:1029600000001B1B00000000000000000000000031
:102970000000000000000000000000000000000057
:102980000080E8483C4A4848DE48285E48CC480079
:102990000000000000000000000000000000000037
:1029A000000000001F0101013F1111110F00000084
:1029B0000000000000000000000000000000000017
:1029C00000403C48FE484848F2121AD41212F20065
:1029D00000000000000000000000000000000000F7
:1029E00000042311170806212710080708103300D8
:1029F00000000000000000000000000000000000D7
:102A0000000044EC0098E88AFC88F88EE89888007A
:102A100000000000000000000000000000000000B6
:102A20000000003F0804003E2A2A2A2A3E00000037
:102A30000000000000000000000000000000000096
:102A4000000000007C52D25252D2527E00000000A0
:102A50000000000000000000000000000000000076
:102A60000000121614101F10101F1814121100006D
:102A70000000000000000000000000000000000056
:102A80000000404444444444C444444442202000A0
:102A90000000000000000000000000000000000036
:102AA00000100804030020301F000102060C000083
:102AB0000000000000000000000000000000000016
:102AC0000000F0080E08F840209C161010F00000DE
:102AD00000000000000000000000000000000000F6
:102AE00000003F1111113F0000000320201F0000D3
:102AF00000000000000000000000000000000000D6
:102B0000004040484458744644645844444040009F
:102B100000000000000000000000000000000000B5
:102B2000000000003F1515151515153F00000000A9
:102B30000000000000000000000000000000000095
:102B400000403C48FE484848F2121AD41212F200E3
:102B50000000000000000000000000000000000075
:102B60000004231117080621271008070810330056
:102B70000000000000000000000000000000000055
:102B8000000010F25450D04850FC1210F010000019
:102B90000000000000000000000000000000000035
:102BA00000201C0310303F2010100B0E11302000AD
:102BB0000000000000000000000000000000000015
:102BC00000002020202020FEE220202020100000F5
:102BD00000000000000000000000000000000000F5
:102BE0000000202010080601000304081030000037
:102BF00000000000000000000000000000000000D5
:102C00000000405C5252FE60609C72525E400000C8
:102C100000000000000000000000000000000000B4
:102C20000004023E13133E00001C13133E02020078
:102C30000000000000000000000000000000000094
:102C40004042CC0000445454547F545454444000F7
:102C50000000000000000000000000000000000074
:102C600000007F201000FF15151555957F0000000E
:102C70000000000000000000000000000000000054
:102C8000101010FF9020988888E98E8888A89800F6
:102C90000000000000000000000000000000000034
:102CA0000242817F000080844B281028478000006A
:102CB0000000000000000000000000000000000014
:102CC000020202020202FE0202428202020202002A
:102CD00000000000000000000000000000000000F4
:102CE000000000000000FF000000000106000000DE
:102CF00000000000000000000000000000000000D4
:102D000000000000000038340200383402000000E7
:102D100000000000000000000000000000000000B3
:102D200000000000000000000000000000000000A3
:102D30000000000000000000000000000000000093
:102D400080828282FE8282828282FE8282828000F1
:102D50000000000000000000000000000000000073
:102D6000008040300F0000000000FF000000000065
:102D70000000000000000000000000000000000053
:102D80001010F01F10F00040E05847405060C000A5
:102D90000000000000000000000000000000000033
:102DA0004022150816210000FE42424242FE000069
:102DB0000000000000000000000000000000000013
:102DC000000020160E0020160E000000000000007B
:102DD00000000000000000000000000000000000F3
:102DE00000000000000000000000000000000000E3
:102DF00000000000000000000000000000000000D3
:102E00004030EF242480E49C105454FF547C100084
:102E100000000000000000000000000000000000B2
:102E200001017F21512618274445455F454544004F
:102E30000000000000000000000000000000000092
:102E4000602E000800000020340000006C01000823
:102E5000942E0008340000202C0B0000880100088C
:102E600000A24A0400000000000000000102030468
:102E70000607080900000000000000000000000034
:102E8000000001020304010203040607080902040A
:042E90000608000030
:0400000508000131BD
:00000001FF
