:020000040800F2
:1000000098DC0120CD470008290300082B030008D5
:100010002F03000833030008370300080000000026
:100020000000000000000000000000003B0300088A
:100030003D030008000000003F03000841030008E2
:10004000E7470008E7470008E7470008E7470008D8
:10005000E7470008E7470008E7470008E7470008C8
:10006000E7470008E7470008E7470008E7470008B8
:10007000E7470008E7470008E7470008E7470008A8
:10008000E7470008E7470008E7470008E747000898
:10009000E7470008E7470008E7470008E747000888
:1000A000E7470008E7470008E7470008E747000878
:1000B000E7470008E7470008E7470008E747000868
:1000C000E7470008E7470008E7470008E747000858
:1000D000E7470008E13B0008E7470008E74700085A
:1000E000E7470008E7470008E7470008E747000838
:1000F000E7470008E7470008E7470008E747000828
:10010000E7470008E7470008E7470008E747000817
:10011000E7470008E7470008E7470008E747000807
:10012000E7470008C1410008E7470008E747000823
:10013000E7470008E7470008E7470008E7470008E7
:10014000E7470008E7470008E7470008E7470008D7
:10015000E7470008E7470008E7470008E7470008C7
:10016000E7470008E7470008E7470008E7470008B7
:10017000E7470008E7470008A33C0008E7470008F6
:10018000E7470008E747000800F002F800F041F8F0
:100190000AA090E8000C82448344AAF10107DA45E2
:1001A00001D100F036F8AFF2090EBAE80F0013F0F3
:1001B000010F18BFFB1A43F00103184730980000E5
:1001C00050980000103A24BF78C878C1FAD8520776
:1001D00024BF30C830C144BF04680C6070470000C1
:1001E0000023002400250026103A28BF78C1FBD840
:1001F000520728BF30C148BF0B607047782907F00D
:10020000A582002070471FB507F05BFF1FBD10B52A
:1002100010BD07F0EDFB1146FFF7F5FF00F008F801
:1002200007F00BFC03B4FFF7F2FF03BC03F038FC4C
:100230001FB50121042005F061F910200290012072
:100240008DF80C0000208DF80E0001208DF80F00B5
:1002500003208DF80D0002A9274804F0CDFB4FF4D0
:10026000A06004F0D3FA02F073FEA82003F096FB1E
:100270004FF4E13003F021FC00F06CF900F0C1FD17
:1002800001F094FB03F0E6F902F0E3FD0DE01BA0A2
:1002900010210B46C822CDE900100021084601F0CC
:1002A00046FB4FF4C87003F0DBFB03F0BBF80028FB
:1002B000EDD117A01021202340F23F12CDE900100C
:1002C0000021084601F033FB4FF47A7003F0C8FBBD
:1002D00003F0FEFF4FF48042A021114803F0B2FF6B
:1002E00003F0C6FC4FF478400E49088040F2DC5021
:1002F00003F0B6FB00BFFEE7000802404F56373759
:1003000032355F496E69745265747279000000007D
:100310004F56373732355F496E69744F4B000000D6
:10032000A811002014000020704700BFFEE700BFA6
:10033000FEE700BFFEE700BFFEE77047704770476B
:10034000704700000CB500200190009076480068CE
:1003500040F480307449086000BF7348006800F4BE
:10036000003000900198401C0190009818B9019845
:10037000B0F5A04FF1D16C48006800F4003010B126
:100380000120009001E0002000900098012846D153
:1003900065484030006840F0805063494031086053
:1003A0006248006840F44040604908605E48083098
:1003B00000685D49083108600846006840F4004064
:1003C00008600846006840F4A05008605848091FBB
:1003D0000860081F006840F08070091F086000BFB7
:1003E0005148006800F000700028F9D040F2057014
:1003F000504908604C480830006820F003004A4922
:10040000083108600846006840F00200086000BF3C
:1004100045480830006800F00C000828F8D10CBDF1
:1004200010B54548006840F47000434908603E48F4
:10043000006840F001003C49086000203A4908315A
:100440000860394800683D490840374908603C4821
:10045000091D0860081F006820F48020091F08603B
:10046000002031490C310860FFF76CFF4FF000604D
:1004700031498039086010BD70B500200022022388
:1004800000240221284D08352D6805F00C0020B10C
:10049000042806D0082834D107E02A4D2A4E3560BA
:1004A00033E02A4D284E35602FE01F4D2D1D2D685D
:1004B000C5F380541C4D2D1D2D6805F03F0154B12E
:1004C000224DB5FBF1F5184E361D3668C6F3881679
:1004D00005FB06F209E01B4DB5FBF1F5124E361D8A
:1004E0003668C6F3881605FB06F20F4D2D1D2D68E4
:1004F000C5F301456D1C6B00B2FBF3F5124E356080
:1005000003E0104D104E356000BF00BF064D0835AA
:100510002D68C5F303150E4E705D0B4D2D68C5405B
:10052000094E356070BD0000003802400070004088
:1005300008544007003C024088ED00E0FFFFF6FE53
:10054000103000240024F4000000002000127A0083
:10055000040000201CB50121202004F0CFFF4FF43F
:10056000C060009001208DF8040000208DF8060086
:1005700003208DF8050001208DF807006946044826
:1005800004F03AFA4FF4C061014804F0B1FA1CBD1E
:100590000014024001B5BDF800000090BDF8000055
:1005A000F749088008BD01B5BDF800000090BDF80E
:1005B0000000F349891C088008BD08B5F048801C7C
:1005C00000880090BDF8000008BD03B5BDF800002C
:1005D000EB490880BDF804004FF0D841A1F8800035
:1005E0000CBD01B5BDF80000FFF7D4FF052003F0F6
:1005F000EFF9FFF7E2FF08BDE2480089E049088013
:100600007047DF49891C0880704730B5014601F00A
:100610001F04C1F34513CA0AE50205EB431515444F
:10062000A8B230BD00BF0100A0F10102D0B2FAD1E2
:10063000704730B504460D46D248808849F24131B2
:10064000884205D0CF48808845F21031884214D1C5
:10065000CC494889FFF79EFF2012FFF7A4FFE0B2C4
:10066000FFF7A1FFC7498889FFF794FF2812FFF71A
:100670009AFFE8B2FFF797FF5DE0C248808846F630
:10068000040188421DD1BF488079012804D1BD48AA
:100690000088401E001B84B2BA494889FFF77AFFE0
:1006A0002012FFF780FFE0B2FFF77DFFB549888990
:1006B000FFF770FF2812FFF776FFE8B2FFF773FF2E
:1006C00039E0B048808845F21051884220D1AD49C8
:1006D0004889FFF75FFF2012FFF765FFA9494989A5
:1006E000491C88B2FFF756FFE0B2FFF75CFFA5494F
:1006F0008889FFF74FFF2812FFF755FFA149898925
:10070000491C88B2FFF746FFE8B2FFF74CFF12E042
:100710009C488079012804D19A480088401E001B1B
:1007200084B2984948892146FFF74FFF9549888947
:100730002946FFF74AFF30BD3EB504460D4600206E
:100740000290019000908F480088A04203DD8D4800
:100750004088A84201DC00203EBD29462046FFF724
:1007600068FF8848808849F2413188420BD085482B
:10077000808846F60401884205D08248808845F288
:100780001031884203D12E20FFF704FF0DE07D4891
:10079000808845F21051884204D14FF43850FFF759
:1007A000F9FE02E02220FFF7F5FE7648808849F244
:1007B0002031884202D10220FFF734FFFFF7FDFE0F
:1007C0000220FFF72FFFFFF7F8FE02906D488088A8
:1007D00049F2413188420BD06A48808845F2103195
:1007E000884205D06748808845F21051884210D170
:1007F0000220FFF717FFFFF7E0FE0090BDF80800AA
:10080000C0B20190BDF804004FF6FF7101EA00206C
:1008100001905C48808849F22531884216D05948B9
:10082000808844F23551884210D056488088091F8C
:1008300088420BD0534880884BF20551884205D03E
:10084000504880884CF20551884202D1BDF808001A
:1008500082E74C48808849F2413188420BD04948B0
:10086000808845F21031884205D04648808845F29C
:10087000105188420DD1BDF80800C012C002BDF869
:100880000410891240EA4110BDF8001040EAE1204E
:1008900062E7BDF80800FFF7B8FE5DE700B539482C
:1008A000808849F2413188420BD03648808846F62C
:1008B0000401884205D03348808845F210318842CF
:1008C00003D12920FFF766FE0FE02E48808845F20D
:1008D0001051884204D14FF42450FFF75BFE04E02E
:1008E00040F273110720FFF770FE00BD00B52548E8
:1008F000808849F2413188420BD02248808846F6F0
:100900000401884205D01F48808845F21031884292
:1009100003D12820FFF73EFE0EE01A48808845F2FA
:100920001051884204D14FF42050FFF733FE03E00A
:1009300000210720FFF749FE00BD2DE9F0430546E1
:100940000024A1460F488079012822D10D488088D3
:1009500046F6040188421CD0082D19D2DFE805F0C4
:100960000406080A0C0E1416062511E007250FE0F0
:1009700004250DE005250BE0012509E0002507E031
:100980007E00006CD0000020032501E0022500BF9E
:1009900000BFFE48808849F24131884211D0FB48AF
:1009A000808846F6040188420BD0F848808845F2DA
:1009B0001031884205D0F548808845F210518842B0
:1009C00078D1082D1CD2DFE805F00406090C0F12BF
:1009D000151800BF14E044F0800411E044F0400416
:1009E0000EE044F0C0040BE044F0200408E044F0C2
:1009F000600405E044F0A00402E044F0E00400BF1D
:100A000000BFE248808845F21051884202D14FF47D
:100A1000585901E04FF03609DC48808845F2103122
:100A2000884207D0D948808845F21051884201D0C9
:100A300044F00804D548808846F60401884201D174
:100A400044F0020421464846FFF7BFFD04F02000B1
:100A500018B9CE48807901280FD1CC480088CB49FD
:100A60004988884218DAC948B0F800804088C749E8
:100A700008800846A0F802800EE0C4480088C349F8
:100A80004988884208DDC148B0F800804088BF49E5
:100A900008800846A0F80280BC48807901280AD165
:100AA000BA48808846F60401884204D0B748468890
:100AB000078803E07AE0B54806884788B34880880D
:100AC00045F2105188424AD1B0494889FFF762FD8A
:100AD0000020FFF768FDAD494989491C88B2FFF73E
:100AE00059FD0020FFF75FFDA8494989891C88B29C
:100AF000FFF750FD711EC1F30F20FFF754FDA3490E
:100B00004989C91C88B2FFF745FD711EC8B2FFF7BD
:100B10004AFD9E498889FFF73DFD0020FFF743FD10
:100B20009A498989491C88B2FFF734FD0020FFF7F4
:100B30003AFD96498989891C88B2FFF72BFD791EF9
:100B4000C1F30F20FFF72FFD90498989C91C88B296
:100B5000FFF720FD791EC8B2FFF725FD5AE08B494B
:100B60004889FFF717FD0020FFF71DFD0020FFF764
:100B70001AFD711EC1F30F20FFF715FD711EC8B2DB
:100B8000FFF711FD81498889FFF704FD0020FFF779
:100B90000AFD0020FFF707FD791EC1F30F20FFF7C4
:100BA00002FD791EC8B2FFF7FEFC33E0082D1CD20F
:100BB000DFE805F004070A0D0F12151844F03004A1
:100BC00013E044F0100410E044F020040DE000BFF6
:100BD0000BE044F0380408E044F0280405E044F059
:100BE000180402E044F0080400BF00BF6748808892
:100BF00048F68911884205D14FF0110946F24000AC
:100C0000044303E04FF0030944F48054214648466E
:100C1000FFF7DBFCBDE8F08330B504460D462946FE
:100C20002046FFF706FDFFF7E7FC594800885949C1
:100C3000088030BD30B504460D465448808849F2DE
:100C40004131884205D05148808845F210318842B0
:100C500013D14E494889FFF79DFC2012FFF7A3FCF2
:100C6000E0B2FFF7A0FC49498889FFF793FC2812FE
:100C7000FFF799FCE8B2FFF796FC44480089454924
:100C8000891E08804FF0D840A0F8802030BD10B5F4
:100C900004460CBB00203D498871F02008804FF4C9
:100CA000A07048800846808849F2413188420BD0C4
:100CB0003648808846F60401884205D0334880884B
:100CC00045F21031884222D12C20304908812A2057
:100CD00048812B2088811AE001202C4988714FF42B
:100CE000A0700880F02048800846808849F2413191
:100CF000884205D02548808845F21031884206D1C7
:100D00002C20224908812A2048812B20888100201C
:100D1000FFF713FE10BD70B504460D461E46A01821
:100D2000401E82B2A819401E86B21848808849F237
:100D3000413188420BD01548808845F210318842F5
:100D400005D01248808846F60401884226D10F4912
:100D50004889FFF71FFC2012FFF725FCE0B2FFF7E0
:100D600022FC1012FFF71FFCD0B2FFF71CFC074952
:100D70008889FFF70FFC2812FFF715FCE8B2FFF790
:100D800012FC3012FFF70FFCF0B205E0D00000209B
:100D9000140000208000006CFFF705FC70BD70B5EA
:100DA00004460026FE48058840884543FC48808864
:100DB00046F60401884216D1F9488079012812D1FB
:100DC0000020F74988712A2048812B208881002142
:100DD0000846FFF72EFC0120F14988712B2048813D
:100DE0002A20888103E000210846FFF722FCFFF754
:100DF00003FC002602E0EB480480761CAE42FAD3E6
:100E000070BD00B5A1B00020209001217A2004F02F
:100E100075FB0121084604F0A9FB4FF400401E9029
:100E200001208DF87C0000208DF87E0002208DF8D6
:100E30007D0001208DF87F001EA9DB4803F0DCFD5A
:100E40004CF233701E9002208DF87C0000208DF84B
:100E50007E0003208DF87D0001208DF87F001EA903
:100E6000D24803F0C9FD4FF680701E9002208DF825
:100E70007C0000208DF87E0003208DF87D0001208D
:100E80008DF87F001EA9CA4803F0B6FD4FF48050CC
:100E90001E9002208DF87C0000208DF87E0003203B
:100EA0008DF87D0001208DF87F001EA9C14803F058
:100EB000A3FD4FF480501E9002208DF87C0000208E
:100EC0008DF87E0003208DF87D0001208DF87F00D5
:100ED0001EA9B94803F090FD0C220021B34803F08D
:100EE00016FE0C220121B14803F011FE0C22042150
:100EF000AE4803F00CFE0C220521AC4803F007FEBF
:100F00000C220821A94803F002FE0C220921A7485F
:100F100003F0FDFD0C220A21A44803F0F8FD0C2289
:100F20000E21A24803F0F3FD0C220F219F4803F08D
:100F3000EEFD0C2207219E4803F0E9FD0C2208215A
:100F40009B4803F0E4FD0C220921994803F0DFFDE2
:100F50000C220A21964803F0DAFD0C220B2194485A
:100F600003F0D5FD0C221146914803F0D0FD0C2270
:100F70000D218F4803F0CBFD0C220E218C4803F08D
:100F8000C6FD0C220F218A4803F0C1FD0C22114638
:100F9000884803F0BCFD0C221146874803F0B7FDDA
:100FA0000F2008900020099018200A9000200B9034
:100FB0000C900D900E9008200190002002900820C7
:100FC00003900020049005900690079006200F9053
:100FD0000020109011901020129000201390159076
:100FE0001490169017904FF480501890002019908C
:100FF0004FF480401A9000201B9008A81C9001A874
:101000001D900FA803F0D7FD0121062003F05EFE1E
:10101000322002F025FD01210020FFF7D6FA322010
:1010200002F01EFD0020FFF7DCFA5D4988800846CB
:101030008088FF280ADB084680884FF6FF718842C7
:1010400004D057488088B0F5134F7CD1D320FFF7E8
:10105000A1FAFFF7B2FA52498880FFF7AEFA504979
:101060008880FFF7AAFA4E498880084680884FF6A4
:10107000FF7101EA00204A498880FFF79EFA48493B
:1010800089880843464988800846808849F241316A
:10109000884278D0BF20FFF77DFAFFF78EFA4049EB
:1010A0008880FFF78AFA3E498880FFF786FA3C4934
:1010B0008880FFF782FA3A498880084680884FF690
:1010C000FF7101EA002036498880FFF776FA34493B
:1010D00089880843324988800846808846F604019A
:1010E000884250D0D420FFF755FAFFF766FA2C4912
:1010F0008880FFF762FA2A498880FFF75EFA28495C
:101100008880084680884FF6FF7101EA0020244954
:101110008880FFF752FA224989880843204988804D
:101120000846808845F2103188422CD04FF45A404E
:10113000FFF730FAFFF741FA194988804FF45B4016
:10114000FFF728FA00E01EE0FFF737FA144988801D
:10115000084680884FF6FF7101EA00201049888018
:101160004FF45C40FFF716FAFFF727FA0C4989881D
:1011700008430B49888008468088B0F5004F02D1AB
:1011800045F2105088800648808849F241318842F3
:101190001AD00348808845F21031884214D00DE0FF
:1011A000D00000208000006C00040240000C0240CF
:1011B000001002400014024000180240FE488088DF
:1011C00045F2105188421CD1FC48006820F00F0005
:1011D0004FF02041C1F81C010846D0F81C0120F452
:1011E0007060C1F81C010846D0F81C0140F00300F3
:1011F000C1F81C010846D0F81C0140F40070C1F889
:101200001C01ED488188EEA006F094FAEA48808837
:1012100049F2413188427CD1CF20FFF7BBF9002051
:10122000FFF7C1F92098401C2090C120FFF7BBF9BF
:101230003020FFF7B8F9ED20FFF7ACF96420FFF795
:10124000B2F90320FFF7AFF91220FFF7ACF98120C4
:10125000FFF7A9F9E820FFF79DF98520FFF7A3F92B
:101260001020FFF7A0F97A20FFF79DF9CB20FFF7B8
:1012700091F93920FFF797F92C20FFF794F9002016
:10128000FFF791F93420FFF78EF90220FFF78BF971
:10129000F720FFF77FF92020FFF785F9EA20FFF715
:1012A00079F90020FFF77FF90020FFF77CF9C020D3
:1012B000FFF770F91B20FFF776F9C120FFF76AF9F5
:1012C0000120FFF770F9C520FFF764F93020FFF720
:1012D0006AF93020FFF767F9C720FFF75BF9B720FD
:1012E000FFF761F93620FFF755F94820FFF75BF962
:1012F0003A20FFF74FF95520FFF755F9B120FFF7D6
:1013000049F90020FFF74FF91A20FFF74CF9B620F2
:1013100000E09AE0FFF73EF90A20FFF744F9A22027
:10132000FFF741F9F220FFF735F90020FFF73BF90D
:101330002620FFF72FF90120FFF735F9E020FFF70E
:1013400029F90F20FFF72FF92A20FFF72CF9282081
:10135000FFF729F90820FFF726F90E20FFF723F9F8
:101360000820FFF720F95420FFF71DF9A920FFF707
:101370001AF94320FFF717F90A20FFF714F90F2095
:10138000FFF711F90020FFF70EF90020FFF70BF926
:101390000020FFF708F90020FFF705F9E120FFF72B
:1013A000F9F80020FFF7FFF81520FFF7FCF81720E9
:1013B000FFF7F9F80720FFF7F6F81120FFF7F3F829
:1013C0000620FFF7F0F82B20FFF7EDF85620FFF787
:1013D000EAF83C20FFF7E7F80520FFF7E4F81020D3
:1013E000FFF7E1F80F20FFF7DEF83F20FFF7DBF80B
:1013F0003F20FFF7D8F80F20FFF7D5F82B20FFF795
:10140000C9F80020FFF7CFF80020FFF7CCF8012043
:10141000FFF7C9F83F20FFF7C6F82A20FFF7BAF810
:101420000020FFF7C0F80020FFF7BDF80020FFF70D
:10143000BAF8EF20FFF7B7F81120FFF7ABF87820E4
:1014400002F00EFB2920FFF7A5F80020FFF71FFC94
:1014500001205F4908604FF6FF70FFF7A0FC21B044
:1014600000BD2DE9F04F05460E4617469846DDF8BB
:1014700024A04FF0000B781B401C1FFA80FB344661
:1014800014E021462846FFF7D4F8FFF7B5F84FF0EF
:10149000000907E04FF0D840A0F880A009F1010052
:1014A0001FFA80F9D945F5DB601C84B24445E8DDBC
:1014B000BDE8F08F2DE9F84F07460D469046994656
:1014C000DDF828B0A8EB0700401C1FFA80FAA9EB52
:1014D0000500401C80B20090002414E0281981B25D
:1014E0003846FFF7A6F8FFF787F8002607E004FB69
:1014F0000A603BF8100037490880701C86B25645D8
:10150000F5DB601C84B200988442E7DBBDE8F88F0D
:101510002DE9FF4F84B081468A4600200390029057
:101520000698A0EB09050798A0EB0A06CDF80490F1
:10153000CDF800A0002D01DD012705E00DB9002741
:1015400002E04FF0FF376D42002E02DD4FF0010840
:1015500006E016B94FF0000802E04FF0FF3876427F
:10156000B54201DD2C4600E034464FF0000B21E08F
:10157000009A91B2019A90B2FFF74EFB039828446B
:1015800003900298304402900398A04205DD03982E
:10159000001B03900198384401900298A04205DD99
:1015A0000298001B02900098404400900BF101004B
:1015B0001FFA80FB601C0FE0D00000201C0100A07F
:1015C000204C43442049443A25780D0A000000008D
:1015D000BC8240428000006C8345C9DD08B0BDE894
:1015E000F08FF0B504460D4616461F462B46324690
:1015F00029462046FFF78CFF3B46224629462046D7
:10160000FFF786FF3B46324639462046FFF780FF0C
:101610003B46324629463046FFF77AFFF0BD2DE9BA
:10162000F04306460F469046002445460320A0EBB3
:1016300048093CE07A1B91B2321990B2FFF7ECFAFC
:101640003A1B91B2721990B2FFF7E6FA3A1991B2C9
:10165000721990B2FFF7E0FA7A1991B2321990B28A
:10166000FFF7DAFA7A1991B2321B90B2FFF7D4FA87
:101670003A1991B2721B90B2FFF7CEFA7A1B91B26F
:10168000321B90B2FFF7C8FA3A1B91B2721B90B2AC
:10169000FFF7C2FA641CB9F1000F03DAA000801D45
:1016A000814404E0601B80000A3081446D1EAC421E
:1016B000C0DDBDE8F0832DE9F84F80460E461746A1
:1016C0001C46B3462046E31704EB5373DB10214658
:1016D0004FEAE47C04EB5C7C4FEAEC0CA4EBCC0C12
:1016E000BCF1000F02D04FF0010C01E04FF0000CF4
:1016F0006344224604EBD27C4FEA6C0C03FB0CF3F0
:10170000DBB20093A7F12000C7B2002556E00C2CF5
:1017100007D107EB47009F4901EB800010F80590C7
:1017200013E0102C05D19C4800EB071010F8059031
:101730000BE0182C07D107EBC700984901EB80009C
:1017400010F8059001E0BDE8F88F4FF0000A2FE097
:1017500009F0800030B19248028831464046FFF7D8
:1017600069FA07E00A9828B98E480288314640464F
:10177000FFF760FA4FEA49604FEA1069701C86B2C1
:1017800089484088B04200DCDDE7A6EB0B00A042B0
:101790000AD15E4608F101001FFA80F882480088ED
:1017A000404500DCCFE706E00AF1010000F0FF0A47
:1017B000BAF1080FCCDB00BF681CC5B200988542A7
:1017C000A5DB00BFBFE710B50246012000E0504393
:1017D0000B00A1F10104E1B2F9D110BD2DE9FF4FD9
:1017E00081B0074691461E460E9D4FF0000A002428
:1017F00039E0301B401EC1B20A20FFF7E4FFB9FBFD
:10180000F0F00A21B0FBF1F201FB1208BAF1000F6F
:1018100016D1701EA04213DDB8F1000F0ED10020CA
:10182000AB4605EBDB71491001FB0471009088B2F7
:101830002B4620220299FFF73EFF12E04FF0010AEB
:101840000020AB4605EBDB71491001FB04710090F1
:1018500088B208F13001CAB22B460299FFF72BFF7C
:1018600000BF601CC4B2B442C3DB05B0BDE8F08F5A
:101870002DE9FF4F82B0064692461F46DDE90F482C
:101880000020019000254DE0781B401EC1B20A20C7
:10189000FFF799FFBAFBF0F00A21B0FBF1F201FB70
:1018A0001209019850BB781EA84227DDB9F1000F3C
:1018B00022D108F0800078B108F00100A34604EBC3
:1018C000DB71491001FB0561009088B2234630228C
:1018D0000399FFF7F0FE0EE008F00100A34604EBC9
:1018E000DB71491001FB0561009088B2234620227C
:1018F0000399FFF7E0FE13E00120019008F00100DA
:10190000A34604EBDB71491001FB0561009088B22E
:1019100009F13001CAB223460399FFF7CCFE00BF9C
:10192000681CC5B2BD42AFDB06B0BDE8F08F2DE943
:10193000F84704460D4690469946DDE9096704F0EC
:10194000FF0A08EB04001FFA80F809EB05001FFAF4
:1019500080F916E0444502DB5446A81985B24D458E
:1019600000DB14E0002000903A78334629462046F8
:10197000FFF7A1FE304606EBD07104EB61018CB29B
:101980007F1C38787E2802DC38782028E2DA00BF15
:10199000BDE8F887CC80000840850008308B00083F
:1019A0001400002016000020D00000201CB50121EA
:1019B000112003F0A3FD1C20009000208DF80400EE
:1019C00003208DF8050001208DF807006946354891
:1019D00003F012F80120009002208DF807006946FC
:1019E000314803F009F81CBD10B5044614B10120BC
:1019F0002E4908702D480078002837D0102129483A
:101A000003F05CF878B10821264803F057F850B18C
:101A10000421244803F052F828B10121224803F0A0
:101A20004DF8012822D10A2002F01AF800201F499F
:101A3000087010211B4803F041F808B9012010BDBF
:101A40000821184803F03AF808B90220F7E7042102
:101A5000144803F033F808B90320F0E701211248D5
:101A600003F02CF801281BD10420E8E710210D48D1
:101A700003F024F8012813D108210A4803F01EF8C6
:101A800001280DD10421074803F018F8012807D1D7
:101A90000121054803F012F810B90120034908702C
:101AA0000020CCE700100240000002401800002097
:101AB0001CB50121022003F021FD4FF4407000907D
:101AC00001208DF8040000208DF8060003208DF819
:101AD000050001208DF8070069468A4802F08CFF56
:101AE0000120894908608949C1F8A4021CBD10B5CC
:101AF0008448006820F44020824908600846006855
:101B000040F48020086001207F49091D08607F495A
:101B1000C1F8A002042001F05BFF00207A49091DF2
:101B20000860042001F054FF00207849C1F8A002A9
:101B300010BD10B57348006820F44020714908605A
:101B40000846006840F48020086000206E49086064
:101B50006E49C1F8A402042001F03AFF01206A494D
:101B600008606A49C1F8A402042001F031FF10BDE9
:101B700010B500246348006820F4402061490860E3
:101B800008460068086001205F49091D086001F0EF
:101B90001FFF01205D49C1F8A00201F019FF0AE012
:101BA000601CC4B2012001F013FFFA2C03DDFFF723
:101BB000C0FF012010BD54487C3800680028EFD1D8
:101BC0005149086000BFF5E710B500204E49086094
:101BD0004C48006820F440204A49086008460068E4
:101BE00040F48020086000204849C1F8A402022087
:101BF00001F0EEFE012044490860022001F0E8FEF9
:101C000000204249C1F8A00210BD10B500203E4995
:101C100008603C48006820F440203A4908600846C3
:101C2000006840F48020086001203849C1F8A4020F
:101C3000022001F0CDFE012033490860022001F0AE
:101C4000C7FE00203149C1F8A00210BD70B504469E
:101C50002C48006820F440202A49086008460068A3
:101C600040F480200860002027490860002517E024
:101C7000E0092549091D08606006040E022001F0F4
:101C8000A7FE01202149C1F8A002022001F0A0FE18
:101C900000201D490860022001F09AFE681CC5B2B0
:101CA000082DE5DB70BD70B50546002415480068B9
:101CB00020F44020134908600846006808600026A8
:101CC00016E0002010490860022001F081FE01208A
:101CD0000E49C1F8A0026006040E0B487C3800686B
:101CE00008B1601CC4B2012001F072FE701CC6B2C3
:101CF000082EE6DB15B9FFF788FF01E0FFF764FF68
:101D0000204670BD00040240A08240420080404254
:101D100010B5FFF7CDFE10BD70B504460026FFF7E5
:101D2000E6FE2546E11704EB11610912A02202EB41
:101D30004101C8B2FFF78AFFFFF71AFF0646E11715
:101D400004EB11610912A4EB0121C8B2FFF77EFF79
:101D5000FFF70EFF0646FFF7CAFEA120FFF776FF4A
:101D6000FFF706FF06460020FFF79DFF0646FFF738
:101D7000E0FE304670BD70B504460E46FFF7B7FE74
:101D80002546E11704EB11610912A02202EB410183
:101D9000C8B2FFF75BFFFFF7EBFEE11704EB116141
:101DA0000912A4EB0121C8B2FFF750FFFFF7E0FED4
:101DB0003046FFF74BFFFFF7DBFEFFF7BAFE0A20C6
:101DC00001F04EFE70BD2DE9F04105460E46174666
:101DD000002409E0E20026FA02F2D1B22A1990B2F8
:101DE000FFF7C9FF601CC4B2BC42F3DBBDE8F08161
:101DF0002DE9F04107460C460026002509E0360291
:101E00003919491B491E88B2FFF786FF0644681C32
:101E1000C5B2A542F3DB3046BDE8F08110B5FF2026
:101E2000FFF77AFF0446552C01D1002010BD552143
:101E3000FF20FFF7A0FFFF20FFF76EFF0446552CA1
:101E400001D10020F2E70120F0E770B506460C460C
:101E5000154608E03046721C96B2FFF75DFF04F8A5
:101E6000010B681E85B2002DF4D170BD70B505461A
:101E70000C46164606E021782846FFF77CFF681CD2
:101E800085B2641C3000A6F101018EB2F3D170BDA1
:101E900070B50446002500BF17E004F0800018B1BB
:101EA0000120FA49086002E00020F8490860600655
:101EB000040E0020F6490860012001F089FD012090
:101EC000F449C1F88002681CC5B2082DE5DB70BD7D
:101ED00070B50646002500240020ED490860EE4953
:101EE000C1F8AC02ED4908603046FFF7D1FF06208B
:101EF00001F06EFD0020E749C1F88002012001F0E9
:101F000067FD0120E249086001F062FD0020E1491F
:101F1000C1F8800200BF15E04FF6FF7000EA4404EC
:101F20000020DB490860012001F052FD0120D94961
:101F3000C1F88002D6487838006808B1601C84B2C5
:101F4000681CC5B2102DE7DB24110120D3490860BD
:101F5000204670BD2DE9FE4380460027002406E0A0
:101F60004046FFF7B5FF2DF81400601C84B2052C25
:101F7000F6DB002416E0601C85B20FE03DF814008B
:101F80003DF81510884207DD3DF814603DF8150056
:101F90002DF814002DF81560681C85B2052DEDDBB9
:101FA000601C84B2042CE6DB0027012405E03DF828
:101FB0001400384487B2601C84B2042CF7DB032081
:101FC00097FBF0F086B23046BDE8FE832DE9F04184
:101FD00004460D46B2480078FFF7BCFF0646B148FC
:101FE0000078FFF7B7FF074626802F800120BDE865
:101FF000F0817FB504460D4602A903A8FFF7E6FF6E
:10200000064616B9002004B070BD694601A8FFF766
:10201000DDFF06460EB90020F5E7BDF80400BDF867
:102020000C10884206DCBDF80C10BDF804003230FC
:1020300081420CDBBDF80C00BDF80410884261DC65
:10204000BDF80410BDF80C00323081425ADABDF8F8
:102050000000BDF80810884206DCBDF80810BDF885
:102060000000323081420CDBBDF80800BDF80010E2
:10207000884247DCBDF80010BDF8080032308142CC
:1020800040DABDF80C00BDF804100844C8B3BDF830
:102090000C10BDF80420881800EBD071491000EE38
:1020A000101AF8EEC00A804991ED091AB1F92C1006
:1020B00000EE101AB8EEC00A00EE810ABCEEC00AAB
:1020C00010EE101A2180BDF80810BDF80020881805
:1020D00000EBD071491000EE101AF8EEC00A7249F8
:1020E00091ED0A1AB1F92E1000EE101AB8EEC00ADE
:1020F00000EE810ABCEEC00A10EE101A2980012001
:1021000081E7FFE700207EE770B504460D461646DE
:10211000664806800C2C00DA0C24F22C00DDF22438
:102120000C2D00DA0C25B4F5997F01DD4FF496757E
:1021300004F10D018AB2193988B22B462946FFF7FE
:10214000E7F905F10D0083B2193881B22246204625
:10215000FFF7DEF96A1C91B2621C90B2FEF75CFDDB
:102160006A1C91B2621E90B2FEF756FD6A1E91B2D1
:10217000621C90B2FEF750FD6A1E91B2621E90B2D0
:10218000FEF74AFD062229462046FFF748FA70BDB1
:1021900070B504460D46164644480680294620463A
:1021A000FEF73AFD611C88B22946FEF735FD681C32
:1021B00081B22046FEF730FD6A1C91B2621C90B2DB
:1021C000FEF72AFD70BD10B5044631487C38006822
:1021D00000284BD134B134491631A1F10A00FFF780
:1021E00008FF33E030491631A1F10A00FFF701FF83
:1021F00060B32D48B0F92C0000EE100AB8EEC00A0A
:10220000294890ED091A808900EE900AF8EE600ADC
:1022100001EE200ABCEEC00A10EE100A22498881A5
:102220000846B0F92E0000EE100AB8EEC00A0846C3
:1022300090ED0A1AC08A00EE900AF8EE600A01EEEC
:10224000200ABCEEC00A10EE100AC882164890F8A8
:10225000200000F08000C0B9C020134981F82000A0
:10226000084681898182C18AC1832AE00E4890F89C
:10227000200000F08000D8B10B4890F8200020F03A
:102280008000094981F820001BE01AE0AC8242423C
:10229000808240420080404200804242B40241427B
:1022A00050000020510000201C00002014000020DD
:1022B0000021FE488182C1834FF6FF70FB4988816F
:1022C000C882FA4890F8200000F0800010BD10B5D8
:1022D000F64890ED090ADFEDF60A20EE200ABDEE81
:1022E000C00A10EE104A042221462820FFF76BFD99
:1022F000EE4890ED0A0ADFEDEE0A20EE200ABDEE70
:10230000C00A10EE104A042221462C20FFF75BFD84
:10231000E648B0F92C1002223020FFF754FDE348C4
:10232000B0F92E1002223220FFF74DFDDF4890F861
:1023300030103420FFF71FFD0A2421463520FFF717
:102340001AFD10BD10B53520FFF7E6FC04460A2C37
:1023500046D104212820FFF74BFD044600EE104A29
:10236000B8EEC00ADFEDD20A80EE201ACF4880ED29
:10237000091A04212C20FFF73BFD044600EE104A09
:10238000B8EEC00ADFEDCA0A80EE201AC74880ED19
:102390000A1A02213020FFF72BFD00B2C3498885BD
:1023A00002213220FFF724FD00B2C049C885342045
:1023B000FFF7B2FCBD4981F83000084690F83000C4
:1023C00030B19020BB490870D020BB49087005E0AF
:1023D000D020B84908709020B7490870012010BD7E
:1023E0000020FCE72DE9FC5F04460D4617461E461B
:1023F000DDE90EABDDE90C894FF47840AF49088088
:10240000AFA01021CDE90010AE4843880288A0217A
:102410002820FFF78CFAACA01021CDE90010A948C4
:1024200043880288A0217820FFF781FAA7A0102115
:10243000CDE90010A34843880288B4212820FFF783
:1024400076FAA3A01021CDE900109E4843880288A7
:10245000B4217820FFF76BFA9EA01021CDE900107F
:10246000984843880288C8212820FFF760FA9AA07C
:102470001021CDE90010934843880288C8217820B4
:10248000FFF755FA95A01021CDE900108D4843883B
:102490000288DC212820FFF74AFA91A01021CDE91B
:1024A0000010884843880288DC217820FFF73FFA33
:1024B0008CA01021CDE90010824843880288F021C9
:1024C0002820FFF734FA102004232246A021009090
:1024D0004020FFF783F9102004232A46A021009012
:1024E0009020FFF77BF9102004233A46B421009096
:1024F0004020FFF773F9102004233246B4210090E6
:102500009020FFF76BF9102004234246C821009069
:102510004020FFF763F9102004234A46C8210090A9
:102520009020FFF75BF9102004235246DC21009035
:102530004020FFF753F9102004235A46DC21009075
:102540009020FFF74BF9102003230090F02160202A
:10255000109AFFF743F9BDE8FC9F00B597B0002043
:1025600012900B9012901F21544801804FF6FF717A
:102570005E4801800846FEF712FC4FF478414F4850
:1025800001804FF6FF70FEF70AFC00204B490880DF
:102590005748006810216423A022CDE900102821AB
:1025A0000846FFF7C4F94FF4784214210846FFF7B4
:1025B000ABFD00203D4981F820009FED4E0A084602
:1025C00080ED090A56E2394840680A9001200A99CC
:1025D0008847364890F8200000F0C000402863D1BA
:1025E00000200B90314890F8200020F040002F4947
:1025F00081F820000846818913AA129822F8201039
:102600002A48C18A129802EB800041801298401C2F
:10261000C0B212901298012806D0022815D00328C3
:1026200029D0042810D16AE04FF6FF721421084621
:10263000FFF76AFD23480088143880B24FF47842CF
:1026400014210A90FFF760FDEEE31E48008814385D
:1026500080B24FF6FF7214210A90FFF755FD19481A
:102660004088143880B24FF4784201460A90142012
:10267000FFF74AFDD8E313484088143880B24FF67C
:10268000FF7201460A901420FFF73EFD0D48408876
:10269000143880B20A900B480088143880B24FF486
:1026A000784209900A9927E0BFE300001C0000204F
:1026B00020BCBE4C5000002051000020140000201F
:1026C00078313A00D000002079313A0078323A006F
:1026D00079323A0078333A0079333A0078343A0064
:1026E00079343A006661632069733A00160000206D
:1026F0008C98000800000000FFF706FD94E3BDF889
:102700004C10BDF85000081A0A90002801DB0A9806
:1027100001E00A9840420F90BDF84E1013A8C088FF
:10272000081A0A90002801DB0A9801E00A98404242
:102730000E900F9840430F900E9840430E90DDE9A5
:102740000E100844059005F0FCF9CDE906019DED59
:10275000060B05F078F98DED080B9DED080B51EC9B
:10276000100B05F0C1F980B21190BDF85400BDF80E
:102770005810401A0A90002801DB0A9801E00A98D4
:1027800040420F9013A84189C089081A0A90002876
:1027900001DB0A9801E00A9840420E900F984043EE
:1027A0000F900E9840430E90DDE90E1008440590FE
:1027B00005F0C7F9CDE906019DED060B05F043F9DB
:1027C0008DED080B9DED080B51EC100B05F08CF90D
:1027D00080B210909DED110AF8EE400A9DED100AAE
:1027E000B8EE401A80EE810A8DED0A0A0A9805F0CB
:1027F000F7FBCDE90C019FEDFE0B53EC102B9DED8B
:102800000C0B51EC100B05F0AFF90ED39FEDFA0B4A
:1028100053EC102B9DED0C0B51EC100B05F0DEFA78
:1028200003D3119808B11098F0BB00201290F4481F
:102830004088143880B20A90F1480088143880B279
:102840004FF6FF7209900A99FFF75EFC4FF4784249
:1028500014210846FFF758FC9FEDEA0B53EC102BB0
:102860009DED0C0B51EC100B05F0BAF9CDE9080108
:102870009DED080B51EC100B05F036F980B213A951
:102880000A90C989BDF8582013AB5B89CDE90132A4
:10289000CDE90310BDF85400009013A8C08809903A
:1028A000BDF85000089000E00AE0BDF84E00079027
:1028B000BDF84C00069007A90EC9FFF793FDC3E2CF
:1028C000BDF84C10BDF85400081A0A90002801DB2E
:1028D0000A9801E00A9840420F90BDF84E1013A8E4
:1028E0004089081A0A90002801DB0A9801E00A983A
:1028F00040420E900F9840430F900E9840430E9028
:10290000DDE90E100844059005F01BF9CDE906013C
:102910009DED060B05F097F88DED080B9DED080B6E
:1029200051EC100B05F0E0F880B21190BDF850109A
:10293000BDF85800081A0A90002801DB0A9801E047
:102940000A9840420F9013A8C188C089081A0A90BB
:10295000002801DB0A9801E00A9840420E900F9887
:1029600040430F900E9840430E90DDE90E1008444E
:10297000059005F0E6F8CDE906019DED060B05F0A2
:1029800062F88DED080B9DED080B51EC100B05F076
:10299000ABF880B210909DED110AF8EE400A9DED63
:1029A000100AB8EE401A80EE810A8DED0A0A0A98E4
:1029B00005F016FBCDE90C019FED8D0B53EC102BB0
:1029C0009DED0C0B51EC100B05F0CEF80AD39FEDEA
:1029D0008A0B53EC102B9DED0C0B51EC100B05F0FA
:1029E000FDF948D20020129085484088143880B202
:1029F0000A9083480088143880B24FF6FF7209901D
:102A00000A99FFF781FB4FF4784214210846FFF73B
:102A10007BFB9FED7C0B53EC102B9DED0C0B51ECD5
:102A2000100B05F0DDF8CDE908019DED080B51EC28
:102A3000100B05F059F880B213A90A90C989BDF8A6
:102A4000582013AB5B89CDE90132CDE90310BDF805
:102A50005400009013A8C0880990BDF85000089059
:102A6000BDF84E000790BDF84C00069007A90EC9AE
:102A7000FFF7B8FCE8E1BDF85000BDF85410401A6B
:102A80000A90002801DB0A9801E00A9840420F9062
:102A900013A8C1884089081A0A90002801DB0A9807
:102AA00001E00A9840420E900F9840430F900E9814
:102AB00040430E90DDE90E100844059005F041F802
:102AC000CDE906019DED060B04F0BDFF8DED080B71
:102AD0009DED080B51EC100B05F006F880B211903B
:102AE000BDF84C00BDF85810401A0A90002801DBD0
:102AF0000A9801E00A9840420F90BDF84E1013A8C2
:102B0000C089081A0A90002801DB0A9801E00A9897
:102B100040420E900F9840430F900E9840430E9005
:102B2000DDE90E100844059005F00BF8CDE906012B
:102B30009DED060B04F087FF8DED080B9DED080B56
:102B400051EC100B04F0D0FF80B210909DED110AF3
:102B5000F8EE400A9DED100AB8EE401A80EE810AA8
:102B60008DED0A0A0A9805F03BFACDE90C019FEDBC
:102B7000200B53EC102B9DED0C0B51EC100B04F0C3
:102B8000F3FF0AD39FED1C0B53EC102B9DED0C0BA8
:102B900051EC100B05F022F958D200201290184881
:102BA0004088143880B20A9015480088143880B2E2
:102BB0004FF6FF7209900A99FFF7A6FA4FF4784290
:102BC00014210846FFF7A0FA9FED0E0B53EC102BD3
:102BD0009DED0C0B51EC100B05F002F8CDE908014E
:102BE0009DED080B51EC100B04F07EFF80B20DE060
:102BF000666666666666EE3FCDCCCCCCCCCCF03F4C
:102C0000D0000020000000000000594001460A905A
:102C100013A8C289BDF8580013AB5B89CDE9013018
:102C2000CDE90321BDF85400009013A8C088099095
:102C3000BDF850000890BDF84E000790BDF84C005C
:102C4000069007A90EC9FFF7CDFBFDE0BDF85000C7
:102C5000BDF84C10401A00EE100AF8EEC00AA74862
:102C60000088283800EE100AB8EEC00A80EE201A5C
:102C7000A34880ED091ABDF85000BDF84C10084477
:102C800000EE100AF8EEC00A9C48008800EE100A18
:102C9000B8EE400A9A4890ED091A01EE600AF0EE8B
:102CA000000A80EE201ABDEEC10A10EE100A01B231
:102CB0009348818513A84089BDF84E10401A00EE54
:102CC000100AF8EEC00A8D484088283800EE100A35
:102CD000B8EEC00A80EE201A894880ED0A1A13A8BF
:102CE0004089BDF84E10084400EE100AF8EEC00A04
:102CF0008248408800EE100AB8EE400A804890ED05
:102D00000A1A01EE600AF0EE000A80EE201ABDEE0B
:102D1000C10A10EE100A00B27949C885084690ED44
:102D2000090ABDEEC00A8DED090A0998002801DBE9
:102D3000099801E00998404202280FDC704890EDA4
:102D40000A0ABDEEC00A8DED0A0A0A98002801DBC6
:102D50000A9801E00A984042022842DD00201290C1
:102D600066484088143880B20A9064480088143855
:102D700080B24FF6FF7209900A99FFF7C5F94FF438
:102D8000784214210846FFF7BFF95EA01021CDE973
:102D900000105A4840880A90584800880990024616
:102DA0001A2128200A9BFEF7C2FD554890F83000F2
:102DB00008B9012000E00020514981F830000846A0
:102DC00090F8300030B1902053490870D02153481A
:102DD000017005E0D0215048017090204F490870E3
:102DE00032E01F214E4801804FF6FF70FDF7D7FFFC
:102DF0004CA01021CDE90010404840880A903F487F
:102E00000088099002466E2123200A9BFEF78FFD61
:102E10004FF47A7000F024FEFFF759FA4FF6FF7076
:102E2000FDF7BDFF17B000BD00BF0A2000F018FE7F
:102E30000B98401C80B20B900B98B0F57A7F02DDA6
:102E4000FFF780FA02E000BFFFF7BDBB00BF00BF85
:102E5000E8E71CB52948808845F21051884201D125
:102E600000201CBD0121262002F048FB0620009016
:102E700000208DF804008DF8060003208DF8050071
:102E800001208DF8070069462C4801F0B5FD0120AE
:102E900000908DF804006946284801F0ADFD4FF41C
:102EA0000050009001208DF804006946244801F08C
:102EB000A3FD4FF40060009001208DF804006946E6
:102EC000204801F099FD0E491631A1F10A00FFF7E3
:102ED0007DF89FED1D0A0A4880ED090A9FED1B0A47
:102EE00080ED0A0AF920064988856FF01600C8852A
:102EF000002081F830000120B3E70000D00000205E
:102F00001C0000205450204E656564207265616489
:102F10006A757374210000005000002051000020E9
:102F200014000020546F7563682053637265656EEA
:102F30002041646A757374204F4B210000040240E5
:102F40000008024000140240AAA480BDE156B93D29
:102F500000B599B001217A2002F0D0FA012108468B
:102F600002F004FB4FF40040179001208DF8600040
:102F700000208DF8620002208DF8610001208DF89C
:102F8000630017A9B44801F037FD4FF6337017906E
:102F900002208DF8600000208DF8620003208DF87B
:102FA000610001208DF8630017A9AC4801F024FDF1
:102FB0004FF68370179002208DF8600000208DF886
:102FC000620003208DF8610001208DF8630017A9CD
:102FD000A34801F011FD4FF23F00179002208DF839
:102FE000600000208DF8620003208DF86100012050
:102FF0008DF8630017A99B4801F0FEFC40F23F40AA
:10300000179002208DF8600000208DF862000320E8
:103010008DF8610001208DF8630017A9924801F036
:10302000EBFC0C2200218D4801F071FD0C220121E6
:103030008A4801F06CFD0C220421884801F067FDEC
:103040000C220521854801F062FD0C2208218348ED
:1030500001F05DFD0C220921804801F058FD0C2291
:103060000A217E4801F053FD0C220B217B4801F020
:103070004EFD0C221146794801F049FD0C220D212C
:10308000764801F044FD0C220E21744801F03FFD0A
:103090000C220F21714801F03AFD0C2200217048EA
:1030A00001F035FD0C2201216D4801F030FD0C22AC
:1030B00007216B4801F02BFD0C220821684801F024
:1030C00026FD0C220921664801F021FD0C220A216F
:1030D000634801F01CFD0C220B21614801F017FD33
:1030E0000C2211465E4801F012FD0C220D215C48B5
:1030F00001F00DFD0C220E21594801F008FD0C22B3
:103100000F21574801F003FD0C220021554801F022
:10311000FEFC0C220121534801F0F9FC0C22022193
:10312000504801F0F4FC0C2203214E4801F0EFFC62
:103130000C2204214B4801F0EAFC0C2205214948ED
:1031400001F0E5FC0C221146464801F0E0FC0C229F
:103150000D21444801F0DBFC0C220E21414801F016
:10316000D6FC0C220F213F4801F0D1FC0C2200219B
:103170003D4801F0CCFC0C2201213B4801F0C7FC8A
:103180000C220221384801F0C2FC0C2203213648EF
:1031900001F0BDFC0C220421334801F0B8FC0C22E4
:1031A0000521314801F0B3FC0C220A212E4801F020
:1031B000AEFC0020019002900820039000200490B3
:1031C00005900690079004200890002009900A902E
:1031D00010200B9000200C900E900D900F901090EE
:1031E0004FF480501190002012901390149001A879
:1031F0001590169008A801F0DEFC0121042001F0D2
:1032000065FD19B000BD10B506E004784FF0D0435D
:103210005C54491C401C521E002AF6D110BD06E029
:103220004FF0D0435B5C00F8013B491C521E002A62
:10323000F6D1704713B504460122214601A8FFF7D5
:10324000E2FF1CBD18B50446012221466846FFF77F
:10325000E6FF9DF8000018BD00040240000C02408B
:1032600000100240001402400018024010B5FD2179
:10327000132001F0C0F95A21012001F0BCF95C21B2
:10328000022001F0B8F965210E2001F0B4F9002107
:103290002D2001F0B0F900212E2001F0ACF910BD75
:1032A00010B5FD21132001F0A6F95821012001F0ED
:1032B000A2F96021022001F09EF965210E2001F0A3
:1032C0009AF900212D2001F096F900212E2001F01D
:1032D00092F910BD10B5FD21132001F08CF9842165
:1032E000012001F088F94C21022001F084F96521C8
:1032F0000E2001F080F900212D2001F07CF910BD95
:1033000010B5FD21132001F076F99621012001F07E
:1033100072F94021022001F06EF965210E2001F0C2
:103320006AF900212D2001F066F900212E2001F01C
:1033300062F910BD10B5FF21132001F05CF9E52101
:103340000E2001F058F910BD10B50446402000EBE6
:103350000410C1B2A72001F04EF9402000EB041088
:10336000C1B2A82001F047F910BD10B504460820ED
:1033700000EB0410C1B29B2001F03DF90621AB2007
:1033800001F039F910BD10B504466042082202EB85
:103390000010C1B29B2001F02EF90E21AB2001F0EC
:1033A0002AF910BD1CB50121084602F0A7F8002239
:1033B0000821914801F0ABFB4FF48070009002208F
:1033C0008DF8040003208DF8050000208DF806001C
:1033D00001208DF807006946874801F00DFB4FF08A
:1033E000C061081101F06EFF0121082002F086F88B
:1033F0000C20009001208DF8040000208DF80600BC
:1034000002208DF8050001208DF8070069467B48F1
:1034100001F0F2FA00207A49086001207949C1F8E8
:1034200088021CBD70B50025FFF7BCFF642000F0CA
:1034300017FB0A2000F014FB00F0FEFF8021122091
:1034400001F0D9F808B1012070BD322000F008FB6E
:103450000A2001F0F5F80446772C01D00220F3E7AA
:103460000B2001F0EDF80446212C01D00220EBE7FF
:10347000002518E0002606E03046711CCEB2642814
:1034800001D10320E0E7604A02EB450251785E4A31
:1034900012F8150001F0AFF80028EDD1022000F07D
:1034A000DFFA681C85B24E2DE4D3022000F0D8FA72
:1034B0000620FFF749FF022000F0D2FA0020FFF7B4
:1034C00054FF022000F0CCFA0020BDE730B58BB0ED
:1034D00004460D460121080202F059F8012120207E
:1034E00002F00CF809221146484801F010FB4FF495
:1034F0000070099002208DF8280003208DF8290023
:1035000000208DF82A0001208DF82B0009A93F48E2
:1035100001F072FAA8B2ADF818000020ADF81A0058
:103520000794ADF8200006A9394802F0ACFE6020EF
:10353000ADF804000120ADF806000220ADF810003F
:1035400001A9334802F034FF0821314803F0BDF8E7
:1035500001212F4802F002FF01212D4802F01CFF3B
:1035600061082B4803F07DF80BB030BD2DE9F04722
:1035700005460E469046994605EB48001FFA80FA2C
:1035800006EB490087B2B7F5447F02DDA7F544702A
:1035900087B2032001F054F8044604F0F0040AF066
:1035A0000301284661F39F0004432146032001F0F4
:1035B00022F8C5F38701192001F01DF8CAF387012D
:1035C0001A2001F018F8322001F03AF8044604F00D
:1035D000C00407F00701304661F3DF000443C6F37F
:1035E000C701172001F007F8C7F3C701182001F041
:1035F00002F8BDE8F087000000000240000C024025
:103600008C824142008041429098000800140240A0
:103610000020004010B500240020D8490860902008
:1036200001F048F8002001F045F8002001F042F8D0
:10363000002001F03FF8FF2001F03CF844EA0024AC
:10364000FF2001F037F804430120CD49C1F8B8024A
:10365000204610BD1CB50121022001F04FFF0121C1
:10366000402001F04BFF4FF48040009001208DF886
:10367000040000208DF8060003208DF805000120CD
:103680008DF807006946BF4801F0B6F98020009028
:103690006946BD4801F0B0F98021BB4801F028FA25
:1036A0000120B649086001F01EF8002001F078F80A
:1036B000FFF7B0FFB54908801CBD10B500240020FD
:1036C000AE490860052000F0F5FFFF2000F0F2FF92
:1036D00004460120AA49C1F8B802204610BD10B521
:1036E00004460020A5490860012000F0E3FF2046C1
:1036F00000F0E0FF0120A249C1F8B80210BD10B5EA
:1037000000209E490860062000F0D4FF01209C495B
:10371000C1F8B80210BD10B5002098490860042017
:1037200000F0C8FF01209649C1F8B80210BD2DE98C
:10373000F04106460C4617460020904908600320D9
:1037400000F0B8FFC4F3074000F0B4FFC4F3072053
:1037500000F0B0FFE0B200F0ADFF002505E0FF2073
:1037600000F0A8FF7055681C85B2BD42F7DB012050
:1037700082490860BDE8F08110B500BFFFF79DFFEA
:1037800000F001000028F9D110BD2DE9F0410646F6
:103790000C461746FFF7B3FF002078490860022067
:1037A00000F088FFC4F3074000F084FFC4F3072053
:1037B00000F080FFE0B200F07DFF002504E0705DC6
:1037C00000F078FF681C85B2BD42F8DB01206B4930
:1037D0000860FFF7D1FFBDE8F0812DE9F041074611
:1037E0000E461446F0B2C0F58075AC4200DC2546AA
:1037F00012E02A4631463846FFF7C7FFAC4200D1F7
:103800000BE02F442E44601B84B2B4F5807F02DDB0
:103810004FF4807500E02546EBE700BFBDE8F0817E
:1038200010B5044621465AA003F084FF2403FFF795
:1038300066FFFFF7A1FF002050490860202000F03C
:1038400039FFC4F3074000F035FFC4F3072000F050
:1038500031FFE0B200F02EFF01204949C1F8B80263
:10386000FFF78AFF10BD2DE9F05F81460F4616462F
:10387000DFF824B14FEA1738C7F30B0ACAF58054B2
:10388000A64200DC344644E04FEA08314FF480524F
:103890005846FFF74CFF002508E00AEB05001BF82F
:1038A0000000FF2800D003E0681C85B2A542F4DBCD
:1038B00000BFA54216DA4046FFF7B2FF002507E039
:1038C00019F8050005EB0A010BF80100681C85B228
:1038D000A542F5DB4FEA08314FF480525846FFF716
:1038E0007CFF04E0224639464846FFF776FFA642B1
:1038F00000D10FE008F101084FF0000AA14427446D
:10390000301B86B2B6F5805F02DD4FF4805400E0D4
:103910003446B9E700BFBDE8F09F10B5FFF7EFFEF2
:10392000FFF72AFF002015490860C72000F0C2FEFB
:1039300001201349C1F8B802FFF71EFF10BD10B5F2
:1039400000200E490860B92000F0B4FE01200C49A7
:10395000C1F8B802032000F03BF810BD10B50020FC
:1039600006490860AB2000F0A5FE01200449C1F81B
:10397000B802032000F02CF810BD0000B8824042CD
:103980000080404200040240001802405200002023
:1039900066653A25780D0A00DE00002010B5044661
:1039A0006FF0040000F084FFE11704EB5171C1F3E4
:1039B000C701394A11701046007800EB4001C1EB95
:1039C000C0104FF6FF7101EAC0003449088010BDF5
:1039D0000146314A12784A434FF0E0235A610022EF
:1039E0009A611A46126942F001021A6100BF4FF053
:1039F000E022106900F001021AB100F48032002ABE
:103A0000F5D04FF0E022126922F001024FF0E023DE
:103A10001A6100229A6170470146204A12884A437F
:103A20004FF0E0235A6100229A611A46126942F06F
:103A300001021A6100BF4FF0E022106900F001029C
:103A40001AB100F48032002AF5D04FF0E02212695A
:103A500022F001024FF0E0231A6100229A617047C0
:103A600070B504464FF4077094FBF0F0C6B24FF403
:103A7000077094FBF0F100FB114085B205E04FF4B4
:103A80000770FFF7C9FF701EC6B2002EF7D115B13F
:103A90002846FFF7C1FF70BD5400002056000020EB
:103AA00000BF704700BF6D4A128802F04002002A32
:103AB000F9D0C2B2694B9A80704710B588B00446FD
:103AC0000121084601F01AFD0121102001F070FDCE
:103AD00007220921624801F01AF807220A216048EA
:103AE00001F015F84FF4C060069002208DF81C001C
:103AF0008DF81D0000208DF81E0001208DF81F009C
:103B000006A9574800F078FF02940020ADF80C0099
:103B1000ADF80E00ADF81000ADF814000C20ADF8B3
:103B2000120002A94D4801F0A4FE01214B4801F00A
:103B300028FF4021494802F00CF8012240F22551AB
:103B4000464801F0D4FF25208DF8040003208DF8AD
:103B500005008DF8060001208DF8070001A800F08F
:103B60005AFE08B010BD10B586B0044601210846C3
:103B700001F0C4FC0121480401F009FD07220221E3
:103B8000374800F0C4FF07220321354800F0BFFF8B
:103B90000C20049002208DF814008DF815000020F0
:103BA0008DF8160001208DF8170004A92C4800F0AC
:103BB00023FF00940020ADF80400ADF80600ADF836
:103BC0000800ADF80C000C20ADF80A006946254845
:103BD00001F04FFE0121234801F0D3FE06B010BDD5
:103BE00010B540F225511D4801F0BCFF10B31B4831
:103BF00001F0F6FEC4B21C48008800F40040C8B9C9
:103C00001948008800F4804060B10A2C03D00020DD
:103C10001549088020E01448008840F4004012490B
:103C2000088019E00D2C06D10F48008840F4804030
:103C30000D49088010E00C480088C0F30D000B49C6
:103C40000C5409480088401C074908800846008831
:103C5000C72801DD0020088010BD000000100140D1
:103C600000000240004400405C000020DE10002004
:103C700010B50121FE4802F061F9012002F036F88A
:103C800010BD10B5002002F031F800BFF9480068FF
:103C900000F001000028F9D10021F54802F04EF9AA
:103CA00010BD2DE9F84F4FF0000A0027B846B9467D
:103CB0000024012002F055F8012874D1FFF7E1FF3C
:103CC000012002F05AF80020EB4908700120EB496E
:103CD0000860EB49EB48FEF78CF9002870D0E84803
:103CE0000088EF2802DDEF20E5490880E4480088DD
:103CF000C0EB0010E349098801EB0010E24931F8FC
:103D0000100000F478400012E0490870DC48008898
:103D1000C0EB0010DB49098801EB0010DA4931F8EB
:103D2000100000F4FC60C010D8494870D4480088E6
:103D3000C0EB0010D349098801EB0010D24911F8FB
:103D40001000C006000ED1498870D149CF4803F059
:103D500096FA4FF47842CA480188CA480088FEF7AC
:103D6000D3F910200090CA4802780323F0210020E4
:103D7000FDF734FD10200090C54842780323F02160
:103D80002020FDF72BFD10200090C14882780323EE
:103D9000F0214020FDF722FDBD4800780F380028B3
:103DA00002D5002003E009E2B94800780F38B9498C
:103DB0000870B74800780F30FF2802DDFF2003E0CD
:103DC00071E0B34800780F30B2494870B04840788D
:103DD0003238002801D5002002E0AD484078323862
:103DE000AC498870AA4840783230FF2801DDFF20B6
:103DF00002E0A74840783230A649C870A4488078CD
:103E00005038002801D5002002E0A14880785038C1
:103E1000A04908719E4880785030FF2801DDFF20BE
:103E200002E09B48807850309A49487110200090F9
:103E30000846027803234FF482710020FDF7CEFC80
:103E4000102000909348427803234FF48271202081
:103E5000FDF7C4FC102000908E48827803234FF4B5
:103E600082714020FDF7BAFC102000908948C2788A
:103E700003234FF482716020FDF7B0FC1020009006
:103E80008448027903234FF482718020FDF7A6FC59
:103E9000102000907F48427903234FF48271A020C4
:103EA000FDF79CFC7DE100207549088072E0002050
:103EB0007449088065E072480088C0EB00107149C1
:103EC000098801EB0010704931F8100000F47840C7
:103ED00000126E4908706A480088C0EB00106949FA
:103EE000098801EB0010684931F8100000F4FC600B
:103EF000C0106649487062480088C0EB00106149F4
:103F0000098801EB0010604911F81000C006000E8E
:103F10005E4988705E495D4803F0B1F95C480078FD
:103F20005C490978884227DD594800785949497821
:103F3000884221DA564840785649897888421BDD04
:103F4000534840785349C978884215DA4D4800886B
:103F500007444B48008880444D4800788144641CE5
:103F6000002047490988C1EB0111464A128802EB3B
:103F70000111454A22F8110042480088801C41493D
:103F8000088040480088F02895DB3D480088801C68
:103F90003B4908803A480088F02888DBB7FBF4F0FA
:103FA00038490880B8FBF4F03549088000243548CA
:103FB00000883949088032480088384908803148EB
:103FC0000088102802DA1020334908802D48008824
:103FD000EE2802DDEE20304908802F49088800EBEA
:103FE000D0714910A0EB410121B12B480088401C41
:103FF0002949088022480088102802DA1020274921
:1040000008801F480088EE2802DDEE202349088042
:104010002249088800EBD0714910A0EB410121B181
:104020001E480088401C1D4908806FF00F0515E0F0
:104030006FF00F060FE0194800882844C0EB00100D
:104040001549098801EB001030440F4931F8100080
:1040500000B9641CB61C102EEDDDAD1C102DE7DD83
:10406000642C24D20E480088064908800D481BE0C5
:104070002864024000000550880000209002414260
:104080008C0000208A0000202814002098000020C6
:104090009B0000206400002092000020940000207B
:1040A0008E000020900000200088D1490880D1486F
:1040B0000088D1490880CE480088D0490880CC4883
:1040C0000088C0F1F000CA490880A021CC4801F066
:1040D00083FC00BFCA48008800F040000028F9D0E7
:1040E0006420FFF775FCC248B0F800B00BEBDB7042
:1040F0004110C34801F070FC00BFC148008800F0C7
:1041000040000028F9D06420FFF762FCB948B0F8FD
:1041100000B00BEBDB704110B94801F05DFC00BF53
:10412000B748008800F040000028F9D06420FFF76D
:104130004FFCB0490988AE4A1288881800EBD0714C
:10414000C1F34701AF4A118010460188AC4801F025
:1041500043FC00BFAA48008800F040000028F9D0C6
:10416000A3480088C0F1F00081B24FF47842A14822
:104170000088FDF7C9FF1020032300909D480288A6
:104180004FF48C710020FDF729FB10200090984817
:104190000088C0F1F00203234FF48C712020FDF75A
:1041A0001DFB9948EF231A46002100900846FDF7B1
:1041B00081F9002095490860FFF75AFDBDE8F88FA6
:1041C00010B59349934801F016FF01282FD190496B
:1041D000904801F02CFF90480078E62803D18E48E3
:1041E00000788D49087000208C49086016E08C48E2
:1041F0008A490968A0EB4100008887490978C1EB2A
:104200000111884A126802EB4111844A126821F8B0
:10421000120082480068801C804908607F4800685E
:10422000F028E4DB7C480078401C7B49087010BD16
:104230000246C1EB01107B4B1B6803EB401030F8CA
:104240001200704770B590B004460D461646012125
:10425000880501F053F96F4801F094FD00BF6D48E7
:1042600001F0B9FE0028FAD14FF0007001906E48BD
:104270000290039400200490059506904FF480600E
:10428000079080000890099600110A9040020B9058
:1042900004200C9003200D9000200E900F9001A997
:1042A0005C4801F011FE012210215A4801F0D3FEB2
:1042B00039208DF8000000208DF801008DF80200F3
:1042C00001208DF80300684600F0A5FA10B070BD1B
:1042D00000B587B001210F2001F010F90121084637
:1042E00001F01DF95020019002208DF808000020F7
:1042F0008DF80A0003208DF8090001208DF80B00CD
:1043000001A94A4800F078FB4FF47070019001A9B0
:10431000474800F071FB4FF43C60019001A945480B
:1043200000F06AFB0D220421404800F0F0FB0D2252
:1043300006213E4800F0EBFB0D2207213C4800F02F
:10434000E6FB0D2206213B4800F0E1FB0D22072190
:10435000384800F0DCFB0D220821364800F0D7FB7E
:104360000D220921334800F0D2FB0D220B213148E8
:1043700000F0CDFB0D2206212D4800F0C8FB0D22D8
:1043800008212B4800F0C3FB0D220921284800F02A
:10439000BEFB01F031FC0020ADF80C00ADF81600BA
:1043A000ADF81800ADF814002020ADF81000802002
:1043B000ADF812000020ADF80E0003A801F028FCB3
:1043C0000121084601F0A4FC012001F080FC4E20F0
:1043D0008DF8000001208DF8010002208DF8020008
:1043E00001208DF80300684600F015FA07B000BD03
:1043F0008C0000208A0000208E0000209000002009
:104400000010014096000020281400209002414234
:10441000000800102864024088000020A00000204E
:10442000D813002060000020280005500000024042
:1044300000040240000802401CB50121082001F0E0
:104440005DF8C020009001208DF8040002208DF856
:10445000050000208DF8060001208DF80700694650
:10446000914800F0C9FA1CBD10B501208F490860C1
:104470008F49C1F898027820FFF7AAFA00208B49EB
:1044800008607820FFF7A4FA00208949C1F8980253
:1044900010BD10B50020854908607820FFF798FA14
:1044A00001208349C1F898027820FFF791FA012092
:1044B0007E4908607820FFF78BFA10BD10B5782090
:1044C000FFF786FA0120794908607949C1F8980216
:1044D0007820FFF77DFA00207449091F08607820D2
:1044E000FFF776FA00207249C1F89C027820FFF7A6
:1044F0006FFA10BD70B5044600261BE004F0800082
:1045000018B101206949086002E00020674908608D
:104510006006040E7820FFF75BFA01206349091F4B
:1045200008607820FFF754FA00206149C1F898022A
:10453000701CC6B2082EE1DB5B48006820F44040E6
:10454000594908600846006808607820FFF740FA7B
:1045500001205649091F08607820FFF739FA5448AE
:10456000D0F81C0208B1012500E0002500204F49C9
:10457000091F08604C48006820F440404A49086020
:104580000846006840F480400860284670BD70B559
:1045900000244548006820F440404349086008462C
:1045A00000680860082517E07820FFF711FA01205D
:1045B0003E49091F08606006040E3D48D0F81C0201
:1045C00008B1601CC4B27820FFF702FA0020374916
:1045D000091F0860681EC5B2002DE5DC324800687E
:1045E00020F44040304908600846006840F48040AC
:1045F0000860204670BD70B505460C460026FFF7E2
:1046000033FFDC20FFF7E4F94220FFF773FF00B12E
:104610000126DC20FFF7DCF92846FFF76BFF00B12D
:104620000126DC20FFF7D4F92046FFF763FF00B135
:1046300001261620FFF7CCF9FFF72BFF304670BD9F
:1046400070B504460025FFF70FFF1620FFF7C0F9ED
:104650004220FFF74FFFDC20FFF7BAF92046FFF7B3
:1046600049FFDC20FFF7B4F9FFF713FFDC20FFF769
:10467000AFF9FFF7F9FE1620FFF7AAF94320FFF77D
:1046800039FFDC20FFF7A4F9FFF781FF054616206C
:10469000FFF79EF9FFF712FF1620FFF799F9FFF7D2
:1046A000F8FE284670BD0000000C02409C8241428A
:1046B0000080414210B5044600BF0221414802F08B
:1046C00097FD0028F9D021463E4802F048FD00BF82
:1046D00001213C4802F08CFD0028F9D0394802F055
:1046E0003BFDC0B210BD00B587B00121084600F007
:1046F00005FF0121080300F05BFF38200590022030
:104700008DF8180000208DF81A0003208DF819008C
:1047100001208DF81B0005A92B4800F06DF905223A
:104720000321294800F0F3F905220421264800F06E
:10473000EEF905221146244800F0E9F901210803A9
:1047400000F08BFF00214FF4805000F086FF002026
:10475000ADF800004FF48270ADF802000020ADF813
:1047600004000220ADF806000120ADF80800400268
:10477000ADF80A003820ADF80C000020ADF80E00AE
:104780000720ADF8100069460E4802F06DFB0121CC
:104790000C4802F063FCFF20FFF78CFF07B000BD60
:1047A00010B50446074800884FF6C7710840054910
:1047B000088008460088204308800121014802F053
:1047C0004DFC10BD00300140000402400948804704
:1047D00009480047FEE7FEE7FEE7FEE7FEE7FEE7E3
:1047E000FEE7FEE7FEE7FEE704480549054A064BFB
:1047F00070470000210400088901000898D60120B4
:1048000098DC012098D8012098D801203249014332
:10481000324A1160704770B5002100230F22C4781E
:104820001CB32E4C246804F4E064C4F5E064C4F3C3
:104830000721C1F10404E3B20A4144789C40E1B28B
:104840008478144021430C07210E254C05786155CE
:10485000047804F01F050124AC4005786D11AD000B
:1048600005F1E025C5F8004109E0047804F01F05D2
:104870000124AC401B4D0678761145F8264070BDEA
:10488000194A0A400243154B1B1F1A60704739B181
:10489000124A121D12680243104B1B1D1A6006E0DB
:1048A0000E4A121D126882430C4B1B1D1A60704782
:1048B000042808D14FF0E021096941F004014FF0CC
:1048C000E022116107E04FF0E021096921F00401C5
:1048D0004FF0E022116170470000FA050CED00E096
:1048E00000E400E080E100E080FFFF1F10B5044617
:1048F0009848844208D10121084600F06AFE002150
:10490000012000F066FE76E09348844208D1012140
:10491000022000F05EFE0021022000F05AFE6AE054
:104920008E48844208D10121042000F052FE00216B
:10493000042000F04EFE5EE08948844208D1012147
:10494000082000F046FE0021082000F042FE52E060
:104950008448844208D10121102000F03AFE002151
:10496000102000F036FE46E07F48844208D1012145
:10497000202000F02EFE0021202000F02AFE3AE048
:104980007A48844208D10121402000F022FE002113
:10499000402000F01EFE2EE07548844208D101211F
:1049A000802000F016FE0021802000F012FE22E0A0
:1049B0007048844208D10121801500F00AFE0021D0
:1049C000A01500F006FE16E06B48844208D10121D4
:1049D000401500F0FEFD0021601500F0FAFD0AE030
:1049E0006648844207D10121001500F0F2FD002144
:1049F000201500F0EEFD10BDF0B50A4600210023A1
:104A0000002400BF3DE0012505FA01F3156805EA21
:104A100003049C4234D105684F000326BE40B543D1
:104A2000056015794E00B540066835430560157977
:104A3000012D02D01579022D16D185684F0003266D
:104A4000BE40B543856055794E00B5408668354314
:104A50008560456801268E40B54345604568967976
:104A60008E40B6B235434560C5684F000326BE4050
:104A7000B543C560D5794E00B540C6683543C560BD
:104A8000491C1029BFD3F0BD4FF6FF710160002112
:104A9000017141718171C171704708B54FF4803265
:104AA0000092009A0A430092009AC261C161009A82
:104AB000C261C2690092C269009208BD024600202C
:104AC00013690B400BB1012000E000207047014644
:104AD000086980B270470246002053690B400BB151
:104AE000012000E0002070470146486980B270470D
:104AF00001837047418370470AB1018300E041831D
:104B000070474161704742694A4042617047F0B561
:104B1000002300244D07ED0E02FA05F3CE1000F13C
:104B2000200555F826504E07F70E0F26BE40B54318
:104B3000CF1000F1200646F82750CE1000F12005D6
:104B400055F8265045EA0304CE1000F1200545F83B
:104B50002640F0BD00000240000402400008024070
:104B6000000C0240001002400014024000180240F5
:104B7000001C0240002002400024024000280240A5
:104B800030B943F2DB028100A1F1C0410A6005E0C7
:104B900043F2D2028100A1F1C0410A606FF070427D
:104BA000411C8900A1F1C0410A608100A1F1C0410E
:104BB000C1F804217047D0E901121143C2681143C2
:104BC000026911434269114382691143C269114369
:104BD000026A1143426A1143826A1143C26A114355
:104BE000026B114302689200A2F1C0421160816819
:104BF00008290BD101688900A1F1C041096841F081
:104C0000400201688900A1F1C0410A60416B096856
:104C1000426B526841EA0211426B926841EA0221FA
:104C2000426B928941EA0241426B128A41EA025187
:104C3000426B127D41EA0261426B92691143026844
:104C4000521C9200A2F1C0421160C16AB1F5804FBE
:104C50001BD1816B0968826B526841EA0211826B39
:104C6000926841EA0221826B128A41EA0251826B08
:104C7000127D41EA0261826B9269114302689200DF
:104C8000A2F1C042C2F8041107E06FF0704201685F
:104C90008900A1F1C041C1F80421704700210160E1
:104CA0000221416000218160C16001614161816137
:104CB000C16101624FF4805141624900816200216B
:104CC000C1620163F84941638163704751B1820059
:104CD000A2F1C042126842F001038200A2F1C04278
:104CE000136009E08200A2F1C0421268EF4B1A4043
:104CF0008300A3F1C0431A60704710280AD118211D
:104D00004FF020421166402151664FF0FC31916610
:104D1000D16610E01821E64A116040214FF0204290
:104D2000C2F884104FF0FC31E14A083211604FF0B4
:104D30002042C2F88C10704730B5002100220023B9
:104D4000446844F0080485682C43C5682C43056911
:104D50002C43456944EA4524856944EA4531C469E0
:104D60002468C5696D6844EA0524C5692D8944EA4B
:104D70000544C5692D7B44EA0562046A2468056A16
:104D80006D6844EA0524056A2D8944EA0544056AEC
:104D90002D7B44EA05630468102C05D14FF02044B4
:104DA0002166A266E36608E0C14C21604FF0204412
:104DB000C4F88820BE4C0C34236030BD1021016043
:104DC000002141608160C160016141618161FC211C
:104DD000C2691160C2695160C2699160C269D160E3
:104DE000026A1160026A5160026A9160026AD160CF
:104DF000704799B1102808D14FF02042126E42F04E
:104E000004024FF020431A661DE0A94A126842F0DE
:104E100004024FF02043C3F8802014E0102809D189
:104E20004FF02042126EA14BDB1E1A404FF0204380
:104E30001A6608E09E4A12689C4BDB1E1A404FF02F
:104E40002043C3F88020704799B1102808D14FF053
:104E50002042126E42F040024FF020431A661DE0DD
:104E6000934A126842F040024FF02043C3F880207A
:104E700014E0102809D14FF02042126E8B4B3F3BBB
:104E80001A404FF020431A6608E0894A1268874B9F
:104E90003F3B1A404FF02043C3F880207047014643
:104EA0000020102903D14FF02042506F02E0804AC9
:104EB00014321068704718207D49203108600020A6
:104EC0000906C1F8A4004FF0FC3079492831086088
:104ED000091D0860091D08607047016841F0100154
:104EE000426841EA4221826841EA4231704A2032F6
:104EF0001160C1680968C268526841EA0221C2684B
:104F0000128941EA0241C268127B41EA0261684AA1
:104F100028321160016909680269526841EA022178
:104F20000269128941EA02410269127B41EA026187
:104F30005F4A2C321160416909684269526841EA4E
:104F400002214269128941EA02414269127B41EA27
:104F500002614FF02042C2F8B0107047002101609A
:104F600041608160FC21C2681160C2685160C26802
:104F70009160C268D1600269116002695160026982
:104F800091600269D1604269116042695160426971
:104F900091604269D160704748B145492031096844
:104FA00041F004014FF02042C2F8A01009E040494E
:104FB000203109683D4AD21E11404FF02042C2F80C
:104FC000A010704710B5F2B1102807D14FF0204360
:104FD0005B6E0B434FF02044636632E0B0F5807F98
:104FE00008D1334B1B1D1B680B434FF02044C4F802
:104FF000843026E02E4B24331B680B434FF02044B3
:10500000C4F8A4301DE0102807D14FF020435B6E98
:105010008B434FF02044636613E0B0F5807F08D1E6
:10502000234B1B1D1B688B434FF02044C4F8843076
:1050300007E01F4B24331B688B434FF02044C4F818
:10504000A43010BD10B5024600200023102A03D161
:105050004FF02044636E09E0B2F5807F03D1144C19
:10506000241D236802E0124C2434236803EA01045F
:105070000CB1012000E0002010BD102807D14FF036
:105080002042526E8A434FF020435A6619E0B0F531
:10509000807F0FD1064A121D12688A434FF02043C9
:1050A000C3F884200DE000002C990008FEFF0F00DB
:1050B000800000A0234A12688A434FF02043C3F8BF
:1050C000A420704770B5024600200023002400256C
:1050D000102A03D14FF02046736E08E0B2F5807FAE
:1050E00003D1184E203E336801E0164E336803EAC0
:1050F000010403EAD10514B10DB1012000E0002044
:1051000070BD102808D14FF02042526E22EAD10221
:105110004FF020435A6614E0B0F5807F09D1094A68
:10512000203A126822EAD1024FF02043C3F88420CB
:1051300007E0044A126822EAD1024FF02043C3F884
:10514000A4207047A40000A0F948006840F00100C6
:10515000F74908600020F64908310860F448006803
:10516000F4490840F2490860F348091D0860F34813
:10517000EF4984310860F0481038091D0860EC4898
:10518000006820F48020EA4908600020E8490C31DA
:105190000860E7498C31086070470021E44A921C9E
:1051A000117011460870704710B5014600220023A7
:1051B00000204A11012A02D1DD4C236808E0022AAE
:1051C00003D1DB4C7034236802E0D94C743423687B
:1051D00001F01F02012494401C400CB1012000E0AA
:1051E000002010BD38B5002000900024002500BF2D
:1051F0003120FFF7D9FF05460098401C0090009829
:10520000B0F5A04F01D0002DF2D03120FFF7CCFF38
:1052100008B1012400E00024204638BD01460020EA
:10522000C34A106820F0F80040EAC10010607047DF
:10523000C349086070470021BD4A70321170117077
:10524000012802D004280AD104E00121B84A7032B2
:10525000117005E00521B64A7032117000E000BF00
:1052600000BF7047B7490860704770B5049C41EAB9
:1052700082150126C6EB530645EA0645054345EA75
:105280000465AB4E361D356070BDAD49086670478C
:10529000820142EA0172A64B84331A607047A84922
:1052A0008866704710B5830143EA016343EA0273DD
:1052B0009F4C8834236010BDA14908677047A049FE
:1052C000C864704702460020994B0833186820F0E4
:1052D000EC6042EA01031843954B083318607047AD
:1052E00002460020924B0833186820F0784042EACA
:1052F000010318438E4B08331860704701460020A5
:105300008B4A0832106820F0030008431060704791
:1053100087480830006800F00C0070470146002004
:10532000834A0832106820F0F0000843106070478C
:10533000014600207E4A0832106820F4E0500843FD
:105340001060704701460020794A0832106820F446
:10535000604040EAC10010607047F0B500210022B3
:105360000024022500260223714F08373F6807F00A
:105370000C0121B1042905D0082937D105E0724F6D
:10538000076036E0714F076033E0694F3F1D3F68AB
:10539000C7F38056664F3F1D3F6807F03F036EB16D
:1053A0006A4FB7FBF3F7DFF888C10CF1040CDCF8A7
:1053B00000C0CCF3881C07FB0CF40CE0624FB7FB79
:1053C000F3F7DFF86CC10CF1040CDCF800C0CCF38F
:1053D000881C07FB0CF4564F3F1D3F68C7F301477D
:1053E0007F1C7D00B4FBF5F7076002E0564F0760B5
:1053F00000BF00BF4E4F08373F6807F0F0010909B2
:10540000534F7A5C0768D7404760494F08373F6879
:1054100007F4E051890A4E4F7A5C4768D7408760AD
:10542000434F08373F6807F46041490B484F7A5CA7
:105430004768D740C760F0BD002100F44072B2F564
:10544000407F0AD13A4A0832116821F4F811414AE2
:1054500002401143364A08321160354A70321268F0
:10546000C0F30B031A43324B70331A60704735494F
:1054700044390860704733494039086070473649FD
:105480000860704701460020294A8C32106820F0DD
:105490001F004A1E1043264A8C3210607047014696
:1054A0000020234A8C32106820F4F8504A1E40EA4B
:1054B00002201F4A8C3210607047014600201C4AAF
:1054C0008C32106820F44010084310607047014689
:1054D0000020174A8C32106820F440000843106006
:1054E000704701460020124A8C32106820F4403088
:1054F00008431060704719490860704739B10C4A79
:105500003032126802430A4B30331A6006E0084A10
:10551000303212688243064B30331A607047F9B15B
:10552000034A343212680243014B34331A601CE0E0
:1055300000380240FFFFF6EA10300024003000205F
:1055400000004742800E47420024F40000127A0017
:10555000A4000020FFFCFF0F5C014742E01147421E
:105560008F4A126882438E4B1A60704739B18C4A59
:10557000121D126802438A4B1B1D1A6006E0884AFE
:10558000121D12688243864B1B1D1A60704739B189
:10559000834A0C3212680243814B0C331A6006E0D6
:1055A0007F4A0C32126882437D4B0C331A6070477D
:1055B00039B17B4A103212680243794B10331A60BA
:1055C00006E0774A103212688243754B10331A6036
:1055D000704739B1724A243A12680243704B243B37
:1055E0001A6006E06E4A243A126882436C4B243BF0
:1055F0001A60704739B16A4A203A12680243684B10
:10560000203B1A6006E0664A203A12688243644BE7
:10561000203B1A60704739B1614A1C3A1268024354
:105620005F4B1C3B1A6006E05D4A1C3A12688243DD
:105630005B4B1C3B1A60704739B1594A143A1268E7
:105640000243574B143B1A6006E0554A143A12685D
:105650008243534B143B1A60704739B1504A103A99
:10566000126802434E4B103B1A6006E04C4A103A57
:10567000126882434A4B103B1A60704739B1484A5E
:105680001C3212680243464B1C331A6006E0444A3F
:105690001C3212688243424B1C331A60704739B186
:1056A0003F4A2032126802433D4B20331A6006E025
:1056B0003B4A203212688243394B20331A607047CC
:1056C00039B1374A243212680243354B24331A6009
:1056D00006E0334A243212688243314B24331A6085
:1056E000704739B12E4A2C32126802432C4B2C33AE
:1056F0001A6006E02A4A2C3212688243284B2C3367
:105700001A60704739B1264A303212680243244B7E
:1057100030331A6006E0224A303212688243204B4E
:1057200030331A607047012808D11D493C3109689F
:1057300041F008011A4A3C32116007E018493C3137
:10574000096821F00801164A3C321160704739B1EE
:10575000134A273A12780243114B273B1A7006E08E
:105760000F4A273A127882430D4B273B1A70704735
:105770000B484030006840F08070094940310860B3
:10578000704701460020064A283A12680A400AB1CA
:10579000012000E000207047014926390870704759
:1057A0003438024010B50446FA48844208D1012139
:1057B0001020FFF752FF00211020FFF74EFF57E0A7
:1057C000F548844209D101214804FFF735FF002143
:1057D0004FF40030FFF730FF4AE0F048844209D12F
:1057E00001218804FFF728FF00214FF48020FFF7F4
:1057F00023FF3DE0EA48844209D10121C804FFF7B4
:105800001BFF00214FF40020FFF716FF30E0E548B2
:10581000844209D101210805FFF70EFF00214FF452
:105820008010FFF709FF23E0DF48844208D10121FF
:105830002020FFF712FF00212020FFF70EFF17E0C6
:10584000DA48844209D101218807FFF7F5FE0021DB
:105850004FF08040FFF7F0FE0AE0D548844207D1C0
:1058600001214005FFF7E8FE00216005FFF7E4FE97
:1058700010BD2DE9FF4705460E460024A14600BF96
:10588000A046B08900B100BF2C8A24F44054F088AF
:1058900004432C82AC8941F20C608443B088318986
:1058A0000843718908430443AC81AC8A24F44074F2
:1058B000B0890443AC826846FFF74FFDB548854286
:1058C00002D0B948854202D1DDF80C9001E0DDF844
:1058D0000890A88900F4004040B109EBC90000EB32
:1058E000091031684900B0FBF1F707E009EBC90086
:1058F00000EB091031688900B0FBF1F76420B7FBB9
:10590000F0F004012009642101FB1078A88900F45B
:10591000004040B1322000EBC800B0FBF1F000F0D5
:105920000700044308E0322000EB08106421B0FBBC
:10593000F1F000F00F0004432C81BDE8FF874FF425
:105940001651016000218180C18001810C214181BB
:1059500000218181704710B502460020108A20F492
:1059600070600B884C8823438C882343CC88234366
:105970001843108210BD0021018041808180C180C8
:10598000704721B1828942F40052828104E0828909
:105990004DF6FF731A4082817047028B02F47F42FA
:1059A0000283028B0A430283704721B1828942F449
:1059B0000042828103E08289C2F30E028281704735
:1059C00021B1828A42F40062828204E0828A4FF22C
:1059D000FF731A4082827047C1F3080282807047C9
:1059E00001468888C0F308007047028A4FF6F073BA
:1059F0001A400282028A0A430282704721B18289D8
:105A000042F00202828104E082894FF6FD731A405F
:105A10008281704782894FF2FF731A4082818289A6
:105A20000A4382817047028A4FF6DF731A4002826E
:105A3000028A0A430282704721B1028A42F48042FC
:105A4000028204E0028A4BF6FF731A40028270471A
:105A5000818941F001018181704721B1828A42F040
:105A60000802828204E0828A4FF6F7731A4082822B
:105A70007047028BD2B20283028B42EA0122028378
:105A8000704721B1828A42F02002828204E0828A39
:105A90004FF6DF731A408282704721B1828A42F04A
:105AA0001002828204E0828A4FF6EF731A408282EB
:105AB0007047828A4FF6FB731A408282828A0A43B9
:105AC0008282704721B1828A42F00202828204E01F
:105AD000828A4FF6FD731A40828270471AB1838A18
