:020000040800F2
:10000000980700200D110008E9020008EB02000823
:10001000EF020008F3020008F702000800000000E9
:10002000000000000000000000000000FB020008CB
:10003000FD02000800000000FF02000801030008A4
:1000400027110008271100082711000827110008B0
:1000500027110008271100082711000827110008A0
:1000600003030008271100082711000827110008C2
:100070002711000827110008271100082711000880
:100080002711000827110008271100082711000870
:100090002711000827110008271100082711000860
:1000A0002711000827110008271100082711000850
:1000B0002711000805030008271100082711000870
:1000C0002711000827110008271100082711000830
:1000D0002711000827110008271100082711000820
:1000E0002711000827110008271100082711000810
:1000F0002711000827110008271100082711000800
:1001000027110008271100082711000827110008EF
:1001100027110008271100082711000827110008DF
:1001200027110008271100082711000827110008CF
:1001300000F002F800F058F80AA090E8000C8244A1
:100140008344AAF10107DA4501D100F04DF8AFF27E
:10015000090EBAE80F0013F0010F18BFFB1A43F0A5
:1001600001031847442D0000642D0000103A24BFFD
:1001700078C878C1FAD8520724BF30C830C144BF0C
:1001800004680C607047000000230024002500264E
:10019000103A28BF78C1FBD8520728BF30C148BFEA
:1001A0000B607047662902F01886642901F0E6802A
:1001B0006F2901F01F81782901F0488100207047E4
:1001C0001FB59DE8030001F07BFF01F0EFFB040089
:1001D0000020002102F074FDE06001F0FFFC1FBD73
:1001E00010B501F064FD10BD01F0CCFD1146FFF724
:1001F000E7FF00F009F801F0D1FE03B4FFF7F0FFCC
:1002000003BC02F0EFF800007B24114D01F01CF854
:100210001DE010A001F072F814A001F06FF8214663
:1002200017A001F06BF8284602F066FD064632463C
:100230000B4619A001F062F821461EA001F05EF8FD
:10024000214622A001F05AF8264800F0DEFFE0E740
:10025000A4704541C9EEDBDAC6D5D6D0BFC6BCBC5A
:10026000D3D0CFDEB9ABCBBE0D0A00007777772EA7
:100270007072656368696E2E636F6D0D0A00000011
:10028000746F206431206120696E74206E756D6218
:1002900065722025640D0A00746F2064322061208D
:1002A000666C6F6174206E756D6265722025660DD7
:1002B0000A0000006368616E67652068657866699A
:1002C0006C652069732025580D0A00006368616E13
:1002D0006765203066696C6520697320256F0D0A9B
:1002E0000000000000127A00704700BFFEE700BF68
:1002F000FEE700BFFEE700BFFEE7704770477047AC
:1003000070477047704710B540210F4800F0B1FEAC
:1003100040F225510C4800F0B5FEA0B10A4800F0AB
:1003200031FE0A49087008460078401C08700846EB
:100330000178054800F022FE00BF8021024800F04D
:100340008BFE0028F9D010BD0038014000000020CD
:100350000CB50020019000906B48006840F480309C
:100360006949086000BF6848006800F400300090E8
:100370000198401C0190009818B90198B0F5A06F41
:10038000F1D16148006810F4003F02D001200090D4
:1003900001E0002000900098012842D15B480068ED
:1003A00040F01000594908600846006820F003003A
:1003B00008600846006840F0020008605248406843
:1003C000514948600846406848600846406840F423
:1003D000806048600846406820F47C104860084609
:1003E000406840F4E81048600846006840F08070BB
:1003F000086000BF4448006810F0007FFAD042480F
:10040000406820F00300404948600846406840F0DA
:100410000200486000BF3C48406800F00C0008281B
:10042000F9D10CBD10B5FFF793FF10BD10B53648DC
:10043000006840F0010034490860084640683449CB
:1004400008403149486008460068324908402E4952
:1004500008600846006820F480200860084640686C
:1004600020F4FE0048604FF41F008860FFF7DAFFB9
:100470004FF000602849086010BD10B50021002031
:100480000022214B5B6803F00C0121B1042906D046
:10049000082928D107E0214B214C236027E01F4B7E
:1004A0001F4C236023E0184B5B6803F47010164B5D
:1004B0005B6803F48032022303EB904022B9194BAE
:1004C0004343174C23600DE00F4B5B6813F4003F70
:1004D00004D0144B4343124C236003E00F4B4343BF
:1004E0000F4C236003E00D4B0D4C236000BF00BF99
:1004F000054B5B68C3F303130B4CE15C084B1B68B3
:10050000CB40074C236010BD001002400020024089
:100510000000FFF8FFFFF6FE08ED00E000127A0091
:100520000400002000093D0008000020314901437B
:10053000314A1160704770B5002100230F22C47842
:100540000CB32D4C246804F4E064C4F5E064210A83
:10055000C1F10403CA40447804FA03F184781440DA
:1005600021430901254C0678A155047804F01F05A4
:100570000124AC4005786D114FF0E02606EB8505AF
:10058000C5F8004109E0047804F01F050124AC40DF
:100590001B4D0678761145F8264070BD194A0A4071
:1005A0000243154B1B1F1A60704739B1124A121DC6
:1005B00012680243104B1B1D1A6006E00E4A121D02
:1005C000126882430C4B1B1D1A607047042808D127
:1005D0004FF0E021096941F004014FF0E022116180
:1005E00007E04FF0E021096921F004014FF0E0221B
:1005F000116170470000FA050CED00E000E400E036
:1006000080E100E080FFFF1F10B50446CA48844225
:1006100008D10121042000F027FB0021042000F074
:1006200023FB46E0C548844208D10121082000F0A0
:100630001BFB0021082000F017FB3AE0C048844271
:1006400008D10121102000F00FFB0021102000F044
:100650000BFB2EE0BB48844208D10121202000F092
:1006600003FB0021202000F0FFFA22E0B64884427C
:1006700008D10121402000F0F7FA0021402000F0CD
:10068000F3FA16E0B148844208D10121802000F03D
:10069000EBFA0021802000F0E7FA0AE0AC4884423F
:1006A00007D10121801500F0DFFA0021A01500F02C
:1006B000DBFA10BD10B50121084600F0D5FA002183
:1006C000012000F0D1FA10BD2DE9F04102460025CD
:1006D0000026002000230024002791F803C00CF01E
:1006E0000F0591F803C01CF0100F03D091F802C061
:1006F0004CEA050591F800C0BCF1000F31D0146838
:1007000000202BE04FF0010C0CFA00F3B1F800C010
:100710000CEA03069E4220D183004FF00F0C0CFA26
:1007200003F7BC4305FA03FC4CEA040491F803C048
:10073000BCF1280F06D14FF0010C0CFA00FCC2F8F6
:1007400014C00AE091F803C0BCF1480F05D14FF086
:10075000010C0CFA00FCC2F810C0401C0828D1D3D0
:100760001460B1F800C0BCF1FF0F34DD5468002004
:100770002EE000F1080C4FF0010808FA0CF3B1F874
:1007800000C00CEA03069E4221D183004FF00F0CFB
:100790000CFA03F7BC4305FA03FC4CEA040491F895
:1007A00003C0BCF1280F05D100F1080C08FA0CF8C1
:1007B000C2F8148091F803C0BCF1480F07D100F1D2
:1007C000080C4FF0010808FA0CF8C2F81080401C21
:1007D0000828CED35460BDE8F0814FF6FF71018048
:1007E000022181700421C170704702460020936885
:1007F0000B4201D0012000E00020704701468868CC
:1008000080B2704702460020D3680B4201D001201D
:1008100000E0002070470146C86880B2704701615F
:100820007047416170470AB1016100E04161704762
:10083000C16070474FF480320A43826181618261F6
:1008400082698269704702460020424B18684FF661
:100850008073184040EA021008433E4B186070470E
:100860003D49C8617047F0B50A46002300240021C5
:10087000002500F00046B6F1004F02D1354EF16977
:1008800001E0344E7168C0F3034583B200F44016B2
:10089000B6F5401F08D121F070612E4E766826F023
:1008A00070662C4F7E6012E000F48016B6F5801F53
:1008B00006D1032606FA05F4A14341F0706106E073
:1008C000460D360103FA06F6B14341F0706122B1DC
:1008D000460D360103FA06F6314300F00046B6F144
:1008E000004F02D11B4EF16101E01A4E7160F0BD64
:1008F00030B500228B071C0F0F2303FA04F2154BAF
:1009000008338C1053F824309343124C08348D1064
:1009100044F8253023468C1053F824308C07240FDC
:1009200000FA04F423430B4C08348D1044F82530AE
:1009300030BD0A490860704700080140000C0140C2
:10094000001001400014014000180140001C01404B
:10095000002001400000014000002042DC00204255
:10096000DD48006840F00100DB4908600846406847
:10097000DA490840D849486008460068D849084024
:10098000D54908600846006820F4802008600846C1
:10099000406820F4FE0048604FF41F0088607047F4
:1009A000CD49096821F48031CB4A116011460968AC
:1009B00021F480211160B0F5803F03D0B0F5802F85
:1009C0000ED106E0C449096841F48031C24A116081
:1009D00007E0C149096841F4A021BF4A116000E065
:1009E00000BF00BF704710B5014600220023002061
:1009F0004A11012A02D1B84C236806E0022A02D12A
:100A0000B54C236A01E0B44C636A01F01F02012473
:100A100094401C4201D0012000E0002010BD38B5F8
:100A2000002000900024002500BF3120FFF7DBFFED
:100A300005460098401C00900098B0F5A06F01D0CA
:100A4000002DF2D03120FFF7CEFF08B1012400E0E5
:100A50000024204638BD014600209F4A106820F03F
:100A6000F80040EAC100106070479E490860704776
:100A700002460020984B586820F47C1042EA01039B
:100A80001843954B58607047964908667047014671
:100A90000020914A506820F00300084350607047DE
:100AA0008D48406800F00C007047014600208A4ADB
:100AB000506820F0F0000843506070470146002065
:100AC000854A506820F4E060084350607047014652
:100AD0000020814A506820F4605040EAC100506014
:100AE000704729B17C4A527A02437B4B5A7204E028
:100AF000794A527A8243784B5A7270477A49086031
:100B0000704701460020744A506820F44040084372
:100B1000506070470021754A11706F4A82F82010AA
:100B2000012802D0042808D103E001216F4A117086
:100B300004E005216D4A117000E000BF00BF70475E
:100B40006B49086070476449096A0143624A11624F
:100B50007047674944390860704730B5002100226A
:100B6000002400235C4D6D6805F00C0121B10429BF
:100B700005D0082923D105E05E4D056022E05D4DDA
:100B800005601FE0544D6D6805F47012524D6D689C
:100B900005F48034022505EB92421CB9564D5543AD
:100BA00005600BE04C4D6D6815F4003F03D0524DCD
:100BB0005543056002E04F4D5543056002E04D4D41
:100BC000056000BF00BF444D6D6805F0F0010909E4
:100BD0004A4D6B5C0568DD4045603F4D6D6805F42E
:100BE000E061090A454D6B5C4568DD4085603A4D22
:100BF0006D6805F46051C90A404D6B5C4568DD4085
:100C0000C560354D6D6805F44041890B3C4D6B5C0A
:100C1000C568B5FBF3F5056130BD29B12E4A5269AF
:100C200002432D4B5A6104E02B4A526982432A4BFE
:100C30005A61704729B1284A92690243264B9A614A
:100C400004E0254A92698243234B9A61704729B197
:100C5000214AD2690243204BDA6104E01E4AD2697C
:100C600082431D4BDA61704729B11B4AD2680243A7
:100C7000194BDA6004E0184AD2688243164BDA60F6
:100C8000704729B1144A12690243134B1A6104E0F8
:100C9000114A12698243104B1A6170471449403956
:100CA000086070470F49C86470470B49C8717047A6
:100CB0000948406A40F08070074948627047014621
:100CC0000020054A92680A4201D0012000E000207D
:100CD0007047014988727047001002400000FFF819
:100CE000FFFFF6FE00004242D800424220100240C0
:100CF0008004424200127A0000093D0018000020E2
:100D00002800002010B50446FB48844209D1012187
:100D10008803FFF7A9FF00214FF48040FFF7A4FFED
:100D200032E0F648844209D101214804FFF7A9FFC7
:100D300000214FF40030FFF7A4FF25E0F048844283
:100D400009D101218804FFF79CFF00214FF4802086
:100D5000FFF797FF18E0EB48844209D10121C8044E
:100D6000FFF78FFF00214FF40020FFF78AFF0BE011
:100D7000E548844208D101210805FFF782FF0021E0
:100D80004FF48010FFF77DFF10BD2DE9F04786B0CE
:100D900005460E460024A24600BFA1460027B089A2
:100DA00000B100BF2F462C8A4CF6FF700440F0883B
:100DB00004432C82AC894EF6F3100440B08831898C
:100DC0000843718908430443AC81AC8A4FF6FF4065
:100DD0000440B0890443AC8201A8FFF7BEFEC648B8
:100DE000874202D1DDF810A001E0DDF80CA0A8894F
:100DF00010F4004F08D00AEBCA0000EB0A1031686B
:100E00004900B0FBF1F807E00AEBCA0000EB0A105A
:100E100031688900B0FBF1F86420B8FBF0F0040100
:100E20002009642101FB1089A88910F4004F08D023
:100E3000322000EBC900B0FBF1F000F007000443E2
:100E400008E0322000EB09106421B0FBF1F000F063
:100E50000F0004432C8106B0BDE8F0874FF4165113
:100E6000016000218180C18001810C21418100212C
:100E70008181704710B502460020108A4FF2FF03AF
:100E800018400B884C8823438C882343CC88234309
:100E90001843108210BD0021018041808180C180F3
:100EA000704721B1828942F40052828104E0828934
:100EB0004DF6FF731A4082817047F0B50346002457
:100EC000002600250020A1F510676A3F00D100BF71
:100ED0001846C1F3421401F01F06012707FA06F570
:100EE000012C01D10C3004E0022C01D1103000E0C3
:100EF00014301AB107682F43076002E00768AF4358
:100F00000760F0BD1AB1838A0B43838202E0838AB3
:100F10008B4383827047028A4FF6F0731A40028235
:100F2000028A0A430282704782894FF2FF731A4095
:100F3000828182890A438281704721B1828942F08D
:100F40000202828104E082894FF6FD731A40828199
:100F50007047028A4FF6DF731A400282028A0A4300
:100F60000282704721B1028A42F48042028204E088
:100F7000028A4BF6FF731A4002827047C1F30802DF
:100F80008280704701468888C0F3080070478189D5
:100F900041F0010181817047028BD2B20283028B42
:100FA00042EA012202837047028B02F47F420283ED
:100FB000028B0A430283704721B1828A42F02002E9
:100FC000828204E0828A4FF6DF731A408282704781
:100FD00021B1828A42F01002828204E0828A4FF6B6
:100FE000EF731A408282704721B1828A42F0080270
:100FF000828204E0828A4FF6F7731A408282704739
:1010000021B1828942F40042828103E08289C2F3E5
:101010000E028281704721B1828A42F4006282828C
:1010200004E0828A4FF2FF731A4082827047828AFC
:101030004FF6FB731A408282828A0A43828270478B
:1010400021B1828A42F00202828204E0828A4FF653
:10105000FD731A408282704702460020B1F5007F7E
:1010600000D100BF13880B4201D0012000E0002016
:10107000704701F40072B2F5007F00D100BFCA438F
:101080000280704770B5024600240023002500202E
:10109000A1F510666A3E00D100BFC1F3421501F010
:1010A0001F03012606FA03F3012D02D1968933406E
:1010B00006E0022D02D1168A334001E0968A3340C1
:1010C0000C12012606FA04F41688344013B10CB150
:1010D000012000E0002070BD10B500220023A1F522
:1010E00010646A3C00D100BF0A1201249440A3B2EC
:1010F000DC43048010BD0000003801400044004083
:1011000000480040004C0040005000400948804723
:1011100009480047FEE7FEE7FEE7FEE7FEE7FEE7D9
:10112000FEE7FEE7FEE7FEE704480549054A064BF1
:10113000704700002D0400083101000898010020CC
:1011400098070020980300209803002010B56FF046
:101150000400FFF73BFA304800683049B0FBF1F07B
:101160002F4908700846007800EB4001C1EBC01021
:101170004FF6FF7101EAC0002A49088010BD014600
:10118000274A12784A434FF0E0235A6100229A61BD
:101190001A46126942F001021A6100BF4FF0E022C4
:1011A000106910F0010F02D010F4803FF6D04FF01C
:1011B000E022126922F001024FF0E0231A610022BE
:1011C0009A6170470146174A12884A434FF0E0235C
:1011D0005A6100229A611A46126942F001021A61AC
:1011E00000BF4FF0E022106910F0010F02D010F4A0
:1011F000803FF6D04FF0E022126922F001024FF05A
:10120000E0231A6100229A61704700BF0100A0F13B
:101210000100FBD1704700000400002000127A009A
:101220002C0000202E00002070B504460D46E1B2CF
:101230003048FFF7A3FE00BF80212E48FFF70CFFC8
:101240000028F9D0204670BD00B587B0012144F2D6
:101250000500FFF7EFFC4FF40070ADF81800032015
:101260008DF81A0018208DF81B0006A92248FFF7F8
:101270002BFA4FF48060ADF8180004208DF81B00A5
:1012800006A91D48FFF720FA4FF4C060FFF74EF99A
:1012900025208DF8140000208DF8150001208DF810
:1012A00016008DF8170005A8FFF745F94FF4165002
:1012B00001900020ADF80800ADF80A00ADF80C0070
:1012C000ADF810000C20ADF80E0001A90948FFF799
:1012D0005CFD01210748FFF7E4FD012240F22551A2
:1012E0000448FFF7EAFD40210248FFF7C2FE07B0BD
:1012F00000BD000000380140000801400FB404495F
:1013000010B503AA029800F03FFB10BC5DF814FB77
:10131000900000202DE9F0410E4604460020206296
:101320002046E168884730B3252805D0D4E901215B
:101330009047206A401CF2E7E16820460027884772
:10134000050018D0A5F14100192802D820354FF426
:1013500000673246294620462760FEF723FF40B14A
:10136000012804D0F61D26F007060836D8E7361DFA
:10137000D6E72846DAE7206ABDE8F0812DE9F0419A
:101380000646002410687529314616A511D0AFF322
:101390000080002803DAC0F1000013A507E03168DF
:1013A0008A0701D511A502E0490704D510A501243B
:1013B00001E0AFF3008000210A2306F1240707E0D3
:1013C000B0FBF3F203FB1200303078541046491C96
:1013D0000028F5D123462A463046BDE8F04100F00A
:1013E00066B80000000000002D0000002B00000087
:1013F0002000000070B5044621461068AFF300805D
:10140000002104F1240508E000F0070202F1300297
:101410006A5401F101014FEAD0000028F4D10346DB
:10142000206808A2050708D500F02000084304D072
:10143000E069012304A2401EE0612046BDE870403F
:1014400000F035B8000000003000000070B5044620
:101450000D4621461068AFF300802188090502D5AA
:10146000104A7A4402E00F4A7A440E32002104F115
:10147000240307E000F00F064FEA1010965D5E545B
:1014800001F101010028F5D103462078000704D5B9
:10149000702D02D009B1113202232046BDE8704000
:1014A00000F005B8781900007047704770472DE9C3
:1014B000F0470D4699469246044600F1240801681B
:1014C000880604D5E06921F01001216000E00120C8
:1014D000A84202DDA0EB050700E00027A16907EBA9
:1014E000050202EB0900A1EB0000A0612078C00614
:1014F00002D42046AFF30080002608E0D4E90121A1
:101500001AF806009047206A401C761C20624E455F
:10151000F4DB2078C0060AD52046AFF3008006E051
:10152000D4E9012130209047206A401C2062381EF7
:10153000A7F10107F4DC07E0D4E9012118F8050060
:101540009047206A401C2062281EA5F10105F3DCAB
:101550002046AFF300802078000602D50220BDE8C7
:10156000F0870120FBE770472DE9FF4F0C461E4630
:101570004FF0FF378BB0D2E90001DDF860800A90B0
:101580008A46C1F30A5505B93D46002108464FF089
:101590000000BAF1000F00F4400005DA00EB800013
:1015A0004FF4400101EA50004FEA9059B9F1010FA0
:1015B00000DDB9460A9850EA4A000ED044F61050B1
:1015C000A5F2FF3545432F14B8F1000F1ED0754228
:1015D000291E1EDDC9F100021CE0B8F1010F4FF019
:1015E000000001D0302103E0F24305E02154401C0B
:1015F000B042FBDB30460022002121540B99C1F898
:101600000880C1E900200FB0BDE8F08FBD1B6D1C44
:10161000DEE74A4600DA694206A800F069FA06AB3E
:1016200007CB03AB07C350460A9900F079FF8DE85A
:101630000700A0F500501F3800900398002D09DD29
:1016400042F21F014A46084403A90390684601F08C
:10165000D8F908E0A0F500504A461F3803A90390C6
:10166000684601F0E2F98DE807000004000C03D0A1
:101670004FF0FF30410800E01046B8F1000F03D0F2
:101680000022009215461FE0751E06D400F092F964
:1016900002F1300262556D1EF8D5B34601220843AF
:1016A00002D000227F1C04E02078302801D10022E3
:1016B0007F1E002A099787D01DE0112D07DA00F060
:1016C00079F9303262556D1C50EA0102F5D10843B8
:1016D0000FD10021681E05E0235C625C6354491C45
:1016E0002254401E8142F7DBAB46A81B401E0990E6
:1016F00001E0009848B1002004F80B000B98099A0B
:10170000C0F80880C0E9002B7DE711264FF00008E3
:101710005AE72DE9F04F88460446D21D22F0070112
:1017200091B0D1E90001CDE90A0101F0B4FA024615
:101730000B98C00F01D02D2007E02068810701D54C
:101740002B2002E0202101EAC000032A099001D0E9
:10175000072A05DB03464146204600F089F90FE1E0
:101760002078800601D5E06900E00620B8F1650F19
:10177000814606D0B8F1660F18D0B8F1670F72D164
:1017800032E00020B9F1110F009001DB112301E0DC
:1017900009F101030AAA01A90CA8FFF7E5FEDDE99A
:1017A0000C70002609F10105834648E001204B46F4
:1017B00000904FF000470AAA01A90CA8FFF7D4FE39
:1017C000DDE90DB00C995D46002618B909F101005C
:1017D00001EB0005B9EB050003D4C0F1FF3609F1B8
:1017E0000105A5EB09002BE0B9F1010F01DA4FF07B
:1017F00001090020B9F1110F0090484601DD1123C5
:1018000000E003460AAA01A90CA8FFF7ADFEDDE936
:101810000C704D4600268346207800070AD4AB455D
:1018200000DA5D4601A8012D04DD411911F8011C03
:10183000302907D04F4502DA17F1040F04DA0120EE
:10184000824610E06D1EEEE7002F02DCED1B3E44E9
:1018500003E0781CA84200DD0546A7EB060000F176
:10186000010A4FF000472078000703D4AA4501DBA6
:101870004FF0FF3A0021B7F1004F0DF143088DF80A
:10188000431023D002202B23002F01DA7F422D2387
:101890004FF00A0C011EA0F1010000DC4FB197FBD4
:1018A000FCF10CFB11720F4602F1300208F8012D19
:1018B000F0E7A8F1010003702188090501D5452151
:1018C00000E06521A0F1010800F8011C09980FA9AA
:1018D000A1EB080707F1070700B1012000EB0501A4
:1018E00001EBEA70A1693844A1EB0000A0F101000E
:1018F000A0612078C00602D42046AFF3008009988A
:1019000030B1D4E901219047206A00F10100206242
:101910002078C00620D52046AFF300801CE0002EC2
:1019200004DBB34502DD01A8805D00E03020D4E98E
:1019300001219047206A761C401CBAF1010A2062FE
:101940000AD100F033F8C0680168405CD4E9012195
:101950009047206A401C2062281EA5F10105DEDCAC
:1019600007E0D4E9012118F8010B9047206A401CD8
:101970002062381EA7F10107F3DC2046AFF3008098
:10198000022011B040E60000074B70B50D467B44C5
:1019900000F05BF80446284600F01CF910B14FF047
:1019A000FF3070BD204670BD97F8FFFF00487047BC
:1019B0005801002030B5B0F10A024FEA900E71F1E3
:1019C00000034EEA817EB0EB0E0061EB91014FEA1D
:1019D000101E4EEA017E10EB0E0041EB11114FEA92
:1019E000102E4EEA016E10EB0E0041EB11214FEA72
:1019F000104E4EEA014E10EB0E0041EB1141401823
:101A000041F100014FEAD00040EA41704FEAD101B4
:101A100010EB80054FEA810444EA907444EB010422
:101A20006D1944EB0404521BA3414FF0000348BF5F
:101A30000A3200D530BD401C41F1000130BD00002C
:101A400001694A1C02610878704700B58FB0CDE982
:101A500001310021059105497944CDE90310114672
:101A60006846FFF757FC0FB000BD0000E5FFFFFF21
:101A70002DE9F0411F46044603260168072A01F4B8
:101A8000006004DB08B116A505E016A503E008B167
:101A900015A500E015A521F010002060A069C01E6A
:101AA000A0610FB1401EA0612046AFF300804FB18E
:101AB000D4E9012138469047206A401C2062C01CAE
:101AC000206206E0206AFAE7D4E9012115F8010B4B
:101AD0009047761EF8D22046AFF30080BDE8F08133
:101AE0004E414E006E616E00494E4600696E6600C2
:101AF0002DE9F047814616468AB035487844D0E94A
:101B0000002380680092CDE90130314878440C38D8
:101B1000D0E90223006903924FF03702CDE9043087
:101B200041F69B30014491FBF2F0A0F1800502FBED
:101B300010141B3C02D56442012000E00020DFF8B5
:101B400090A080460027FA44AAF1C60A0DE0E007FB
:101B500009D03246684607EB47010AEB810100F0E5
:101B600064FF8DE8070064107F1C002CEFD1184F34
:101B70007F44B43F17E0E80713D007EB04100DF1E2
:101B8000180A90E80E00AAE80E00C068F04201D1E1
:101B900098190890324606A903A800F046FF03AB47
:101BA00007C36D10641C002DE5D132466946B8F1BB
:101BB000000F03A802D000F024FF01E000F035FF81
:101BC000C9E90001C9F808200AB0BDE8F0870000A3
:101BD00084130000007B00F08000704710B542487D
:101BE000542100F0E8F94148542100F0E4F940485C
:101BF000542100F0E0F93F493B483C4A3F4B086024
:101C00003D490A603A491960531C0365481C106538
:101C1000012008653B48344A39A1784400F022F994
:101C200020B9384878440A3800F0BEF937482F4ABE
:101C300035A1784400F016F920B9344878440A38C0
:101C400000F0B2F932482A4A2FA1784400F00AF98C
:101C500020B92F4878440A3800F0A6F940232248DA
:101C6000DC000021224600F0D9F820B12548784454
:101C7000543800F099F91D4822464023002100F015
:101C8000CDF820B121487844543800F08DF9184837
:101C900022461023002100F0C1F8002806D01C487D
:101CA0007844BDE81040563800F07EB910BD1048A9
:101CB00070B5006D20F001040B4800F049F90B48A5
:101CC00000F046F90A4800F043F909E0206D20F0E1
:101CD0000105204600F03CF9204600F078F82C463B
:101CE000002CF3D170BD00003C00002090000020CB
:101CF000E4000020300000203400002038000020E4
:101D0000720000007E120000770000006A120000DE
:101D1000561200000EB5CDE9000100F043FB029021
:101D200069460120ABBE0EBD08B569460090022091
:101D3000ABBE08BD1FB58DE8070069460520ABBEE8
:101D400004B010BD1FB58DE80F0069460620ABBE7C
:101D5000F6E708B5694600900920ABBE08BD1CB582
:101D6000CDE9000169460A20ABBE1CBD704708B52D
:101D7000694600900C20ABBE08BD000000487047CB
:101D8000380100207546FFF7F9FFAE4605006946A9
:101D9000534620F00700854618B020B5FFF7C4F978
:101DA000BDE820404FF000064FF000074FF000085C
:101DB0004FF0000B21F00701AC46ACE8C009ACE8DD
:101DC000C009ACE8C009ACE8C0098D46704770B5E1
:101DD0000446051F00F058F90068002C14BF446841
:101DE00070BD002C18BFAC423CBF20466468F8D3DD
:101DF00001680A18AA4218BF456003D12A6805463F
:101E00001144016028684119A1421CBF6C6070BD7B
:101E10006168696021680844286070BD70B5C46855
:101E2000A50713D0650211D4B2F5807F09D0B2F5B1
:101E3000007F06D0B2F5806F08D1012300F12401A4
:101E400006E05D1E6FF07F46B54201D3012070BDF4
:101E50000161C361416024F470611143C1600020DD
:101E600070BD00002DE9F0410C46074616461046AD
:101E700000F06EF82078611C61280AD0722802D028
:101E800077283CD102E00125002405E00225042446
:101E900002E0082448F2020511F8010B2B2806D0B5
:101EA000622809D011F8010C74280AD00BE045F023
:101EB000030544F00204EFE745F0040544F0010493
:101EC000EAE744F0100438462146FFF723FF411C9F
:101ED00015D00021316171604FF40071F560F1613E
:101EE0007061200704D530460222002100F046F937
:101EF000306D40F0010030653046BDE8F0810020D3
:101F0000FBE72DE9F0410D460646104C206DC10758
:101F100004D0410804D020F00104F7E722460EE087
:101F2000542000F0FCF807000ED0206D47F00101AE
:101F3000084354212065384600F03DF83A462946CA
:101F40003046BDE8F0418DE70020D6E73C00002098
:101F50002DE9F04704464FF000094FF0FF37C56800
:101F6000D4E90486A80707D0204600F0B7F9304628
:101F7000FFF7DAFE002802DA3846BDE8F0872805C8
:101F800002D54046FFF723FF4C21204600F013F80E
:101F9000206D20F0010020654846EEE70446AFF3CF
:101FA00000802046FEF729F910B500F0E1F9BDE800
:101FB000104000F0D7B94FF0000200B51346944628
:101FC0009646203922BFA0E80C50A0E80C50B1F191
:101FD0002001BFF4F7AF090728BFA0E80C5048BFA5
:101FE0000CC05DF804EB890028BF40F8042B08BF43
:101FF000704748BF20F8022B11F0804F18BF00F83F
:10200000012B70474FF0013C50F8042B51F8043B72
:102010009A4221D1A2EB0C03934313EACC1317D1BC
:1020200050F8042B51F8043B9A4215D1A2EB0C0353
:10203000934313EACC130BD150F8042B51F8043B13
:102040009A4209D1A2EB0C03934313EACC13DBD0E1
:102050004FF00000704700BFD01A01BAB1FA81F109
:1020600001F0180122FA01F0CB40C1F12001DBB2EE
:10207000C0B2C01A2CFA01F3D11A914311EAC3116C
:10208000E6D17047704700000048704740010020CB
:10209000704770477047704738B504460A460020BD
:1020A0006946AFF30080002808BF38BD024600999A
:1020B000204600F0A4F9012038BD012000F0F5B958
:1020C000F8B5AFF30080054600200C46102000BF95
:1020D0000646A819A0420DD9324669460020AFF342
:1020E0000080070008BF00F0E0F90098A04218BF88
:1020F0000546C419FFF7C8FF05600746F01D20F02C
:1021000007004619284600F073F9B44208BFF8BD2D
:10211000A21B31463868BDE8F84000F070B970B5D0
:102120000646FFF7B1FF056806F10B0020F0070433
:10213000B4429CBF002070BD2B466A68BAB11068DB
:10214000A04210D304F1080188423CBF5068586097
:1021500007D35168101941601168091B016058606C
:102160001460101D70BD13465268002AE7D1214645
:102170002846FFF791FF0028DED170BD2DE9F04120
:10218000044616460D464769007B80072ED0384628
:10219000FFF7DFFD50BB3EB3012E02D0022E25D14A
:1021A00004E0204600F045F905441DE03846FFF7FD
:1021B000DEFDE168002841F01001E16005DA20460B
:1021C00000F058F80120BDE8F081C9030BD5626822
:1021D000E16A914200D81146A26911442269891A24
:1021E000814200DD08460544002D01DA0220EAE7BD
:1021F000E16A6068E268814206D29103E06203D539
:1022000022F4003141F01002A6690027AE4213DC2F
:10221000E16A814201D90B4600E0034603EB060C5C
:102220002369ACEB030CAC4506DD814201D98C4639
:1022300000E084469C4505D1A760276042F020005D
:10224000A5620DE0AD1BE669AE1B8142A66000D918
:102250000846C01A281A20605819606022F0200031
:1022600003490840E060002084F84870ABE70000B4
:10227000BFCFD7FFC16821F4001141F08001C160D8
:1022800000218160016070472DE9F04781461446C6
:102290000E464FF0FF383248D5685769054209D0DD
:1022A0003846A169FFF75BFD002811DB2C48C043CD
:1022B0000540E5602B46324649463846FFF73AFD71
:1022C000A16920F00042B21A11440028A16103D094
:1022D0002046FFF7CFFF4046BDE8F08770B50446C3
:1022E0000569C06A6168884200D80846E16821F43F
:1022F0002011E160C90312D5A84208D02246411B33
:102300002846FFF7C1FF10B14FF0FF3070BD00202D
:10231000E562C4E90150E06820F48030E06000200C
:1023200070BD10B50446C06820F02000E060A16ACE
:10233000A06988420DD02046FFF7D0FFE06820F466
:10234000405040F01000E060A06AA0612069E062A7
:10235000606044F24001E0688843E06010BD000026
:1023600010000200002801D000F03CB870470000C7
:1023700010B5014602A000F07FF8012010BD00005A
:1023800053494752545245443A2052656469726534
:1023900063743A2063616E2774206F70656E3A2013
:1023A0000000000010B5431C02E010F8011B71B1E1
:1023B0008107FAD14FF0013202C88C1A8C4314EA1B
:1023C000C211F9D0C01A0A0603D0C01E10BDC01A2F
:1023D00010BD0A0401D0801E10BD0902FCD0401EB1
:1023E00010BD000001491820ABBEFEE72600020028
:1023F00000210160C0E901107047102070470346BA
:1024000040688C46002818BF88423CBF034640689D
:10241000F8D318681844884207D00CF1030020F064
:102420000700001D411A521A0146081D0A60FFF7F5
:10243000CEBC10B50146C268900703D0900607D500
:10244000886A0BE000F040F801210160881E10BD91
:102450008B69486818440B69A0EB030091F8483079
:1024600023B191F84910A0EB010010BD1103FCD578
:102470000028FADD401E10BD70B505460C460A2046
:1024800000E06D1C00F018F835B128780028F8D16C
:1024900002E0641C00F010F814B120780028F8D194
:1024A000BDE870400A2000F007B810B500F010F841
:1024B000BDE81040FFF756BF08B569468DF800002B
:1024C0000320ABBE08BD0000004870473801002063
:1024D00010B5012805D0002103A0FFF7CDFF012092
:1024E00010BD09A1F8E7000053494752544D454D2E
:1024F0003A204F7574206F662068656170206D65A5
:102500006D6F7279000000003A2048656170206D9F
:10251000656D6F727920636F727275707465640097
:102520005FEA400C08BF91F0000F4FEA8C234FEA9E
:10253000C12243EA51514FEA1C5018BF00F5F04048
:102540004FEA300018BF41F000415FEA6C5C00F0D8
:102550002980BCF1FF3F08BF40F080407047130C5A
:1025600006BF12044FF0100C4FF0000C130E04BF06
:1025700012020CF1080C130F04BF12010CF1040C31
:10258000930F04BF92000CF1020CD30F04BF520052
:102590000CF1010C11464FF00002A0F11F00A0EB5E
:1025A0000C00704711F0004F08BF704731F0004138
:1025B0003FF4D5AF0B0C06BF09044FF0100C4FF0E1
:1025C000000C0B0E04BF09020CF1080C0B0F04BF2A
:1025D00009010CF1040C8B0F04BF89000CF1020CF3
:1025E000CB0F04BF49000CF1010CCCF12003A0EB90
:1025F0000C0022FA03F302FA0CF241EA030100F1A3
:102600000100704720F07F4C80EA030023F07F47F1
:10261000ACEB070303F57C5300F0004003F1FF032C
:102620002DE980494FEA154B09B44FEA144325EAD6
:102630000B4E24EA03480FF2042606EB1327490841
:102640003E785FEA320203FB0667C7F5000707FB27
:1026500006F64FEA54374FEAD64606F1020607FB64
:10266000066CCCF1005C4FEA1C472CEA074C07FBD8
:1026700006F40CFB06F504EB15464FEA961634BF3C
:1026800000204FF000404FEAD13706FB07FC4FEA2D
:102690001C4C0CFB0BF7D21B03FB0CF761EB070187
:1026A0000CFB0EF7B0EB074072EB17420CFB08F780
:1026B00034BFA2EB0742B2EB074261EB17414FEA8E
:1026C0000C444FEA910706FB07FC4FEA1C4C0CFB3D
:1026D0000BF7B0EBC74072EB573203FB0CF734BF7C
:1026E000A2EBC742B2EBC74261EB57310CFB0EF7CE
:1026F000B0EBC70072EB57720CFB08F734BFA2EBCC
:10270000C702B2EBC70261EB5771039F4FEA8161C9
:1027100041EA921104EBCC044FEAD1374FEA8262CE
:1027200006FB07FC42EA90124FEA80604FEA1C4C1D
:102730000CFB0BF7D21B03FB0CF761EB07010CFB47
:102740000EF7B0EB074072EB17420CFB08F734BFF3
:10275000A2EB0742B2EB074261EB17414FEA8C55FF
:102760004FEA910704EB9C2406FB07FC4FEA1C4C44
:102770000CFB0BF7B0EBC74072EB573203FB0CF7C7
:1027800034BFA2EBC742B2EBC74261EB57310CFB3F
:102790000EF7B0EBC70072EB57720CFB08F734BFB3
:1027A000A2EBC702B2EBC70261EB577115EB4C25E8
:1027B0004FEA816141EA92114FEA82624FEAD137D2
:1027C00042EA901206FB07FC44F100044FEA8060E5
:1027D0004FEA1C4C0CFB0BF7D21B03FB0CF761EB15
:1027E00007010CFB0EF7B0EB074072EB17420CFB36
:1027F00008F734BFA2EB0742B2EB074261EB174187
:1028000015EB1C154FEA813141EA92414FEA8232C1
:1028100042EA90424FEA80304FEA0C7644F10004DD
:1028200048EA03434EEA0B484FF0000EB2EB080CA7
:1028300071EB030724BF624639464EEB0E0E4FF094
:10284000000B0018524149414BEB0B0BB2EB080C4B
:1028500071EB03077BF1000B24BF624639464EEB58
:102860000E0E4FF0000B0018524149414BEB0B0B81
:10287000B2EB080C71EB03077BF1000B24BF62463F
:1028800039464EEB0E0E51EA020718BF46F001061C
:1028900016EB0E7655F1000254F1000103D5BDE8A8
:1028A0008901BDE80088BDE88901BDE80048B61986
:1028B000524141EB0101A3F10103704780807F7E0B
:1028C0007D7C7B7A797877767675747372717170A6
:1028D0006F6E6E6D6C6C6B6A6A6968686766666558
:1028E0006464636362616160605F5F5E5E5D5D5CE6
:1028F0005C5B5B5A5A595958585757565655555557
:102900005454535352525251515050504F4F4F4EB6
:102910004E4D4D4D4C4C4C4B4B4B4A4A4A49494904
:102920004848484747474746464645454544444446
:10293000444343434342424242414141002B26D457
:10294000770021D01CB54FEA370703B44FF01000D1
:102950004FF010014FF000000FBCBDE810400BF12C
:10296000010BBBF1010F08BF5FEA170722BF12F18D
:10297000010211F101014FF0004143F1000300F0A9
:10298000004043EA00007047F9D35708DAE746EA07
:10299000064613F1400F4FEA16461FDD13F1200FD4
:1029A000DFBF16430A46002120335B42C8D0C3F183
:1029B000200746EA064602FA07F74FEA164646EAB5
:1029C0000706C3F1200722FA03F201FA07F721FAFA
:1029D00003F14FF0000342EA0702B1E746EA0206BC
:1029E00046EA06464FEA164646EA0106BCBF46EAF4
:1029F0000646360C4FF000034FF000024FF0000186
:102A00009EE72DE9C048934630B491E8380007C8E6
:102A100031EA400C48BF34EA430C03D5FFF7F2FD1E
:102A2000FFF78CFFF0BCBDE800882DE9C048934655
:102A300030B491E8380007C810F0804F08BF13F099
:102A4000804F03D100F005F8FFF778FFF0BCBDE838
:102A5000008820F07F4780EA030023F07F4C07EBDB
:102A60000C03A3F57C5300F00040A3F1FE0392F0A9
:102A7000000F00F0B38095F0000F00F077802DE993
:102A800001494FEA11404FEA144621EA004800FB91
:102A900006FC24EA064708FB06F607FB08F800FBDD
:102AA00007F718EB06484CEB164C4FEA124B18EBA5
:102AB00007484FEA15464CEB174022EA0B4E0BFB3A
:102AC00006FC25EA06470EFB06F607FB0EFE0BFB8F
:102AD00007F71EEB064E4CEB164C4FF000061EEBB4
:102AE000074E4CEB174B18EB0B0840F1000018EBAE
:102AF0000E0B58EB000840F100008F1A4FF0000158
:102B00003CBFC943661B14BFB5EB040C00213CBF9E
:102B1000C943F61B4FEA17444EEA8E0E27EA0445D6
:102B20004FEA1C4704FB07622CEA074C05FB07F73A
:102B30000CFB05F604FB0CFC16EB074642EB1742B8
:102B400016EB0C4642EB1C421BEB060658EB02024E
:102B5000414146EA9E0601D5BDE80189B6195241B8
:102B600041EB0101A3F10103BDE801894FEA1445DE
:102B70004FEA114724EA054621EA074C05FB07F412
:102B800006FB07F70CFB06F105FB0CFC11EB0741FC
:102B900044EB17444FEA124711EB0C4144EB1C4441
:102BA00022EA074C05FB07F206FB07F70CFB06F6CB
:102BB00005FB0CFC16EB074642EB174216EB0C46E6
:102BC00042EB1C456A1854F1000148BF7047B61922
:102BD000524141EB0101A3F10103704795F0000F51
:102BE00037D04FEA11424FEA144721EA024624EA5D
:102BF000074C02FB07F106FB07F70CFB06F402FB90
:102C00000CFC14EB074441EB17414FEA154714EB5A
:102C10000C4441EB1C4125EA074C02FB07F506FB7F
:102C200007F70CFB06F602FB0CFC16EB074645EB20
:102C3000174516EB0C4645EB1C42121951F10001E9
:102C400048BF7047B619524141EB0101A3F101039E
:102C500070474FEA14454FEA114724EA054621EA36
:102C6000074C05FB07F106FB07F70CFB06F24FF0DC
:102C7000000605FB0CFC12EB074241EB174112EB7F
:102C80000C4251EB1C4148BF7047921841EB0101C7
:102C9000A3F101037047490050EAC12018BF042086
:102CA0004A0D18BF40F0010040F2FF72B2EB515FD5
:102CB00008BF40F00200012808BF0520704700004F
:102CC00010B500290AD00878002807D005487844B4
:102CD000FFF798F9002801D0002010BD0248784481
:102CE00010BD0000FA010000F20100000808A0F584
:102CF00000114FEA3101704743004FEAD30C4FEA0D
:102D00003C0C43401FBF40070CF1605113F0FE4FD5
:102D100070471CF0006F03D100200CF00041704799
:102D20000CF0004343EA507010B540EACC0000F0CC
:102D30000EF800BF000000924FEA0001FFF7D6BF77
:102D40004FF000414FF00000A1F5002170470EF157
:102D5000020E2EF0030E5EF8044B244204D44FEA18
:102D60004102B2F17F4F11D84FEA4003B3F17F4FD8
:102D70000CD80ED14FEAD07CB2F17F4F0CEB4C0C4B
:102D80000CF1020C08BF4CEBD17C04E04FF0080CB6
:102D900001E04FEAD17C0CEB4C0324FA03F404F07D
:102DA0000704B4F1040C06D20EEB840CBDE810400D
:102DB0004CF0010C6047DFE80CF0070802024FF00E
:102DC0000040A0F5800010BD0846420018BFD2F1B7
:102DD000807288BF00F0004010BDFEF79ABC303111
:102DE0003233343536373839414243444546403032
:102DF00058003031323334353637383961626364E4
:102E0000656640307800000002400000000000A02D
:102E10000000000005400000000000C800000000A5
:102E20000C4000000000409C000000001940000021
:102E30000020BCBE0000000034400000BFC91B8E53
:102E400000000004B5400000504BCFD06607E2CF31
:102E5000010000006C4100003E8251AADFEEA73461
:102E600001000000D9420000DCB5A0E23A301F9713
:102E7000FFFFFFFFB4450000FD25A0C8E9A3C14F37
:102E8000FFFFFFFFFF3F0000000000800000000088
:102E9000FF3F000000000080000000003A74740052
:102EA0003A7474003A747400E42E000800000020A4
:102EB0003C0000006C010008202F00083C000020AE
:102EC0005C070000880100081C00000043000000AF
:102ED000F8FFFFFF0C0000000E0000000F000000D4
:102EE0002E0000000000000000A24A0400000000C4
:102EF00000000000010203040607080900000000AA
:102F0000010203040102030406070809020406087B
:102F100000000000000000000000000000000000B1
:040000050800110DD1
:00000001FF
