:020000040800F2
:10000000E8160020BD160008FD040008FF040008E3
:1000100003050008070500080B05000800000000A4
:100020000000000000000000000000000F050008B4
:100030001105000800000000130500081505000860
:10004000D7160008D7160008D7160008D7160008DC
:10005000D7160008D7160008A50E0008D716000806
:10006000E30E0008D7160008D7160008D7160008B8
:10007000D7160008D7160008D7160008D7160008AC
:10008000D7160008D7160008D7160008D71600089C
:10009000D7160008D7160008D7160008D71600088C
:1000A000D7160008D7160008D7160008D71600087C
:1000B000D7160008D716000895100008D7160008B4
:1000C000D7160008D7160008D7160008D71600085C
:1000D000D71600082715000833160008D7160008A1
:1000E000D7160008D7160008D7160008D71600083C
:1000F000D7160008D7160008D7160008D71600082C
:10010000D7160008D7160008D7160008D71600081B
:10011000D7160008D7160008D7160008D71600080B
:10012000D7160008D7160008D7160008D7160008FB
:1001300000F002F800F05AF80AA090E8000C82449F
:100140008344AAF10107DA4501D100F04FF8AFF27C
:10015000090EBAE80F0013F0010F18BFFB1A43F0A5
:1001600001031847C8470000E84700000A444FF061
:10017000000C10F8013B13F0070408BF10F8014B06
:100180001D1108BF10F8015B641E05D010F8016B4B
:10019000641E01F8016BF9D113F0080F1EBF10F8AF
:1001A000014BAD1C0C1B09D16D1E58BF01F801CBD2
:1001B000FAD505E014F8016B01F8016B6D1EF9D555
:1001C0009142D6D37047000000230024002500266A
:1001D000103A28BF78C1FBD8520728BF30C148BFAA
:1001E0000B6070471FB51FBD10B510BD03F018F8A8
:1001F0001146FFF7F7FF00F009F803F036F803B4F3
:10020000FFF7F2FF03BC01F035F9000008B501F07B
:10021000C7F800F030FD4FF4165001F039F94FF4F3
:10022000165001F0B0F900F0EBFD00F085FE012161
:10023000080201F0EDFD3F20ADF8000004208DF82C
:10024000030003208DF802006946A24801F024FB58
:1002500040F6B83001F0E1F83BE19E4801F0B8FB10
:100260009D4908809B4801F0B3FB00F0020040BBB1
:100270004FF4FA7001F0ADF8964801F0A9FB00F0D8
:100280000200F0B90120954908700021800702F0B2
:100290007DFF00214FF0804002F07AFF40F2DC51F8
:1002A0004FF0804002F076FF00214FF0804002F0D6
:1002B00073FF00BF874801F08BFB00F008000028A7
:1002C000F8D186480078002879D18348007800F07A
:1002D0003800382805D08048007800F03800102811
:1002E00014D14FF4FA61880602F050FF40F6340151
:1002F000080702F04FFF00214FF0804002F04CFF52
:1003000077A20021084600F056FC53E072480078BE
:1003100000F01000C8B97048007800F02000A0B1CB
:100320004FF4C861080602F031FF00214FF0804011
:1003300002F030FF4FF47A71C80602F02DFF6BA275
:100340000021084600F037FC34E06348007800F0F4
:100350000800A0B94FF4FA61880602F017FF40F2D6
:10036000DC514FF0804002F015FF00214FF080403B
:1003700002F012FF5AA20021084600F01CFC564869
:10038000007800F02000A8B94FF4AF614FF0804032
:1003900002F0FCFE40F698014FF0804002F0FAFEB9
:1003A00000214FF0804002F0F7FE4DA200210846E8
:1003B00000F001FC012001F030F88AE0FFE7464838
:1003C000007800F03800382805D04348007800F065
:1003D0003800102819D14FF4FA61880602F0D6FED1
:1003E00000214FF0804002F0D3FE40F634010807B0
:1003F00002F0D0FE00214FF0804002F0CDFE38A286
:100400000021084600F0D7FB63E03348007800F095
:100410001000F8B93048007800F00800D0B1002191
:100420004FF0804002F0B2FE4FF416714FF0804062
:1004300002F0AEFE40F2A461080702F0ABFE00211C
:100440004FF0804002F0A8FE2AA20021084600F0EA
:10045000B2FB3EE02048007800F00800C8B94FF435
:10046000FA61880602F092FE00214FF0804002F00F
:100470008FFE40F2DC514FF0804002F08BFE0021F5
:100480004FF0804002F088FE15A20021084600F0DF
:1004900092FB1148007800F02000D0B94FF4AF6112
:1004A0004FF0804002F072FE00214FF0804002F0D9
:1004B0006FFE40F698014FF0804002F06BFE002185
:1004C0004FF0804002F068FE05A20021084600F0CF
:1004D00072FBC2E600200140080C00200B0C00203B
:1004E0007374726169676874000000006C656674FB
:1004F000000000007269676874000000704700BF68
:10050000FEE700BFFEE700BFFEE700BFFEE7704763
:1005100070477047704700000CB5002001900090B4
:100520006C48006840F480306A49086000BF694840
:10053000006800F4003000900198401C0190009881
:1005400018B90198B0F5A06FF1D16248006800F4C5
:10055000003010B10120009001E0002000900098D0
:10056000012843D15C48006840F010005A490860F7
:100570000846006820F0030008600846006840F064
:100580000200086053484068524948600846406885
:1005900048600846406840F480604860084640680B
:1005A00020F47C1048600846406840F4E810486039
:1005B0000846006840F08070086000BF4548006849
:1005C00000F000700028F9D04248406820F0030095
:1005D000404948600846406840F00200486000BF5B
:1005E0003C48406800F00C000828F9D10CBD10B55B
:1005F000FFF792FF10BD10B53648006840F00100CB
:100600003449086008464068344908403149486028
:1006100008460068324908402E49086008460068CC
:1006200020F4802008600846406820F4FE004860FE
:100630004FF41F008860FFF7DAFF4FF00060294990
:10064000086010BD10B5002100200022214B5B681E
:1006500003F00C0121B1042906D0082928D107E0B4
:10066000214B224C236027E01F4B204C236023E0CA
:10067000184B5B6803F47010164B5B6803F4803210
:10068000022303EB904022B9194B4343174C2360DC
:100690000DE0104B5B6803F4003323B1144B43436C
:1006A000124C236003E0104B4343104C236003E0E3
:1006B0000D4B0E4C236000BF00BF064B5B68C3F3BD
:1006C00003130C4CE15C094B1B68CB40074C2360C7
:1006D00010BD000000100240002002400000FFF8A2
:1006E000FFFFF6FE08ED00E000127A000C0C00207F
:1006F00000093D00100C002070B504460E4626B1DE
:100700000221FE4801F075F903E00221FB4801F0E7
:1007100072F91021FA4801F06EF9002517E0202146
:10072000F74801F068F904F0800020B18021F44816
:1007300001F05FF903E08021F14801F05CF920212C
:10074000EF4801F056F96006040E681CC5B2082D8A
:10075000E5DB1021EA4801F04CF90221E74801F0FD
:1007600048F970BD70B504460D4605F1B001C8B238
:100770000021FFF7C1FF102141EA14100021FFF70B
:10078000BBFF04F00F0141F001000021FFF7B4FFAF
:1007900070BD10B500218D20FFF7AEFF00211420A1
:1007A000FFF7AAFF0021AF20FFF7A6FF10BD10B58D
:1007B00000218D20FFF7A0FF00211020FFF79CFFF4
:1007C0000021AE20FFF798FF10BD70B5002419E09E
:1007D00004F1B001C8B20021FFF78EFF00210846E6
:1007E000FFF78AFF00211020FFF786FF002505E0B4
:1007F00001210020FFF780FF681CC5B2802DF7DBC8
:10080000601CC4B2082CE3DB70BD2DE9F041074643
:100810000E46904600250024A8F12000C5B27F2F87
:1008200002DD0027B01CC6B231463846FFF79AFFFA
:10083000002408E004EB0511B24A505C0121FFF7E7
:100840005BFF601CC4B2082CF4DB701CC1B23846DC
:10085000FFF788FF002409E004EB05110831A94ADD
:10086000505C0121FFF748FF601CC4B2082CF3DB89
:10087000BDE8F0812DE9F05F06460F4690461C4624
:10088000DDF828A04FF0000BE11704EB5171C910FF
:10089000A4EBC10131B92046E11704EB5171C1F35A
:1008A000C70506E02046E11704EB5171C910491C49
:1008B000CDB23D4615E029463046FFF753FFB1461D
:1008C0000BE059460BF1010B1AF801000121FFF76B
:1008D00013FF09F1010000F0FF09C145F1DB681CBD
:1008E000C5B2A542E7DBBDE8F09F38B5002410E0B3
:1008F00000250AE004EBC510401C8349085C04EBAA
:10090000C511814A5054681CC5B2082DF2DB601C29
:10091000C4B2802CECDB012407E000200121C1EBF4
:10092000C411794A5054601CC4B2092CF5DB7648D6
:1009300007237F22002100900846FFF79BFF38BD68
:1009400010B50246012000E050430B00A1F1010464
:10095000E1B2F9D110BD2DE9FF4F81B080461546B7
:100960001E460E9F4FF0000A00200090002D02DA74
:100970006D424FF0010A002432E0301B401EC1B22C
:100980000A20FFF7DDFFB5FBF0F00A21B0FBF1F222
:1009900001FB1209009898B9701EA04210DDB9F150
:1009A000000F0BD1BB4607EBDB71491001FB048143
:1009B000C8B220220299FFF728FF0FE00120009023
:1009C000BB4607EBDB71491001FB0481C8B209F19A
:1009D0003001CAB20299FFF718FF00BF601CC4B211
:1009E000B442CADBBAF1010F04D12D22404602996C
:1009F000FFF70BFF05B0BDE8F08F2DE9F04105468C
:100A00000C4616460DB9802501E0681EC5B2274682
:100A1000E01704EB5070C0F3C7012846FFF7A2FEB1
:100A2000284605EBD0714910A5EB410101290AD1F7
:100A3000E11704EB5171C91005EBC111324A505C4A
:100A40000121FFF759FE0EB1632E39D12046E71779
:100A500004EB5777FF10A4EBC70CFE2707FA0CF73F
:100A600021464FEAE47C04EB5C7C4FEAEC0CA4EBFF
:100A7000CC0CCCF108084FF0FF0C4CFA08FC47EA0C
:100A80000C0722464FEAE47C04EB5C7C4FEAEC0C5A
:100A900005EBCC1C0CF1010CDFF86C8018F80CC0D5
:100AA00007EA0C0723464FEAE47C04EB5C7C4FEA40
:100AB000EC0C05EBCC1C0CF1010C08F80C702AE0D6
:100AC0002046E31704EB5373DB1005EBC3135B1CE9
:100AD0000D4FFB5C2146E71704EB5777FF10A4EBA3
:100AE000C70C012707FA0CF73B43DFB22246E31796
:100AF00004EB5373DB1005EBC31307E0000C01405C
:100B000000080140FC3800085C0C00205B1CDFF88A
:100B1000DCC20CF803702746E11704EB5171C910D1
:100B200005EBC111491CB14A505C0121FFF7E4FDFE
:100B3000BDE8F0812DE9FC5F05460E4617461C46D0
:100B4000DDF83080384602F0DDFC0190A8493846D7
:100B500002F0F4FC834602F0D5FC642190FBF1F234
:100B600001FB1209B9F1000F01DB484601E0C9F1B0
:100B700000008246E01EC3B2CDF800803146284610
:100B8000019AFFF7E8FE0D2202EBC602D1B205EB97
:100B9000C402153AD0B20122FFF72FFF05EBC401C2
:100BA0001039C8B2022352463146CDF80080FFF713
:100BB000D2FEBDE8FC9F2DE9F04104460F461546E4
:100BC00000260EE0AA5D39462046FFF71EFE04F11E
:100BD0000800C4B2782C02DD0024B81CC7B2701C17
:100BE000C6B2A85D0028EDD1BDE8F0812DE9F04145
:100BF00080460E461546002731464046FFF7B2FDB7
:100C000000240AE07B4A02EB8511085D0121FFF711
:100C100073FD781CC7B2601CC4B2102CF2DB701CD0
:100C2000C1B24046FFF79EFD00240CE06900491C5C
:100C3000704A02EB4111085D0121FFF75DFD781C50
:100C4000C7B2601CC4B2102CF0DBBDE8F08138B52F
:100C5000002404E0002065490855601C84B2B4F506
:100C6000806FF7DB614808237F220021009008464F
:100C7000FFF700FE38BD08B50121042001F0C8F8D7
:100C8000B020ADF8000010208DF8030003208DF88F
:100C900002006946584800F0FFFDB021564800F0B8
:100CA000A8FE0121082001F0B3F840F20310ADF8CE
:100CB000000010208DF8030003208DF80200694623
:100CC0004E4800F0E9FD40F203114C4800F091FE5F
:100CD00001214A4800F08DFE642000F09EFB0121B6
:100CE000464800F088FEC82000F097FB01214348E9
:100CF00000F07FFE0021AE20FFF7FEFC0021084639
:100D0000FFF7FAFC00211020FFF7F6FC002140203D
:100D1000FFF7F2FC00218120FFF7EEFC0021CF203D
:100D2000FFF7EAFC0021A120FFF7E6FC0021C82024
:100D3000FFF7E2FC0021A620FFF7DEFC0021A8203F
:100D4000FFF7DAFC00213F20FFF7D6FC0021D3207B
:100D5000FFF7D2FC00210846FFF7CEFC0021D5208A
:100D6000FFF7CAFC00218020FFF7C6FC0021D92034
:100D7000FFF7C2FC0021F120FFF7BEFC0021DA20C2
:100D8000FFF7BAFC00211220FFF7B6FC0021DB20A0
:100D9000FFF7B2FC00214020FFF7AEFC002120202D
:100DA000FFF7AAFC00210220FFF7A6FC00218D20FE
:100DB000FFF7A2FC00211420FFF79EFC0021A420D5
:100DC000FFF79AFC0021A620FFF796FC0021AF2038
:100DD000FFF792FC0021AF20FFF78EFCFFF7F5FC38
:100DE00000210846FFF7BEFC08BD00005C0C002097
:100DF0000000C842EC3E000800080140000C014021
:100E00001FB50121412001F003F804208DF80300F3
:100E10000F20ADF8000003208DF80200694641481C
:100E200000F03AFD0021042000F04CFE012001906A
:100E300000208DF808000C208DF8090001208DF8A5
:100E40000A0001A801F05AFA0221042000F03AFE3B
:100E50000420019001A801F051FA4FF4A06000F0C5
:100E60004DFC06208DF80C0003208DF80D008DF848
:100E70000E0001208DF80F0003A800F044FC4FF491
:100E8000A06000F03BFC08208DF80C0003208DF8DA
:100E90000D008DF80E0001208DF80F0003A800F062
:100EA00032FC1FBD10B5012001F08EFA012817D1C8
:100EB00001F09BFA02211B4800F081FD40B900209F
:100EC0001949087019480068401C1849086007E073
:100ED00001201549087015480068401E1349086034
:100EE00010BD10B5042001F06FFA012818D10420BC
:100EF00001F07BFA08210B4800F061FD40B90020A9
:100F00000B4908700B480068401C0A49086007E05C
:100F100001200749087007480068401E054908601D
:100F200010BD000000180140280C0020200C0020FB
:100F3000290C0020240C002000B589B001210420D8
:100F400000F066FF0121084600F06FFF012108460E
:100F500000F05EFF18208DF823000F20ADF8200070
:100F600003208DF8220008A9FE4800F095FC40F609
:100F7000B830ADF818000220ADF814000020ADF82C
:100F80001A00ADF8160005A94FF0804001F00AFBE9
:100F90007020ADF804000120ADF806000220ADF885
:100FA0000C0001A9400701F03AFB0821C80601F036
:100FB00085FF01A94FF0804001F073FB0821C806AE
:100FC00001F085FF01A94FF0804001F0B7FB082137
:100FD000C80601F089FF01A94FF0804001F0F9FB3C
:100FE0000821C80601F089FF0121880701F036FEBB
:100FF00000214FF0804002F0C9F800214FF08040FE
:1010000002F0C6F800214FF0804002F0C3F8002142
:101010004FF0804002F0C0F80121042000F005FFED
:101020000121D14802F0F4F847F23050ADF8180031
:1010300040F2CF20ADF814000020ADF81A00ADF852
:10104000160005A9C84801F0ADFA0121C64801F013
:1010500005FE00220121C44801F01BFE4FF4A060F0
:1010600000F04CFB1E208DF8000000208DF80100E0
:1010700002208DF8020001208DF80300684600F080
:1010800042FB09B000BD0146002901DA4842704721
:101090000846FCE710B50121B34802F0B9F8002278
:1010A0000121B14801F0F5FDB0490968B04A126864
:1010B000881AFFF7E8FF032804DA01221146AA483C
:1010C00001F0E7FD10BD70B5AA490988AA4A128847
:1010D000881800EBD071C1F34F04C82C2FDDA4F1A8
:1010E000C80000EB800040F2DC51A1EB4000A249B7
:1010F0000988A04A1288891AC1EB0111084405B277
:10110000B5F5C86F01DD4FF4C865B5F57A7F01DA32
:101110004FF47A759948058040F2DC509849088070
:101120009648008881B24FF0804002F02FF8944832
:10113000008881B24FF0804002F02CF800BFC82C2C
:101140002FDAC4F1C80000EB800040F2DC51A1EBC3
:10115000400088490988884A1288891AC1EB011120
:10116000084405B240F2DC50854200DD0546B5F585
:10117000966F01DA4FF4966540F2DC507F490880A3
:101180007F4805800846008881B24FF0804001F01A
:10119000FDFF7B48008881B24FF0804001F0FAFFEC
:1011A00000BF0020734908807349088070BD00208B
:1011B00074490861C86048608860086072490861C5
:1011C000C86048608860086070472DE9F0470020DB
:1011D000664908606D49086000220121624801F0FB
:1011E00058FD6648008881B24FF0804001F0CEFF84
:1011F0006348B0F9004004EBD471481002F06DF878
:1012000007464FF03332624B02F07EF8054602F09B
:1012100037F81FFA80F949464FF0804001F0BAFFD5
:1012200000BF5248006859490968401AB0F5967FD6
:10123000F7DB012211464C4801F02BFDBDE8F08799
:101240002DE9F0410020494908605049086000221A
:101250000121454801F01DFD4848B0F9004004EB6C
:10126000D470C0F34F014FF0804001F08FFF44482D
:10127000B0F9000002F031F805464FF03332444B2C
:1012800002F042F8074601F0FBFF84B221464FF01E
:10129000804001F07FFF00BF3C4800683349096887
:1012A000401AC828F8DB012211462F4801F0F1FC52
:1012B000BDE8F08110B5002201212B4801F0E9FCC6
:1012C0004FF4FA61880601F061FF40F666014FF0C5
:1012D000804001F05FFF01221146234801F0D9FC54
:1012E00010BD10B50446012C1ED10021800701F06D
:1012F0004DFF4FF4FA61880601F04AFF0021A00774
:1013000001F048FF4FF4FA61880601F045FF4FF401
:101310007A7000F082F80021A00701F039FF4FF445
:10132000C87000F07AF80024022C38D10021600740
:1013300001F02CFF4FF4FA61880601F029FF00212B
:10134000600701F027FF4FF4FA61880601F024FFDF
:101350004FF47A7000F061F80021600701F01CFF83
:1013600018E000000008014000080040200C0020A8
:10137000340C0020000C0020020C00202C0C00205B
:101380002E0C00205C10002070100020240C002087
:101390003333F13F4FF4C87000F03FF8002410BD24
:1013A00010B56FF0040000F0F8F92E4800682E49DF
:1013B000B0FBF1F02D4908700846007800EB4001C1
:1013C000C1EBC0104FF6FF7101EAC0002849088048
:1013D00010BD0146254A12784A434FF0E0235A6176
:1013E00000229A611A46126942F001021A6100BF96
:1013F0004FF0E022106900F001021AB100F48032CF
:10140000002AF5D04FF0E022126922F001024FF0DD
:10141000E0231A6100229A6170470146144A12883B
:101420004A434FF0E0235A6100229A611A4612693A
:1014300042F001021A6100BF4FF0E022106900F093
:1014400001021AB100F48032002AF5D04FF0E022F8
:10145000126922F001024FF0E0231A6100229A6122
:10146000704700000C0C002000127A003C0C002099
:101470003E0C002000BF704700BF864A128802F071
:101480004002002AF9D0C2B2824B1B1D1A8070475D
:1014900010B586B00446012144F2050000F0B8FC06
:1014A0004FF40070ADF8140003208DF816001820DA
:1014B0008DF8170005A9784800F0EEF94FF4806028
:1014C000ADF8140004208DF8170005A9724800F04B
:1014D000E3F925208DF8000001208DF801008DF83A
:1014E00002008DF80300684600F00DF90194002019
:1014F000ADF80800ADF80A00ADF80C00ADF810002A
:101500000C20ADF80E0001A9624800F028FD012270
:1015100040F225515F4800F0BAFD01215D4800F01E
:10152000AAFD06B010BD10B540F22551594800F093
:1015300093FE38B359480078401C58490870554804
:1015400000F00AFE56490988084455490880534866
:101550000078012807D1084600884FF6FF7101EA9C
:1015600000204F4908804D48007802280AD14C4895
:1015700000884C49088000204849087055214A4895
:1015800000F0E6FD10BD10B586B004460121202014
:1015900000F03EFC0121480400F047FC0121084610
:1015A00000F036FC0121082000F047FA2020ADF8B9
:1015B000140018208DF8170003208DF8160005A9D7
:1015C0003A4800F069F94020ADF8140004208DF885
:1015D000170005A9354800F05FF926208DF80000B6
:1015E00001208DF8010002208DF8020001208DF805
:1015F0000300684600F087F801940020ADF8080069
:10160000ADF80A00ADF80C00ADF810000C20ADF8F4
:101610000E0001A9244800F0A2FC012240F225514D
:10162000214800F034FD01211F4800F024FD06B0E0
:1016300010BD10B540F225511B4800F00DFE38B327
:101640001B480078401C1A490870174800F084FDB8
:101650001849098808441749088015480078012866
:1016600007D1084600884FF6FF7101EA00201149B2
:1016700008800F48007802280AD10E4800780D49EA
:101680000880084600880C49088000200849087036
:1016900010BD00000038014000080140460C002049
:1016A000000C0020040C0020004400400014014005
:1016B000470C0020020C0020060C0020094880473F
:1016C00009480047FEE7FEE7FEE7FEE7FEE7FEE724
:1016D000FEE7FEE7FEE7FEE704480549054A064B3C
:1016E00070470000F705000831010008E8100020ED
:1016F000E8160020E8120020E812002031490143DA
:10170000314A1160704770B5002100230F22C47860
:1017100004B32D4C246804F4E064C4F5E064210AA9
:10172000C1F10403CA40447804FA03F184781440F8
:1017300021430901254C0678A155047804F01F05C2
:101740000124AC4005786D11AD0005F1E025C5F828
:10175000004109E0047804F01F050124AC401C4D51
:101760000678761145F8264070BD1A4A0A400243B1
:10177000154B1B1F1A60704739B1134A121D1268AE
:101780000243114B1B1D1A6006E00F4A121D12681E
:1017900082430D4B1B1D1A607047042808D14FF07F
:1017A000E021096941F004014FF0E022116107E0F6
:1017B0004FF0E021096921F004014FF0E0221161AE
:1017C000704700000000FA050CED00E000E400E0C6
:1017D00080E100E080FFFF1F10B50446CC48844242
:1017E00008D10121042000F02DFB0021042000F08D
:1017F00029FB46E0C748844208D10121082000F0B7
:1018000021FB0021082000F01DFB3AE0C248844281
:1018100008D10121102000F015FB0021102000F05C
:1018200011FB2EE0BD48844208D10121202000F0A8
:1018300009FB0021202000F005FB22E0B84884428B
:1018400008D10121402000F0FDFA0021402000F0E5
:10185000F9FA16E0B348844208D10121802000F053
:10186000F1FA0021802000F0EDFA0AE0AE4884424F
:1018700007D10121801500F0E5FA0021A01500F044
:10188000E1FA10BD10B50121084600F0DBFA002195
:10189000012000F0D7FA10BD2DE9F04102460025E5
:1018A0000026002000230024002791F803C00CF03C
:1018B0000F0591F803C00CF0100CBCF1000F03D021
:1018C00091F802C04CEA050591F800C0BCF1000F88
:1018D00031D0146800202BE04FF0010C0CFA00F31B
:1018E000B1F800C00CEA03069E4220D183004FF0FD
:1018F0000F0C0CFA03F7BC4305FA03FC4CEA040492
:1019000091F803C0BCF1280F06D14FF0010C0CFA7E
:1019100000FCC2F814C00AE091F803C0BCF1480F03
:1019200005D14FF0010C0CFA00FCC2F810C0401CAD
:101930000828D1D31460B1F800C0BCF1FF0F34DD2A
:10194000546800202EE000F1080C4FF0010808FA5E
:101950000CF3B1F800C00CEA03069E4221D18300CB
:101960004FF00F0C0CFA03F7BC4305FA03FC4CEAEA
:10197000040491F803C0BCF1280F05D100F1080C54
:1019800008FA0CF8C2F8148091F803C0BCF1480FB3
:1019900007D100F1080C4FF0010808FA0CF8C2F862
:1019A0001080401C0828CED35460BDE8F0814FF66B
:1019B000FF710180022181700421C17070470246CD
:1019C000002093680B400BB1012000E0002070471D
:1019D0000146886880B2704702460020D3680B40F9
:1019E0000BB1012000E0002070470146C86880B2BA
:1019F000704701617047416170470AB1016100E0C1
:101A000041617047C16070474FF480320A43826180
:101A10008161826182698269704702460020434B7E
:101A200018684FF68073184040EA021008433F4B95
:101A3000186070473E49C8617047F0B50A460023F8
:101A400000240021002500F00046B6F1004F02D12D
:101A5000364EF16901E0354E7168C0F3034583B23B
:101A600000F44016B6F5401F08D121F070612F4EEA
:101A7000766826F070662D4F7E6012E000F48016C6
:101A8000B6F5801F06D1032606FA05F4A14341F0FE
:101A9000706106E0460D360103FA06F6B14341F0E7
:101AA000706122B1460D360103FA06F6314300F0AB
:101AB0000046B6F1004F02D11C4EF16101E01B4E11
:101AC0007160F0BD30B500228B071C0F0F2303FAA5
:101AD00004F2164B08338C1053F824309343134C04
:101AE00008348D1044F8253023468C1053F82430E8
:101AF0008C07240F00FA04F423430C4C08348D1097
:101B000044F8253030BD0A49DC31086070470000D8
:101B100000080140000C0140001001400014014089
:101B200000180140001C014000200140000001405D
:101B300000002042DF48006840F00100DD490860F5
:101B400008464068DC490840DA49486008460068B1
:101B5000DA490840D74908600846006820F4802028
:101B600008600846406820F4FE0048604FF41F00FB
:101B700088607047CF49096821F48031CD4A1160EF
:101B80001146096821F480211160B0F5803F03D02F
:101B9000B0F5802F0ED106E0C649096841F48031C6
:101BA000C44A116007E0C349096841F4A021C14A51
:101BB000116000E000BF00BF704710B50146002271
:101BC000002300204A11012A02D1BA4C236806E002
:101BD000022A02D1B74C236A01E0B64C636A01F0D5
:101BE0001F02012494401C400CB1012000E00020A1
:101BF00010BD38B5002000900024002500BF312022
:101C0000FFF7DBFF05460098401C00900098B0F5F8
:101C1000A06F01D0002DF2D03120FFF7CEFF08B128
:101C2000012400E00024204638BD01460020A14ADE
:101C3000106820F0F80040EAC10010607047A04929
:101C400008607047024600209A4B586820F47C10C8
:101C500042EA01031843974B586070479849086659
:101C6000704701460020934A506820F00300084363
:101C7000506070478F48406800F00C007047014684
:101C800000208C4A506820F0F000084350607047F4
:101C900001460020874A506820F4E0600843506005
:101CA000704701460020834A506820F4605040EAA3
:101CB000C1005060704729B17E4A527A02437D4B81
:101CC0005A7204E07B4A527A82437A4B5A727047C6
:101CD0007B49D8310860704701460020754A50683A
:101CE00020F440400843506070470021714A203280
:101CF0001170704A82F82010012802D004280AD1FD
:101D000004E001216B4A2032117005E00521694A87
:101D10002032117000E000BF00BF704769490860C1
:101D200070476449096A0143624A11627047654914
:101D300044390860704730B5002100220024002398
:101D40005C4D6D6805F00C0121B1042905D008290E
:101D500023D105E05C4D056022E05B4D05601FE08E
:101D6000544D6D6805F47012524D6D6805F4803461
:101D7000022505EB92421CB9544D554305600BE01A
:101D80004C4D6D6805F400351DB1504D554305604F
:101D900002E04D4D5543056002E04B4D056000BF2C
:101DA00000BF444D6D6805F0F0010909484D6B5CBA
:101DB0000568DD4045603F4D6D6805F4E061090A46
:101DC000434D6B5C4568DD4085603A4D6D6805F4B8
:101DD0006051C90A3E4D6B5C4568DD40C560354DBC
:101DE0006D6805F44041890B3A4D6B5CC568B5FBE5
:101DF000F3F5056130BD29B12E4A526902432D4BDE
:101E00005A6104E02B4A526982432A4B5A61704757
:101E100029B1284A92690243264B9A6104E0254A77
:101E200092698243234B9A61704729B1214AD26952
:101E30000243204BDA6104E01E4AD26982431D4B03
:101E4000DA61704729B11B4AD2680243194BDA6044
:101E500004E0184AD2688243164BDA60704729B111
:101E6000144A12690243134B1A6104E0114A1269C1
:101E70008243104B1A61704712494039086070471D
:101E80000F49C86470470B49C87170470948406AD8
:101E900040F0807007494862704701460020054ABB
:101EA00092680A400AB1012000E000207047014911
:101EB00088727047001002400000FFF8FFFFF6FE36
:101EC000000042428004424200127A0000093D00B4
:101ED000480C0020580C002010B50446FB488442F2
:101EE00009D101218803FFF7ADFF00214FF48040A5
:101EF000FFF7A8FF32E0F648844209D101214804E7
:101F0000FFF7ADFF00214FF40030FFF7A8FF25E0F9
:101F1000F048844209D101218804FFF7A0FF002185
:101F20004FF48020FFF79BFF18E0EB48844209D173
:101F30000121C804FFF793FF00214FF40020FFF7B1
:101F40008EFF0BE0E548844208D101210805FFF728
:101F500086FF00214FF48010FFF781FF10BD2DE9AF
:101F6000F04786B005460E460024A24600BFA146B3
:101F70000027B08900B100BF2F462C8A4CF6FF70B5
:101F80000440F08804432C82AC894EF6F3100440E0
:101F9000B08831890843718908430443AC81AC8A15
:101FA0004FF6FF400440B0890443AC8201A8FFF71C
:101FB000C2FEC648874202D1DDF810A001E0DDF87C
:101FC0000CA0A88900F4004040B10AEBCA0000EB65
:101FD0000A1031684900B0FBF1F807E00AEBCA00CB
:101FE00000EB0A1031688900B0FBF1F86420B8FBFF
:101FF000F0F004012009642101FB1089A88900F494
:10200000004040B1322000EBC900B0FBF1F000F01D
:102010000700044308E0322000EB09106421B0FB04
:10202000F1F000F00F0004432C8106B0BDE8F0870A
:102030004FF41651016000218180C18001810C2183
:10204000418100218181704710B502460020108A2D
:102050004FF2FF0318400B884C8823438C8823439E
:10206000CC8823431843108210BD00210180418099
:102070008180C180704721B1828942F400528281FF
:1020800004E082894DF6FF731A4082817047F0B5F3
:102090000346002400260025002040F66A17B942B6
:1020A00000D100BF1846C1F3421401F01F060127FA
:1020B00007FA06F5012C01D10C3004E0022C01D105
:1020C000103000E014301AB107682F43076002E0B7
:1020D0000768AF430760F0BD1AB1838A0B43838260
:1020E00002E0838A8B4383827047028A4FF6F07343
:1020F0001A400282028A0A430282704782894FF2A2
:10210000FF731A40828182890A438281704721B11C
:10211000828942F00202828104E082894FF6FD73D7
:102120001A4082817047028A4FF6DF731A4002829A
:10213000028A0A430282704721B1028A42F4804235
:10214000028204E0028A4BF6FF731A400282704753
:10215000C1F308028280704701468888C0F30800F6
:102160007047818941F0010181817047028BD2B2B1
:102170000283028B42EA012202837047028B02F43F
:102180007F420283028B0A430283704721B1828A15
:1021900042F02002828204E0828A4FF6DF731A4006
:1021A0008282704721B1828A42F01002828204E06A
:1021B000828A4FF6EF731A408282704721B1828A79
:1021C00042F00802828204E0828A4FF6F7731A40D6
:1021D0008282704721B1828942F40042828103E009
:1021E0008289C2F30E028281704721B1828A42F451
:1021F0000062828204E0828A4FF2FF731A40828278
:102200007047828A4FF6FB731A408282828A0A43A1
:102210008282704721B1828A42F00202828204E007
:10222000828A4FF6FD731A40828270470246002070
:10223000B1F5007F00D100BF13880B400BB1012026
:1022400000E00020704701F40072B2F5007F00D179
:1022500000BFCA430280704770B5024600240023C5
:102260000025002040F66A16B14200D100BFC1F33C
:10227000421501F01F03012606FA03F3012D02D1D6
:102280009689334006E0022D02D1168A334001E0E0
:10229000968A33400C12012606FA04F4168834405C
:1022A00013B10CB1012000E0002070BD10B5002278
:1022B000002340F66A14A14200D100BF0A12012493
:1022C0009440A3B2DC43048010BD000000380140FC
:1022D0000044004000480040004C004000500040D6
:1022E000002044490860091D0860091D0860091D97
:1022F000086041483F4914310860704700213D495A
:102300008279002A3AD00A46126803689A430B463B
:102310001A600A1D126803689A430B1D1A6002793D
:1023200011440A6803681A430A60324A0832126884
:1023300003689A432F4B08331A601A1D126803680A
:102340009A432C4B0C331A604279102A0ED11A1F73
:10235000126803681A43274B08331A601A1D126863
:1023600003681A43234B0C331A600DE0214942796C
:1023700011440A6803681A430A6005E002791144AF
:102380000A6803689A430A6070470021016001717E
:102390000C21417100218171704716491031096883
:1023A0000143144A10321160704701460020114A5F
:1023B000143212680A400AB1012000E00020704780
:1023C0000C49143108607047014600200022094B77
:1023D0001B6803EA0102074B14331B680B4013B15F
:1023E0000AB1012000E00020704702491431086062
:1023F0007047000000040140FFFF0F0010B50446C5
:10240000FE48844208D10121C014FFF71BFD0021C2
:10241000E014FFF717FDC4E0B4F1804F08D10121AB
:102420000846FFF71CFD00210120FFF718FDB8E06A
:10243000F348844208D101210220FFF710FD00215A
:102440000220FFF70CFDACE0EE48844208D10121E8
:102450000420FFF704FD00210420FFF700FDA0E0A9
:10246000E948844208D101210820FFF7F8FC002147
:102470000820FFF7F4FC94E0E448844208D10121ED
:102480001020FFF7ECFC00211020FFF7E8FC88E0AB
:10249000DF48844208D101212020FFF7E0FC002121
:1024A0002020FFF7DCFC7CE0DA48844208D10121DF
:1024B0004014FFF7C7FC00216014FFF7C3FC70E075
:1024C000D548844209D10121C804FFF7BBFC002193
:1024D0004FF40020FFF7B6FC63E0D048844209D1F6
:1024E00001210805FFF7AEFC00214FF48010FFF733
:1024F000A9FC56E0CA48844209D101214805FFF7EA
:10250000A1FC00214FF40010FFF79CFC49E0C548F6
:10251000844208D101214020FFF7A1FC0021402086
:10252000FFF79DFC3DE0C048844208D10121802096
:10253000FFF795FC00218020FFF791FC31E0BB48BC
:10254000844208D101218015FFF789FC0021A015E4
:10255000FFF785FC25E0B648844209D10121080433
:10256000FFF770FC00214FF48030FFF76BFC18E0A0
:10257000B048844209D101214804FFF763FC0021DF
:102580004FF40030FFF75EFC0BE0AB48844208D10B
:1025900001218804FFF756FC00214FF48020FFF74B
:1025A00051FC10BD00220288944B98420ED0994BEA
:1025B00098420BD0B0F1804F08D0914B984205D093
:1025C000904B984202D0904B984204D14FF68F73B3
:1025D0001A404B881A438D4B984207D08C4B984237
:1025E00004D04FF6FF431A40CB881A4302808B88F1
:1025F00083850B880385814B98420BD0854B98428D
:1026000008D08B4B984205D08A4B984202D08A4B17
:10261000984201D10B7A038601238382704770B5FB
:10262000002400220023058C4FF6FE7635400584F9
:10263000028C8388048B4FF68F752C40B51E2C407E
:102640000D882C43751E2A400D892A434D882A4344
:102650006A4DA8420BD06F4DA84208D0744DA842D5
:1026600005D0744DA84202D0734DA84213D14FF645
:10267000F7752A404D892A434FF6FB752A408D880D
:102680002A434FF6FF652B404FF6FF552B408D89AF
:102690002B43CD892B4383800483CD888586028498
:1026A00070BD70B5002400220023058C4FF6EF7634
:1026B00035400584028C8388048B48F6FF752C40D6
:1026C0004FF6FF452C400D884FF6FF7606EA0525AC
:1026D0002C434FF6DF752A400D8906EA05152A437B
:1026E0004D8806EA05152A43444DA84202D0494DBB
:1026F000A8421DD14FF67F752A404D894FF6FF76CF
:1027000006EA05152A434FF6BF752A408D8806EA6A
:1027100005152A434FF6FF352B404FF2FF752B402E
:102720008D8906EA85052B43CD8906EA85052B436D
:1027300083800483CD880587028470BD70B5002432
:1027400000220023058C4FF6FF6635400584028C7D
:102750008388848B4FF68F752C404FF6FC752C4088
:102760000D882C434FF6FF552A400D894FF6FF7612
:1027700006EA05252A434D8806EA05252A431F4D0A
:10278000A84202D0234DA8421DD14FF2FF752A4026
:102790004D894FF6FF7606EA05252A434FF6FF35A9
:1027A0002A408D8806EA05252A434EF6FF752B4000
:1027B0004DF6FF752B408D8906EA05152B43CD8913
:1027C00006EA05152B4383808483CD8885870284A0
:1027D00070BD70B5002200230024058C4EF6FF76F4
:1027E00035400584038C8488828B48F6FF752A4027
:1027F0004FF6FF452A400D8820E00000002C0140E4
:102800000004004000080040000C004000100040A0
:102810000014004000340140004C014000500140D1
:102820000054014000180040001C004000200040FF
:102830000040014000440140004801404FF6FF764F
:1028400006EA05252A434DF6FF752B400D8906EA59
:1028500005352B434D8806EA05352B43FA4DA84232
:1028600002D0FA4DA84208D14BF6FF752C408D8955
:102870004FF6FF7606EA85152C4384808283CD8847
:10288000A0F84050038470BD828B4FF2FF331A4092
:102890008283828B4FF6FF7303EA01231A438283FC
:1028A0007047F0B50C461546002200210026078C23
:1028B0004EF6FF7C07EA0C070784828B018C4FF6EB
:1028C000FF7707EA043640F6FF473A404FF6FF77B6
:1028D00007EA05273A434FF6FF7707EA03373A43FB
:1028E000D94FB8420ED0D94FB8420BD0B0F1804F7B
:1028F00008D0D74FB84205D0D64FB84202D0D64FF5
:10290000B84206D14DF6FF77394046F48057394337
:1029100005E047F6FF57394044F480573943828336
:102920000184F0BD828B4FF6F3731A408283828B51
:102930000A4382837047F0B50C46154600220021F9
:102940000026078C4FF6FF6C07EA0C070784828B82
:10295000018C4FF6FF7707EA04264FF60C773A40D2
:102960004FF6FF7707EA03172F433A43B64FB842B3
:102970000ED0B64FB8420BD0B0F1804F08D0B44F54
:10298000B84205D0B34FB84202D0B34FB84206D1D7
:102990004FF6FF57394046F48077394305E04FF250
:1029A000FF57394044F48077394382830184F0BD76
:1029B000028B4FF2FF331A400283028B4FF6FF73F4
:1029C00003EA01231A4302837047F0B50C4615460B
:1029D000002200210026078C4FF6EF7C07EA0C0747
:1029E0000784028B018C4FF6FF7707EA041640F646
:1029F000FF473A404FF6FF7707EA03373A434FF66F
:102A0000FF7707EA05273A438F4FB8420ED08F4F22
:102A1000B8420BD0B0F1804F08D08D4FB84205D0EE
:102A20008C4FB84202D08C4FB84206D14FF6DF77B8
:102A3000394046F01007394305E04FF65F773940DB
:102A400044F01007394302830184F0BD028B4FF636
:102A5000F3731A400283028B0A4302837047F0B576
:102A60000C46154600220021068C4FF6FE773E40AC
:102A70000684028B018C4FF60C7632407E1C06EAEF
:102A800003162E433243704EB0420ED06F4EB0420A
:102A90000BD0B0F1804F08D06D4EB04205D06D4ED6
:102AA000B04202D06C4EB04206D14FF6FD763140B6
:102AB00044F00106314305E04FF6F576314044F02D
:102AC0000106314302830184F0BD70B505460C4612
:102AD0005D4885420ED05D4885420BD0B5F1804FF0
:102AE00008D05B48854205D05A48854202D05A48F2
:102AF000854200D100E000BF208850B92389A28818
:102B000061882846FFF7ABFFE1882846FFF79EFF64
:102B100025E0208804280AD12389A28861882846D4
:102B2000FFF753FFE1882846FFF742FF17E02088B0
:102B300008280AD12389A28861882846FFF7FBFE6E
:102B4000E1882846FFF7EEFE09E02389A288618824
:102B50002846FFF7A6FEE1882846FFF795FE70BDE0
:102B60002DE9F04105460C4600260127608808B98A
:102B7000022600E00026A088012801D1022700E0FB
:102B800001272088A0B92389A28861882846FFF7F9
:102B900066FFE1882846FFF759FF23893A46314608
:102BA0002846FFF712FFE1882846FFF701FF13E0F0
:102BB0002389A28861882846FFF707FFE188284615
:102BC000FFF7F6FE23893A4631462846FFF747FFCE
:102BD000E1882846FFF73AFFBDE8F0810A884B8874
:102BE0001A438B881A43CB881A430B891A434B89A3
:102BF0001A438B891A43A0F8442070474FF6FF719F
:102C0000818000210180C1804180017270470021D4
:102C1000018041808180C180018141818181C181A8
:102C20007047002101804180012181800021C18005
:102C3000018170470021018041808180C180018134
:102C40004181818170470000002C01400034014027
:102C50000004004000080040000C004021B1028840
:102C600042F00102028004E002884FF6FE731A402F
:102C70000280704731B1B0F8442042F40042A0F81D
:102C8000442005E0B0F84420C2F30E02A0F844202E
:102C900070471AB183890B43838102E083898B4398
:102CA000838170478182704741EA0203A0F848306F
:102CB00070471AB183890B43838102E083898B4378
:102CC0008381704701894FF6F87211400181704786
:102CD0000A46002101894FF68F7319401143018183
:102CE000704730B504460D4629462046FFF7F0FFF1
:102CF000208940F00700208130BD2DE9F0410446D5
:102D00000D4616461F46602D06D13B460122314630
:102D10002046FFF75AFE05E03B4601223146204699
:102D2000FFF79DFE29462046FFF7D2FF208940F09D
:102D300007002081BDE8F08130B50C4600210189F3
:102D4000C9B24FF6FF7505EA03251543254329430C
:102D5000018130BD2DE9F04105460E4617469846E3
:102D6000002443463A4631462846FFF7E5FF2C89C2
:102D70004FF6F870044044F007044FF68F7004409B
:102D800044F070042C81BDE8F081F0B504460D4696
:102D900016461F463B46324629462046FFF7CCFFE3
:102DA000208940F480402081F0BD018582827047F7
:102DB0000A46002101884FF68F73194011430180A4
:102DC0007047F0B50C4615461E4600210022002330
:102DD0000189028B038C4FF6F877394021434FF677
:102DE000FC473A4040F201173A434FF6DD773B404B
:102DF0004FF6FF7707EA06172F433B430181028313
:102E00000384F0BD0A460021018B4FF68F731940F1
:102E10001143018370470A460021018B48F6FF7376
:102E200019404FF6FF7303EA0223194301837047E9
:102E30000A460021818B4FF68F731940114381831D
:102E400070470A460021818B48F6FF7319404FF600
:102E5000FF7303EA022319438183704721B102887B
:102E600042F08002028004E002884FF67F731A402D
:102E70000280704721B1828842F00402828004E01F
:102E800082884FF6FB731A408280704721B1828896
:102E900042F00802828004E082884FF6F7731A40FD
:102EA0008280704721B1828842F00102828004E072
:102EB00082884FF6FE731A40828070470A460021CE
:102EC000018B4FF6F77319401143018370470A468F
:102ED0000021018B4FF2FF7319404FF6FF7303EA95
:102EE00002231943018370470A460021818B4FF664
:102EF000F77319401143818370470A460021818B83
:102F00004FF2FF7319404FF6FF7303EA0223194390
:102F1000818370470A460021018B4FF6FB731940ED
:102F20001143018370470A460021018B4FF6FF339E
:102F300019404FF6FF7303EA0223194301837047D8
:102F40000A460021818B4FF6FB73194011438183A0
:102F500070470A460021818B4FF6FF3319404FF628
:102F6000FF7303EA02231943818370470A46002155
:102F7000018B4FF67F7319401143018370470A4656
:102F80000021018BC1F30E014FF6FF7303EA022308
:102F90001943018370470A460021818B4FF67F73E6
:102FA00019401143818370470A460021818BC1F388
:102FB0000E014FF6FF7303EA022319438183704722
:102FC0000A460021018C4FF6FD731940114301841C
:102FD00070470A460021018C4FF6F77319401143E0
:102FE000018470470A460021018C4FF6DF731940B7
:102FF0004FF6FF7303EA02131943018470470A4630
:103000000021018C4FF67F7319404FF6FF7303EADE
:1030100002131943018470470A460021018C4FF6C0
:10302000FF5319404FF6FF7303EA0223194301844B
:1030300070470A460021018C4FF2FF7319404FF68A
:10304000FF7303EA02231943018470470A460021F3
:10305000018C4DF6FF7319404FF6FF7303EA0233FC
:1030600019430184704730B5002301248C40A3B27A
:10307000048C9C430484048C02FA01F5ADB22C4309
:10308000048430BD30B5002304248C40A3B2048CEA
:103090009C430484048C02FA01F5ADB22C430484F1
:1030A00030BD70B5034600200024184618300125B5
:1030B0008D40ACB21D8CA5431D8409B1082909D1EE
:1030C00000EB6100056825F0700505600568154393
:1030D00005600EE00D1FC5F34E052844056825F474
:1030E000E045056005684FF6FF7606EA022635439F
:1030F000056070BD21B1028842F00202028004E046
:1031000002884FF6FD731A400280704721B1028891
:1031100042F00402028004E002884FF6FB731A407A
:103120000280704721B1828842F08002828004E0F0
:1031300082884FF67F731A408280704702884FF66C
:10314000F7731A40028002880A430280704782881F
:103150004FF68F731A40828082880A4382807047BC
:1031600002894FF6F8731A40028102890A430281EC
:10317000704702894FF67F731A40028102890A4321
:1031800002817047818470478185704781867047CE
:103190000187704781877047A0F840107047028808
:1031A0004FF6FF431A40028002880A4302807047AC
:1031B0000146888E70470146088F70470146888F08
:1031C00070470146B1F8400070470146888C70474F
:1031D0000146088D704702460020138A0B400BB150
:1031E000012000E000207047CA430282704730B5DA
:1031F0000246002000230024158A05EA0103958970
:1032000005EA010413B10CB1012000E0002030BD3B
:10321000CA430282704770477047704770477047D3
:10322000754600F029F8AE4605006946534620F081
:103230000700854618B020B5FEF74EFABDE82040DD
:103240004FF000064FF000074FF000084FF0000B62
:1032500021F00701AC46ACE8C009ACE8C009ACE815
:10326000C009ACE8C0098D4670470446AFF3008042
:103270002046FCF7C4FF000000487047841000207F
:103280004FEA1153A3F58063D3F11E03A8BFD3F116
:10329000200C08DB4FF0004242EAC12252EA5052B1
:1032A00032FA03F0704709420BD4102BC4BF002040
:1032B000704703F5787CBCF1FF3F05D04FF0FF303D
:1032C00070474FF00000704770B500F0C7F800BFBE
:1032D0004992248000207047F0E710F0004248BF78
:1032E0004042B0FA80F310FA03F10AD0C3F11D0393
:1032F00003F580634FEA415002EB035202EBD12108
:1033000070474FF000007047DFF848C170B51CEA05
:10331000111E1EBF1CEA13159EEA0C0F95EA0C0F36
:1033200000F06F8081EA030423EA4C134EEAD47E56
:1033300021EA4C1141F4801143F48013AE44A1FB07
:10334000024CA0FB0365AEF17F7E361955EB0C05F0
:10335000A1FB034C4CF10003A0FB021C16EB0C0676
:10336000654153F10003094218BF46F0010613F40A
:10337000007F0BD14FEA03314FEA0530340341EAB5
:10338000155140EA16506FF003020AE04FEAC321DC
:103390004FEAC520F40241EA555140EA56506FF019
:1033A000020202EB2E4201EB025585EACE710AD0F1
:1033B0005FEA440C18BF24F0004450F1000041F1D2
:1033C000000120EAD47040F2FE7C624500D270BD5C
:1033D000A84214BF4FF080444FF04044002E08BF75
:1033E0000024BEF1806FA8BFA1F1C041BDE87040CC
:1033F00080F282804FF0000001F1C04101F00041F5
:1034000070479EEA0C0F0CEA131518BF95EA0C0FD3
:1034100006D04FF0000081EA030E0EF0004170BDAF
:1034200000F01CF88900013E00F007B800F009B870
:103430004FEA430C5FEA5C5C08D081EA030100F0CC
:103440005BB84FEA410C5FEA5C5CF6D14FF00000DC
:10345000014970470000FF070000F87F0EF1020EDF
:103460002EF0030E5EF8046B364205D4012A43EBBE
:10347000030515F5001F12D8012841EB010C1CF5BE
:10348000001F0CD80ED14FEAD17C15F5001F0CEBB4
:103490004C0C0CF1020C08BF4CEBD37C04E04FF059
:1034A000080C01E04FEAD37C0CEB4C0526FA05F63C
:1034B00006F00706B6F1040C06D20EEB860CBDE84A
:1034C00070404CF0010C6047DFE80CF0090B020281
:1034D0004FF000414FF00000A1F5002170BD1946EA
:1034E0001046012851EB010418BFD4F5001484BF25
:1034F000002001F0004170BD0808A0F500114FEA5E
:103500003101704741000B0ED3F19E0208D950F4EF
:1035100000034FEA032323FA02F048BF40427047FA
:1035200010B500F08CF800BF49922480002070474D
:103530006FF0004282EA2000704700004FF47F0CD9
:103540001CEAD0121EBF1CEAD11392EA0C0F93EAB8
:103550000C0F00F0478090EA010F48BF42F48072E0
:103560004FF0004C4CEA00204CEA012102EB030230
:10357000A0FB0113A2F50002002918BF43F00103CC
:103580005B0028BF4FEA330342EB22425FEA132C71
:103590004CEBC2502EBFBCEB436FB2F57C0F7047B3
:1035A0004FEA036CBCF1004F08BF20F00100B2F5F8
:1035B0007C0F38BF70470BD582F0FF0212F5803FB9
:1035C000C8BF704700F1C040D8BF00F0004070474E
:1035D00000F5000C5FEA4C0C48BF7047B0F1C040EA
:1035E00000F073B890EA010F0CEAD11348BF42F41F
:1035F0008072624538BF634504D280EA010000F062
:103600000040704710B500F01AF800BF8900013E75
:1036100000F007B800F009B85FEA410C5FEA1C6CE3
:1036200008D080EA010000F050B85FEA400C5FEA81
:103630001C6CF6D14FF00040A0F5800070470EF1F1
:10364000020E2EF0030E5EF8044B244204D44FEA1F
:103650004102B2F17F4F11D84FEA4003B3F17F4FDF
:103660000CD80ED14FEAD07CB2F17F4F0CEB4C0C52
:103670000CF1020C08BF4CEBD17C04E04FF0080CBD
:1036800001E04FEAD17C0CEB4C0324FA03F404F084
:103690000704B4F1040C06D20EEB840CBDE8104014
:1036A0004CF0010C6047DFE80CF0070802024FF015
:1036B0000040A0F5800010BD0846420018BFD2F1BE
:1036C000807288BF00F0004010BDFF2141EAD05059
:1036D000C00570470000000000000000002F00003F
:1036E00000000700070000147F147F1400242A7FC5
:1036F0002A12006264081323003649552250000044
:103700000503000000001C224100000041221C00B3
:103710000014083E08140008083E0808000000A035
:103720006000000808080808000060600000002031
:1037300010080402003E5149453E0000427F40000F
:10374000004261514946002141454B310018141295
:103750007F10002745454539003C4A494930000162
:103760007109050300364949493600064949291EB1
:103770000000363600000000563600000008142213
:103780004100001414141414000041221408000213
:103790000151090600324959513E007C1211127C38
:1037A000007F49494936003E41414122007F414165
:1037B000221C007F49494941007F09090901003E57
:1037C0004149497A007F0808087F0000417F410095
:1037D000002040413F01007F08142241007F40400B
:1037E0004040007F020C027F007F0408107F003EF3
:1037F0004141413E007F09090906003E4151215ED9
:10380000007F091929460046494949310001017FD5
:103810000101003F4040403F001F2040201F003F6B
:103820004038403F0063140814630007087008071D
:1038300000615149454300007F41410000552A5530
:103840002A55000041417F000004020102040040AB
:1038500040404040000001020400002054545478CD
:10386000007F4844443800384444442000384444ED
:10387000487F00385454541800087E09010200188B
:10388000A4A4A47C007F080404780000447D4000C8
:10389000004080847D00007F102844000000417FAC
:1038A0004000007C04180478007C08040478003888
:1038B0004444443800FC242424180018242418FC10
:1038C000007C0804040800485454542000043F4479
:1038D0004020003C4040207C001C2040201C003C3C
:1038E0004030403C004428102844001CA0A0A07C8C
:1038F000004464544C4414141414141400000000C4
:10390000000000000000000000000000000000F8BF
:1039100000000000000000333000000000100C0622
:10392000100C0600000000000000000040C07840BD
:10393000C0784000043F04043F040400007088FC89
:1039400008300000001820FF211E0000F008F000E1
:10395000E018000000211C031E211E0000F0088852
:10396000700000001E2123241927211010160E00BC
:10397000000000000000000000000000000000E067
:10398000180402000000000718204000000204187C
:10399000E00000000040201807000000404080F0D8
:1039A000804040000202010F01020200000000F00E
:1039B000000000000101011F0101010000000000E2
:1039C0000000000080B07000000000000000000057
:1039D00000000000000101010101010100000000E0
:1039E0000000000000303000000000000000000077
:1039F00080601804006018060100000000E0100854
:103A00000810E000000F102020100F00001010F828
:103A1000000000000020203F202000000070080867
:103A200008887000003028242221300000300888E7
:103A3000884830000018202020110E000000C0200F
:103A400010F8000000070424243F240000F8088830
:103A5000880808000019212020110E0000E01088BD
:103A600088180000000F112020110E0000380808EF
:103A7000C83808000000003F0000000000708808FF
:103A800008887000001C222121221C0000E0100880
:103A90000810E0000000312222110F00000000C0D9
:103AA000C000000000000030300000000000008076
:103AB0000000000000008060000000000000804066
:103AC000201008000001020408102000404040407F
:103AD00040404000040404040404040000081020D2
:103AE0004080000000201008040201000070480817
:103AF0000808F0000000003036010000C030C8287F
:103B0000E810E0000718272423140B000000C03839
:103B1000E0000000203C23020227382008F88888B3
:103B200088700000203F202020110E00C0300808BF
:103B300008083800071820202010080008F8080896
:103B40000810E000203F202020100F0008F888888F
:103B5000E8081000203F20202320180008F888885B
:103B6000E8081000203F200003000000C0300808D3
:103B70000838000007182020221E020008F808005C
:103B80000008F808203F210101213F20000808F823
:103B9000080800000020203F202000000000080846
:103BA000F8080800C08080807F00000008F888C006
:103BB00028180800203F20012638200008F80800B7
:103BC00000000000203F20202020300008F8F800EE
:103BD000F8F80800203F003F003F200008F830C000
:103BE0000008F808203F200007183F00E0100808F0
:103BF0000810E0000F10202020100F0008F808081F
:103C00000808F000203F210101010000E010080831
:103C10000810E0000F18242438504F0008F8888856
:103C200088887000203F2000030C30200070880836
:103C3000080838000038202121221C00180808F844
:103C4000080818000000203F2000000008F80800C5
:103C50000008F808001F202020201F000878880096
:103C600000C83808000007380E010000F80800F806
:103C70000008F800033C0700073C030008186880B0
:103C80008068180820302C03032C30200838C80026
:103C9000C83808000000203F200000001008080875
:103CA000C83808002038262120201800000000FE17
:103CB000020202000000007F40404000000C30C0C3
:103CC00000000000000000010638C00000020202EF
:103CD000FE000000004040407F00000000000402A1
:103CE00002020400000000000000000000000000CC
:103CF00000000000808080808080808000020204BC
:103D000000000000000000000000000000008080B3
:103D1000808000000019242222223F2008F8008021
:103D200080000000003F112020110E0000000080E4
:103D300080800000000E1120202011000000008073
:103D40008088F800000E112020103F2000008080A5
:103D500080800000001F222222221300008080F0B9
:103D6000888888180020203F2020000000008080E4
:103D700080808000006B94949493600008F8008029
:103D800080800000203F210000203F200080989884
:103D9000000000000020203F2020000000000080E4
:103DA0009898000000C08080807F000008F8000024
:103DB00080808000203F24022D302000000808F879
:103DC000000000000020203F202000008080808034
:103DD00080808000203F20003F20003F80800080C6
:103DE00080800000203F210000203F2000008080D4
:103DF00080800000001F202020201F008080008085
:103E00008000000080FFA12020110E000000008033
:103E100080808000000E112020A0FF808080800024
:103E20008080800020203F21200001000000808051
:103E3000808080000033242424241900008080E046
:103E4000808000000000001F202000008080000013
:103E500000808000001F202020103F2080808000F4
:103E60000080808000010E30080601008080008004
:103E7000008080800F300C030C300F000080800029
:103E8000808080000020312E0E3120008080800054
:103E90000080808080818E70180601000080808004
:103EA000808080000021302C2221300000000000A2
:103EB000807C020200000000003F40400000000043
:103EC000FF00000000000000FF0000000002027C74
:103ED000800000000040403F00000000000601019B
:103EE000020204040000000000000000008060F8EE
:103EF00007000424242526242424040000000000B4
:103F0000000000000000000000000000010000FFB1
:103F1000000000F94949494949F900000000000042
:103F20000000000000000000000000000000F88811
:103F3000888888FF88888888F800000000000000D2
:103F400000000000000000000000000000001F084A
:103F50000808087F888888889F80F000000000009B
:103F60000000000000000000000000002030AC63F2
:103F700030000202FE0202625AC600000000000089
:103F80000000000000000000000000002267221274
:103F90001240308F80432C102C4380000000000022
:103FA0000000000000000000000000000000FE8291
:103FB000929292FE92929282FE0000000000000017
:103FC00000000000000000000000000080601F00F2
:103FD000001E1212121E40807F0000000000000030
:103FE000000000000000000000000000080888A495
:103FF000ECAAAAF9AAAAECA488080800000000000C
:1040000000000000000000000000000088D496FDC1
:1040100096D4880088D496FD96D4880000000000CD
:10402000000000000000000000000000424AD26AC8
:1040300046C000F2121AD61212F20200000000006E
:1040400000000000000000000000000040807F0031
:104050000100804F20180710204F80000000000052
:10406000000000000000000000000000080889EEC9
:1040700098007E42C24242C2427E00000000000020
:10408000000000000000000000000000020100FF2E
:10409000804320180700003F4040780000000000E7
:1040A00000000000000000000000000000101010E0
:1040B00010D030FF30D010101010000000000000B1
:1040C00000000000000000000000000010080402D2
:1040D000090808FF08080902040810000000000091
:1040E00000000000000000000000000000020C8042
:1040F000608040300FC80808281800000000000049
:1041000000000000000000000000000002027E012C
:1041100080402018060106182040800000000000A2
:10412000000000000000000000000000807000FFA0
:104130002010003E2A2A2A2A2A3E00000000000001
:104140000000000000000000000000008060180770
:10415000083008090909FF090909080000000000E2
:10416000000000000000000000000000101010FF20
:104170001050445465C6446454444000000000009C
:104180000000000000000000000000000444827FE6
:104190000182824A562322524E8202000000000011
:1041A000000000000000000000000000202020208F
:1041B000202020FF202020202020200000000000C0
:1041C000000000000000000000000000808040208F
:1041D000100C0300030C1020408080000000000041
:1041E0000000000000000000000000008886A2AA75
:1041F000AAFEAAABAAFEAAAAA28A86000000000014
:104200000000000000000000000000000808048218
:10421000BF42221E2242BF02040808000000000024
:1042200000000000000000000000000000FE02820C
:10423000BAAAAAAAAAAABA8202FE00000000000036
:1042400000000000000000000000000000FF404FE0
:10425000605048464850604F40FF0000000000009A
:104260000000000000000000000000001060028C50
:104270000024242FE42424E42F2424000000000040
:1042800000000000000000000000000004047E01A7
:1042900000FF11090719090749917F00000000007C
:1042A0000000000000000000000000000000F8888E
:1042B0008888880808FF08090AC80800000000006C
:1042C00000000000000000000000000080601F00EF
:1042D00010201F80402116182641F8000000000021
:1042E000000000000000000000000000080808F8BE
:1042F0000808081010FF101010F000000000000067
:104300000000000000000000000000001030101F3E
:10431000088848300E014080403F00000000000047
:10432000000000000000000000000000008040F8D5
:10433000064220180EF088888888000000000000DF
:104340000000000000000000000000000000003F2E
:1043500000000000003F040404040000000000000E
:10436000000000000000000000000000000000004D
:104370007E22222222223C62000000000000000077
:1043800000000000000000000000000000003F11DD
:1043900011113F00003F1111113F0000000000000B
:1043A00000000000000000000000000000004020AD
:1043B0001028660A8848281808000000000000003D
:1043C00000000000000000000000000000000404E5
:1043D000023F2121222222221E2000000000000094
:1043E000000000000000000000000000002024E4A5
:1043F000FCA26020988EE828081008000000000049
:1044000000000000000000000000000000040300A5
:104410003F00090601203F0001020C0000000000DF
:10442000000000000000000000000000000000008C
:10443000000000000000000000000000000000007C
:1044400000000000000000000000000000001B1B36
:10445000000000000000000000000000000000005C
:104460000000000000000000000000000080E8489C
:104470003C4A4848DE48285E48CC4800000000001E
:10448000000000000000000000000000000000002C
:104490001F0101013F1111110F0000000000000079
:1044A00000000000000000000000000000403C4848
:1044B000FE484848F2121AD41212F200000000001E
:1044C00000000000000000000000000000042311B4
:1044D0001708062127100807081033000000000005
:1044E000000000000000000000000000000044EC9C
:1044F0000098E88AFC88F88EE898880000000000A0
:104500000000000000000000000000000000003F6C
:104510000804003E2A2A2A2A3E000000000000006B
:10452000000000000000000000000000000000008B
:104530007C52D25252D2527E000000000000000095
:104540000000000000000000000000000000121643
:1045500014101F10101F181412110000000000008A
:1045600000000000000000000000000000004044C7
:1045700044444444C4444444422020000000000019
:10458000000000000000000000000000001008040F
:10459000030020301F000102060C00000000000094
:1045A0000000000000000000000000000000F00813
:1045B0000E08F840209C161010F0000000000000CB
:1045C00000000000000000000000000000003F119B
:1045D00011113F0000000320201F00000000000018
:1045E0000000000000000000000000000040404803
:1045F000445874464464584444404000000000005D
:1046000000000000000000000000000000000000AA
:104610003F1515151515153F00000000000000009E
:1046200000000000000000000000000000403C48C6
:10463000FE484848F2121AD41212F200000000009C
:104640000000000000000000000000000004231132
:104650001708062127100807081033000000000083
:10466000000000000000000000000000000010F248
:104670005450D04850FC1210F01000000000000010
:1046800000000000000000000000000000201C03EB
:1046900010303F2010100B0E1130200000000000E1
:1046A00000000000000000000000000000002020CA
:1046B000202020FEE220202020100000000000002A
:1046C00000000000000000000000000000002020AA
:1046D000100806010003040810300000000000006C
:1046E0000000000000000000000000000000405C2E
:1046F0005252FE60609C72525E400000000000005A
:104700000000000000000000000000000004023E65
:1047100013133E00001C13133E02020000000000B1
:104720000000000000000000000000004042CC003B
:1047300000445454547F545454444000000000003A
:1047400000000000000000000000000000007F20CA
:104750001000FF15151555957F00000000000000A2
:10476000000000000000000000000000101010FF1A
:104770009020988888E98E8888A89800000000001A
:104780000000000000000000000000000242817FE5
:10479000000080844B2810284780000000000000A3
:1047A0000000000000000000000000000202020201
:1047B0000202FE0202428202020202000000000027
:1047C00000000000000000000000000000000000E9
:1047D0000000FF00000000010600000000000000D3
:1047E00000000000000000000000000000000000C9
:1047F00000003834020038340200000000000000DD
:1048000000000000000000000000000000000000A8
:104810000000000000000000000000000000000098
:104820000000000000000000000000008082828282
:10483000FE8282828282FE828282800000000000EC
:104840000000000000000000000000000080403078
:104850000F0000000000FF0000000000000000004A
:104860000000000000000000000000001010F01F19
:1048700010F00040E05847405060C00000000000C9
:1048800000000000000000000000000040221508A9
:1048900016210000FE42424242FE000000000000DD
:1048A00000000000000000000000000000002016D2
:1048B0000E0020160E0000000000000000000000A6
:1048C00000000000000000000000000000000000E8
:1048D00000000000000000000000000000000000D8
:1048E0000000000000000000000000004030EF2445
:1048F0002480E49C105454FF547C100000000000FD
:1049000000000000000000000000000001017F2105
:10491000512618274445455F4545440000000000E6
:104920000000000000000000000000004C490008EA
:10493000000000205C0C00006C010008A04B000887
:104940005C0C00208C0A0000C801000811100A034A
:10495000050911FF118905C312E012F072F8073D35
:104960004428FF11AA44700B830138448292927448
:10497000018328087C44FF017D7D7D044905647D19
:1049800001FF9A0102818A010B013669419949FAB6
:104990000101011D38083F3F0303F31311011E01FC
:1049A000F1116181312D816111F1393B4141072CB8
:1049B00001C1211EAB21C114390139360738D33367
:1049C00003033F3F23E0E06A7FA81A7FBF4C06182D
:1049D000060A213640407F40401C1F204001AB208A
:1049E0001F14113A600E6C300C034601361C070789
:1049F000060178090404048444444484071C0484A4
:104A0000C405790E09110A791129400341070726C7
:104A100010181412112E0F1010100F0F331F102624
:104A2000081012120D22186B0D120A59295907018C
:104A3000605A8001013D20087F030C300C037F2564
:104A400038545458257C04047805223C40407C1797
:104A5000FFAAAAAA28080A2CFF681E26494949323B
:104A6000101D020408100F100A03050911FF118917
:104A700005C312E012F072F8073D4428FF11AA4462
:104A8000700B830138448292927401831E7C44FF30
:104A9000017D01990559BB9A0102818A010B0136FA
:104AA00069419949FA010101204BF808011135F8D3
:104AB00018608035806018F82B202006312BE0101C
:104AC0001EAB10E014613937043E8868186A7FA76E
:104AD0001A7FBE4C0618060A114640407F40401C13
:104AE0001F204001AB201F141162603A602F014467
:104AF0001E40202020C0ED190729EA2A4005115A3E
:104B0000600E8918792959070149260C0A0A090CEF
:104B1000360F0808080F2C080F08151D0809090E84
:104B20000719181C09090918190A59295907016098
:104B30005A8001013D20087F030C300C037F25388B
:104B4000545458257C04047805223C40407C17FFCF
:104B5000AAAAAA28080A2CFF681E26494949321029
:104B600016020408107FBBFFFF4002700FD98001BE
:104B70007109FD8009FD8009C9800A344001D18492
:104B8000A24A0400091001020304060708090518D7
:104B90009A9999BF29346938050002040608000073
:0400000508000131BD
:00000001FF
