:020000040800F2
:10000000600B0020590E00081D0300081F030008A4
:1000100023030008270300082B030008000000004A
:100020000000000000000000000000002F03000896
:100030003103000800000000330300083503000806
:10004000730E0008730E0008730E0008730E00088C
:10005000730E0008730E0008730E0008730E00087C
:10006000730E0008730E0008730E0008730E00086C
:10007000730E0008730E0008730E0008730E00085C
:10008000730E0008730E0008730E0008730E00084C
:10009000730E0008730E0008730E0008730E00083C
:1000A000730E0008730E0008730E0008730E00082C
:1000B000730E000837030008730E0008730E000863
:1000C000730E0008730E0008730E0008730E00080C
:1000D000730E0008CD0D0008730E0008730E0008A3
:1000E000730E0008730E0008730E0008730E0008EC
:1000F000730E0008730E0008730E0008730E0008DC
:10010000730E0008730E0008730E0008730E0008CB
:10011000730E0008730E0008730E0008730E0008BB
:10012000730E0008730E0008730E0008730E0008AB
:1001300000F002F800F03AF80AA090E8000C8244BF
:100140008344AAF10107DA4501D100F02FF8AFF29C
:10015000090EBAE80F0013F0010F18BFFB1A43F0A5
:10016000010318474033000060330000103A24BFF9
:1001700078C878C1FAD8520724BF30C830C144BF0C
:1001800004680C607047000000230024002500264E
:10019000103A28BF78C1FBD8520728BF30C148BFEA
:1001A0000B6070471FB51FBD10B510BD02F076FB88
:1001B0001146FFF7F7FF00F06AF802F094FB03B472
:1001C000FFF7F2FF03BC00F0A7FD000008B54FF4F5
:1001D000C06000F061FE1D208DF8000000208DF849
:1001E000010001208DF802008DF80300684600F040
:1001F00058FE08BD0EB50121444802F047FB7920A6
:10020000ADF804002220ADF800000020ADF8060093
:10021000ADF8020069463D4801F002FD0122114699
:100220003A4802F074F80121384802F055F80EBD42
:1002300008B54FF48070ADF8000003208DF802007F
:1002400010208DF803006946314800F0F3FE0120CC
:10025000ADF8000069462F4800F0ECFE01212D4862
:1002600000F095FF0220ADF8000004208DF8030097
:100270006946284800F0DEFE08BD10B501210820BF
:1002800001F08EF90121022001F097F910BD08B5A7
:1002900000F0D6F800F0D8FC00F011FCFFF7EDFFFD
:1002A000FFF7C6FFFFF7A6FFFFF790FF2DE0002046
:1002B000194908600121174800F067FF142000F079
:1002C000DCFC0121134800F062FF4FF4487000F09D
:1002D000F7FC114800686421B0FBF1F41020022300
:1002E000224600210090084600F059FA0A480068AA
:1002F0006421B0FBF1F201FB12041020022322461C
:1003000000210090162000F04AFAD0E700040040D7
:10031000000C01400008014000000020704700BFB1
:10032000FEE700BFFEE700BFFEE700BFFEE7704745
:1003300070477047704710B50121074802F0A6FAD0
:100340000221064800F007FF012804D10448006894
:10035000401C0349086010BD000400400008014033
:10036000000000200CB50020019000906B48006850
:1003700040F480306949086000BF6848006800F4B4
:10038000003000900198401C0190009818B9019825
:10039000B0F5A06FF1D16148006810F4003F02D0C1
:1003A0000120009001E0002000900098012842D137
:1003B0005B48006840F01000594908600846006832
:1003C00020F0030008600846006840F00200086062
:1003D00052484068514948600846406848600846AD
:1003E000406840F4806048600846406820F47C1013
:1003F00048600846406840F4E810486008460068D5
:1004000040F08070086000BF4448006810F0007F32
:10041000FAD04248406820F003004049486008464E
:10042000406840F00200486000BF3C48406800F06F
:100430000C000828F9D10CBD10B5FFF793FF10BDD3
:1004400010B53648006840F001003449086008469D
:1004500040683449084031494860084600683249DC
:1004600008402E4908600846006820F48020086093
:100470000846406820F4FE0048604FF41F00886082
:10048000FFF7DAFF4FF000602849086010BD10B593
:10049000002100200022214B5B6803F00C0121B1F8
:1004A000042906D0082928D107E0214B214C2360DC
:1004B00027E01F4B1F4C236023E0184B5B6803F4BD
:1004C0007010164B5B6803F48032022303EB9040FC
:1004D00022B9194B4343174C23600DE00F4B5B6867
:1004E00013F4003F04D0144B4343124C236003E049
:1004F0000F4B43430F4C236003E00D4B0D4C236027
:1005000000BF00BF054B5B68C3F303130B4CE15CFA
:10051000084B1B68CB40074C236010BD0010024005
:10052000002002400000FFF8FFFFF6FE08ED00E0AB
:1005300000127A000400002000093D00080000209D
:1005400070B504460E4626B10221FE4800F01DFE9D
:1005500003E00221FB4800F01AFE1021FA4800F0E7
:1005600016FE002517E02021F74800F010FE14F0D9
:10057000800F04D08021F44800F007FE03E08021C2
:10058000F14800F004FE2021EF4800F0FEFD600677
:10059000040E681CC5B2082DE5DB1021EA4800F006
:1005A000F4FD0221E74800F0F0FD70BD70B504468F
:1005B0000D4605F1B001C8B20021FFF7C1FF1021BF
:1005C00041EA14100021FFF7BBFF04F00F0141F0D6
:1005D00001000021FFF7B4FF70BD10B500218D2090
:1005E000FFF7AEFF00211420FFF7AAFF0021AF2084
:1005F000FFF7A6FF10BD10B500218D20FFF7A0FF6B
:1006000000211020FFF79CFF0021AE20FFF798FF8C
:1006100010BD70B5002419E004F1B001C8B200218A
:10062000FFF78EFF00210846FFF78AFF0021102008
:10063000FFF786FF002505E001210020FFF780FF7E
:10064000681CC5B2802DF7DB601CC4B2082CE3DB4C
:1006500070BD2DE9F04107460E4690460025002466
:10066000A8F12000C5B27F2F02DD0027B01CC6B262
:1006700031463846FFF79AFF002408E004EB0511E5
:10068000B24A505C0121FFF75BFF601CC4B2082C2A
:10069000F4DB701CC1B23846FFF788FF002409E084
:1006A00004EB05110831A94A505C0121FFF748FF0E
:1006B000601CC4B2082CF3DBBDE8F0812DE9F05FCB
:1006C00006460F4690461C46DDF828A04FF0000B6A
:1006D000E11704EB5171C910B4EBC10106D12046FA
:1006E000E11704EB5171C1F3C70506E02046E1179D
:1006F00004EB5171C910491CCDB23D4615E02946A5
:100700003046FFF753FFB1460BE059460BF1010BA2
:100710001AF801000121FFF713FF09F1010000F0B1
:10072000FF09C145F1DB681CC5B2A542E7DBBDE8A6
:10073000F09F38B5002410E000250AE004EBC51056
:10074000401C8349085C04EBC511814A5054681C65
:10075000C5B2082DF2DB601CC4B2802CECDB012496
:1007600007E000200121C1EBC411794A5054601CFC
:10077000C4B2092CF5DB764807237F2200210090C4
:100780000846FFF79BFF38BD10B50246012000E088
:1007900050430B00A1F10104E1B2F9D110BD2DE9E4
:1007A000FF4F81B0804615461E460E9F4FF0000A4F
:1007B00000200090002D02DA6D424FF0010A002463
:1007C00032E0301B401EC1B20A20FFF7DDFFB5FB4F
:1007D000F0F00A21B0FBF1F201FB1209009898B980
:1007E000701EA04210DDB9F1000F0BD1BB4607EB24
:1007F000DB71491001FB0481C8B220220299FFF786
:1008000028FF0FE001200090BB4607EBDB71491089
:1008100001FB0481C8B209F13001CAB20299FFF7A5
:1008200018FF00BF601CC4B2B442CADBBAF1010FAA
:1008300004D12D2240460299FFF70BFF05B0BDE819
:10084000F08F2DE9F04105460C4616460DB980257E
:1008500001E0681EC5B22746E01704EB5070C0F3F4
:10086000C7012846FFF7A2FE284605EBD0714910C4
:10087000A5EB410101290AD1E11704EB5171C9101F
:1008800005EBC111324A505C0121FFF759FE0EB150
:10089000632E39D12046E71704EB5777FF10A4EBFE
:1008A000C70CFE2707FA0CF721464FEAE47C04EB5D
:1008B0005C7C4FEAEC0CA4EBCC0CCCF108084FF0BC
:1008C000FF0C4CFA08FC47EA0C0722464FEAE47C8E
:1008D00004EB5C7C4FEAEC0C05EBCC1C0CF1010C3E
:1008E000DFF86C8018F80CC007EA0C0723464FEAC3
:1008F000E47C04EB5C7C4FEAEC0C05EBCC1C0CF1CB
:10090000010C08F80C702AE02046E31704EB53733F
:10091000DB1005EBC3135B1C0D4FFB5C2146E71797
:1009200004EB5777FF10A4EBC70C012707FA0CF76D
:100930003B43DFB22246E31704EB5373DB1005EBB6
:10094000C31307E0000C014000080140F42C00082C
:10095000380000205B1CDFF8DCC20CF8037027466F
:10096000E11704EB5171C91005EBC111491CB14AE3
:10097000505C0121FFF7E4FDBDE8F0812DE9FC5F4B
:1009800005460E4617461C46DDF83080384601F015
:10099000B5FF0190A849384601F0CCFF834601F02D
:1009A000ADFF642190FBF1F201FB1209B9F1000FD8
:1009B00001DB484601E0C9F100008246E01EC3B2F7
:1009C000CDF8008031462846019AFFF7E8FE0D2257
:1009D00002EBC602D1B205EBC402153AD0B2012235
:1009E000FFF72FFF05EBC4011039C8B202235246AE
:1009F0003146CDF80080FFF7D2FEBDE8FC9F2DE91F
:100A0000F04104460F46154600260EE0AA5D394621
:100A10002046FFF71EFE04F10800C4B2782C02DD68
:100A20000024B81CC7B2701CC6B2A85D0028EDD166
:100A3000BDE8F0812DE9F04180460E4615460027BD
:100A400031464046FFF7B2FD00240AE07B4A02EB44
:100A50008511085D0121FFF773FD781CC7B2601C8A
:100A6000C4B2102CF2DB701CC1B24046FFF79EFDF1
:100A700000240CE06900491C704A02EB4111085D3A
:100A80000121FFF75DFD781CC7B2601CC4B2102CB9
:100A9000F0DBBDE8F08138B5002404E000206549B2
:100AA0000855601C84B2B4F5806FF7DB61480823F9
:100AB0007F22002100900846FFF700FE38BD08B5F0
:100AC0000121042000F06CFDB020ADF800001020E2
:100AD0008DF8030003208DF802006946584800F0A5
:100AE000A9FAB021564800F050FB0121082000F07F
:100AF00057FD40F20310ADF8000010208DF8030000
:100B000003208DF8020069464E4800F093FA40F247
:100B100003114C4800F039FB01214A4800F035FB35
:100B2000642000F0CDF80121464800F030FBC820D9
:100B300000F0C6F80121434800F027FB0021AE2059
:100B4000FFF7FEFC00210846FFF7FAFC0021102009
:100B5000FFF7F6FC00214020FFF7F2FC0021812086
:100B6000FFF7EEFC0021CF20FFF7EAFC0021A120D7
:100B7000FFF7E6FC0021C820FFF7E2FC0021A620D9
:100B8000FFF7DEFC0021A820FFF7DAFC00213F2060
:100B9000FFF7D6FC0021D320FFF7D2FC0021084646
:100BA000FFF7CEFC0021D520FFF7CAFC00218020F2
:100BB000FFF7C6FC0021D920FFF7C2FC0021F1207D
:100BC000FFF7BEFC0021DA20FFF7BAFC002112205B
:100BD000FFF7B6FC0021DB20FFF7B2FC002140202C
:100BE000FFF7AEFC00212020FFF7AAFC0021022025
:100BF000FFF7A6FC00218D20FFF7A2FC00211420A6
:100C0000FFF79EFC0021A420FFF79AFC0021A620FC
:100C1000FFF796FC0021AF20FFF792FC0021AF20E8
:100C2000FFF78EFCFFF7F5FC00210846FFF7BEFC3E
:100C300008BD0000380000200000C842E43200086F
:100C400000080140000C014010B56FF0040000F0F6
:100C500073F92D4800682D49B0FBF1F02C4908705C
:100C60000846007800EB4001C1EBC0104FF6FF7161
:100C700001EAC0002749088010BD0146244A1278C5
:100C80004A434FF0E0235A6100229A611A461269E2
:100C900042F001021A6100BF4FF0E022106910F02B
:100CA000010F02D010F4803FF6D04FF0E02212691D
:100CB00022F001024FF0E0231A6100229A6170478E
:100CC0000146144A12884A434FF0E0235A61002239
:100CD0009A611A46126942F001021A6100BF4FF090
:100CE000E022106910F0010F02D010F4803FF6D01E
:100CF0004FF0E022126922F001024FF0E0231A6166
:100D000000229A61704700000400002000127A005F
:100D1000180000201A000020014600BF704700BFE5
:100D2000494A128812F0400FFAD0C2B2464B1B1D3E
:100D30001A80704710B586B00446012144F20500C0
:100D400000F02EFC4FF40070ADF8140003208DF875
:100D5000160018208DF8170005A93C4800F06AF924
:100D60004FF48060ADF8140004208DF8170005A939
:100D7000364800F05FF925208DF8000003208DF83B
:100D800001008DF8020001208DF80300684600F094
:100D900088F801940020ADF80800ADF80A00ADF81D
:100DA0000C00ADF810000C20ADF80E0001A926488B
:100DB00000F0A1FC012240F22551234800F033FD50
:100DC0000121214800F023FD06B010BD10B540F20E
:100DD00025511D4800F00CFE10B31B4800F088FDA3
:100DE000C4B21B48008810F4004F2BD1184800886B
:100DF00010F4804F0CD00A2C03D000201449088036
:100E000020E01348008840F400401149088019E0B0
:100E10000D2C06D10E48008840F480400C49088013
:100E200010E00B480088C0F30D000A490C54084834
:100E30000088401C0649088008460088C72801DD54
:100E40000020088010BD000000380140000801406B
:100E50001C0000203804002009488047094800474A
:100E6000FEE7FEE7FEE7FEE7FEE7FEE7FEE7FEE75A
:100E7000FEE7FEE704480549054A064B70470000B7
:100E8000410400083101000860050020600B0020CB
:100E9000600700206007002031490143314A11609A
:100EA000704770B5002100230F22C4780CB32D4C7D
:100EB000246804F4E064C4F5E064210AC1F1040389
:100EC000CA40447804FA03F18478144021430901AC
:100ED000254C0678A155047804F01F050124AC4088
:100EE00005786D114FF0E02606EB8505C5F8004149
:100EF00009E0047804F01F050124AC401B4D06787E
:100F0000761145F8264070BD194A0A400243154B38
:100F10001B1F1A60704739B1124A121D1268024332
:100F2000104B1B1D1A6006E00E4A121D1268824308
:100F30000C4B1B1D1A607047042808D14FF0E021AC
:100F4000096941F004014FF0E022116107E04FF020
:100F5000E021096921F004014FF0E022116170479E
:100F60000000FA050CED00E000E400E080E100E0A4
:100F700080FFFF1F10B50446CA48844208D10121F2
:100F8000042000F027FB0021042000F023FB46E0B2
:100F9000C548844208D10121082000F01BFB002134
:100FA000082000F017FB3AE0C048844208D1012134
:100FB000102000F00FFB0021102000F00BFB2EE0B2
:100FC000BB48844208D10121202000F003FB00210E
:100FD000202000F0FFFA22E0B648844208D1012127
:100FE000402000F0F7FA0021402000F0F3FA16E06C
:100FF000B148844208D10121802000F0EBFA0021A1
:10100000802000F0E7FA0AE0AC48844207D10121D1
:10101000801500F0DFFA0021A01500F0DBFA10BD0A
:1010200010B50121084600F0D5FA0021012000F09A
:10103000D1FA10BD2DE9F04102460025002600201E
:1010400000230024002791F803C00CF00F0591F84D
:1010500003C01CF0100F03D091F802C04CEA050544
:1010600091F800C0BCF1000F31D0146800202BE0D3
:101070004FF0010C0CFA00F3B1F800C00CEA0306C3
:101080009E4220D183004FF00F0C0CFA03F7BC43B3
:1010900005FA03FC4CEA040491F803C0BCF1280FE4
:1010A00006D14FF0010C0CFA00FCC2F814C00AE0A3
:1010B00091F803C0BCF1480F05D14FF0010C0CFAB8
:1010C00000FCC2F810C0401C0828D1D31460B1F84D
:1010D00000C0BCF1FF0F34DD546800202EE000F1A9
:1010E000080C4FF0010808FA0CF3B1F800C00CEA44
:1010F00003069E4221D183004FF00F0C0CFA03F738
:10110000BC4305FA03FC4CEA040491F803C0BCF1AB
:10111000280F05D100F1080C08FA0CF8C2F8148069
:1011200091F803C0BCF1480F07D100F1080C4FF053
:10113000010808FA0CF8C2F81080401C0828CED329
:101140005460BDE8F0814FF6FF710180022181708B
:101150000421C17070470246002093680B4201D001
:10116000012000E0002070470146886880B2704787
:1011700002460020D3680B4201D0012000E000208D
:1011800070470146C86880B270470161704741618D
:1011900070470AB1016100E041617047C16070476A
:1011A0004FF480320A43826181618261826982697F
:1011B000704702460020424B18684FF68073184073
:1011C00040EA021008433E4B186070473D49C86131
:1011D0007047F0B50A46002300240021002500F0E6
:1011E0000046B6F1004F02D1354EF16901E0344EB0
:1011F0007168C0F3034583B200F44016B6F5401F92
:1012000008D121F070612E4E766826F070662C4F62
:101210007E6012E000F48016B6F5801F06D103262A
:1012200006FA05F4A14341F0706106E0460D36016F
:1012300003FA06F6B14341F0706122B1460D360162
:1012400003FA06F6314300F00046B6F1004F02D132
:101250001B4EF16101E01A4E7160F0BD30B5002205
:101260008B071C0F0F2303FA04F2154B08338C1065
:1012700053F824309343124C08348D1044F8253031
:1012800023468C1053F824308C07240F00FA04F402
:1012900023430B4C08348D1044F8253030BD0A49E7
:1012A0000860704700080140000C01400010014038
:1012B0000014014000180140001C014000200140C2
:1012C0000000014000002042DC002042DD480068B0
:1012D00040F00100DB49086008464068DA490840F0
:1012E000D849486008460068D8490840D549086090
:1012F0000846006820F4802008600846406820F412
:10130000FE0048604FF41F0088607047CD490968AF
:1013100021F48031CB4A11601146096821F4802103
:101320001160B0F5803F03D0B0F5802F0ED106E0FC
:10133000C449096841F48031C24A116007E0C149DB
:10134000096841F4A021BF4A116000E000BF00BF5E
:10135000704710B501460022002300204A11012ADF
:1013600002D1B84C236806E0022A02D1B54C236AA8
:1013700001E0B44C636A01F01F02012494401C4256
:1013800001D0012000E0002010BD38B50020009001
:101390000024002500BF3120FFF7DBFF0546009841
:1013A000401C00900098B0F5A06F01D0002DF2D045
:1013B0003120FFF7CEFF08B1012400E000242046D1
:1013C00038BD014600209F4A106820F0F80040EA2E
:1013D000C100106070479E490860704702460020B7
:1013E000984B586820F47C1042EA01031843954B4F
:1013F0005860704796490866704701460020914A38
:10140000506820F003000843506070478D484068E2
:1014100000F00C007047014600208A4A506820F016
:10142000F00008435060704701460020854A50682C
:1014300020F4E06008435060704701460020814A74
:10144000506820F4605040EAC1005060704729B1F4
:101450007C4A527A02437B4B5A7204E0794A527AB0
:101460008243784B5A7270477A4908607047014648
:101470000020744A506820F4404008435060704790
:101480000021754A11706F4A82F82010012802D09D
:10149000042808D103E001216F4A117004E00521FE
:1014A0006D4A117000E000BF00BF70476B490860D3
:1014B00070476449096A0143624A1162704767498B
:1014C00044390860704730B5002100220024002311
:1014D0005C4D6D6805F00C0121B1042905D0082987
:1014E00023D105E05E4D056022E05D4D05601FE003
:1014F000544D6D6805F47012524D6D6805F48034DA
:10150000022505EB92421CB9564D554305600BE090
:101510004C4D6D6815F4003F03D0524D55430560A6
:1015200002E04F4D5543056002E04D4D056000BFA0
:1015300000BF444D6D6805F0F00109094A4D6B5C30
:101540000568DD4045603F4D6D6805F4E061090ABE
:10155000454D6B5C4568DD4085603A4D6D6805F42E
:101560006051C90A404D6B5C4568DD40C560354D32
:101570006D6805F44041890B3C4D6B5CC568B5FB5B
:10158000F3F5056130BD29B12E4A526902432D4B56
:101590005A6104E02B4A526982432A4B5A617047D0
:1015A00029B1284A92690243264B9A6104E0254AF0
:1015B00092698243234B9A61704729B1214AD269CB
:1015C0000243204BDA6104E01E4AD26982431D4B7C
:1015D000DA61704729B11B4AD2680243194BDA60BD
:1015E00004E0184AD2688243164BDA60704729B18A
:1015F000144A12690243134B1A6104E0114A12693A
:101600008243104B1A617047144940390860704793
:101610000F49C86470470B49C87170470948406A50
:1016200040F0807007494862704701460020054A33
:1016300092680A4201D0012000E000207047014971
:1016400088727047001002400000FFF8FFFFF6FEAE
:1016500000004242D8004242201002408004424230
:1016600000127A0000093D00240000203400002010
:1016700010B50446FB48844209D101218803FFF7D5
:10168000A9FF00214FF48040FFF7A4FF32E0F648A5
:10169000844209D101214804FFF7A9FF00214FF43A
:1016A0000030FFF7A4FF25E0F048844209D1012172
:1016B0008804FFF79CFF00214FF48020FFF797FF7D
:1016C00018E0EB48844209D10121C804FFF78FFFDD
:1016D00000214FF40020FFF78AFF0BE0E548844229
:1016E00008D101210805FFF782FF00214FF4801087
:1016F000FFF77DFF10BD2DE9F04786B005460E4689
:101700000024A24600BFA1460027B08900B100BF57
:101710002F462C8A4CF6FF700440F08804432C823C
:10172000AC894EF6F3100440B088318908437189C2
:1017300008430443AC81AC8A4FF6FF400440B089B3
:101740000443AC8201A8FFF7BEFEC648874202D11F
:10175000DDF810A001E0DDF80CA0A88910F4004F1E
:1017600008D00AEBCA0000EB0A1031684900B0FB50
:10177000F1F807E00AEBCA0000EB0A1031688900B3
:10178000B0FBF1F86420B8FBF0F0040120096421FB
:1017900001FB1089A88910F4004F08D0322000EB1B
:1017A000C900B0FBF1F000F00700044308E032206C
:1017B00000EB09106421B0FBF1F000F00F000443CE
:1017C0002C8106B0BDE8F0874FF41651016000216E
:1017D0008180C18001810C2141810021818170477C
:1017E00010B502460020108A4FF2FF0318400B8804
:1017F0004C8823438C882343CC882343184310828E
:1018000010BD0021018041808180C180704721B1DD
:10181000828942F40052828104E082894DF6FF738E
:101820001A4082817047F0B5034600240026002547
:101830000020A1F510676A3F00D100BF1846C1F330
:10184000421401F01F06012707FA06F5012C01D109
:101850000C3004E0022C01D1103000E014301AB139
:1018600007682F43076002E00768AF430760F0BDD9
:101870001AB1838A0B43838202E0838A8B4383827B
:101880007047028A4FF6F0731A400282028A0A43B6
:101890000282704782894FF2FF731A4082818289E7
:1018A0000A438281704721B1828942F0020282811B
:1018B00004E082894FF6FD731A4082817047028AE4
:1018C0004FF6DF731A400282028A0A43028270478F
:1018D00021B1028A42F48042028204E0028A4BF67D
:1018E000FF731A4002827047C1F30802828070477A
:1018F00001468888C0F308007047818941F00101E2
:1019000081817047028BD2B20283028B42EA0122AC
:1019100002837047028B02F47F420283028B0A43E8
:101920000283704721B1828A42F02002828204E061
:10193000828A4FF6DF731A408282704721B1828A11
:1019400042F01002828204E0828A4FF6EF731A405E
:101950008282704721B1828A42F00802828204E0CA
:10196000828A4FF6F7731A408282704721B18289CA
:1019700042F40042828103E08289C2F30E02828136
:10198000704721B1828A42F40062828204E0828A36
:101990004FF2FF731A4082827047828A4FF6FB73C0
:1019A0001A408282828A0A438282704721B1828AE7
:1019B00042F00202828204E0828A4FF6FD731A40EE
:1019C0008282704702460020B1F5007F00D100BF3F
:1019D00013880B4201D0012000E00020704701F481
:1019E0000072B2F5007F00D100BFCA430280704789
:1019F00070B502460024002300250020A1F51066E2
:101A00006A3E00D100BFC1F3421501F01F03012659
:101A100006FA03F3012D02D19689334006E0022D28
:101A200002D1168A334001E0968A33400C12012617
:101A300006FA04F41688344013B10CB1012000E01A
:101A4000002070BD10B500220023A1F510646A3C8F
:101A500000D100BF0A1201249440A3B2DC430480E9
:101A600010BD000000380140004400400048004024
:101A7000004C00400050004010B50446FE4884422F
:101A800008D10121C014FFF7A5FD0021E014FFF7E4
:101A9000A1FDC4E0B4F1804F08D101210846FFF751
:101AA000A6FD00210120FFF7A2FDB8E0F348844223
:101AB00008D101210220FFF79AFD00210220FFF743
:101AC00096FDACE0EE48844208D101210420FFF7E6
:101AD0008EFD00210420FFF78AFDA0E0E948844242
:101AE00008D101210820FFF782FD00210820FFF71F
:101AF0007EFD94E0E448844208D101211020FFF7E4
:101B000076FD00211020FFF772FD88E0DF48844257
:101B100008D101212020FFF76AFD00212020FFF7D6
:101B200066FD7CE0DA48844208D101214014FFF7C9
:101B300051FD00216014FFF74DFD70E0D54884424F
:101B400009D10121C804FFF745FD00214FF4002011
:101B5000FFF740FD63E0D048844209D10121080528
:101B6000FFF738FD00214FF48010FFF733FD56E0FA
:101B7000CA48844209D101214805FFF72BFD002105
:101B80004FF40010FFF726FD49E0C548844208D114
:101B900001214020FFF72BFD00214020FFF727FD0A
:101BA0003DE0C048844208D101218020FFF71FFD9D
:101BB00000218020FFF71BFD31E0BB48844208D1A3
:101BC00001218015FFF713FD0021A015FFF70FFD80
:101BD00025E0B648844209D101210804FFF7FAFC48
:101BE00000214FF48030FFF7F5FC18E0B048844244
:101BF00009D101214804FFF7EDFC00214FF400302A
:101C0000FFF7E8FC0BE0AB48844208D101218804CF
:101C1000FFF7E0FC00214FF48020FFF7DBFC10BD54
:101C200000220288944B98420ED0994B98420BD0D8
:101C3000B0F1804F08D0914B984205D0904B98421C
:101C400002D0904B984204D14FF68F731A404B88C4
:101C50001A438D4B984207D08C4B984204D04FF6D4
:101C6000FF431A40CB881A4302808B8883850B88F8
:101C70000385814B98420BD0854B984208D08B4B03
:101C8000984205D08A4B984202D08A4B984201D1A3
:101C90000B7A038601238382704770B500240022EB
:101CA0000023058C4FF6FE7635400584028C838830
:101CB000048B4FF68F752C40B51E2C400D882C439D
:101CC000751E2A400D892A434D882A436A4DA84231
:101CD0000BD06F4DA84208D0744DA84205D0744D6A
:101CE000A84202D0734DA84213D14FF6F7752A408F
:101CF0004D892A434FF6FB752A408D882A434FF6BB
:101D0000FF652B404FF6FF552B408D892B43CD8926
:101D10002B4383800483CD888586028470BD70B593
:101D2000002400220023058C4FF6EF763540058411
:101D3000028C8388048B48F6FF752C404FF6FF45D4
:101D40002C400D884FF6FF7606EA05252C434FF60A
:101D5000DF752A400D8906EA05152A434D8806EAF3
:101D600005152A43444DA84202D0494DA8421DD131
:101D70004FF67F752A404D894FF6FF7606EA051526
:101D80002A434FF6BF752A408D8806EA05152A4377
:101D90004FF6FF352B404FF2FF752B408D8906EA39
:101DA00085052B43CD8906EA85052B438380048373
:101DB000CD880587028470BD70B500240022002301
:101DC000058C4FF6FF6635400584028C8388848B32
:101DD0004FF68F752C404FF6FC752C400D882C4328
:101DE0004FF6FF552A400D894FF6FF7606EA052586
:101DF0002A434D8806EA05252A431F4DA84202D0F2
:101E0000234DA8421DD14FF2FF752A404D894FF650
:101E1000FF7606EA05252A434FF6FF352A408D88CE
:101E200006EA05252A434EF6FF752B404DF6FF7551
:101E30002B408D8906EA05152B43CD8906EA051549
:101E40002B4383808483CD888587028470BD70B5E1
:101E5000002200230024058C4EF6FF7635400584D1
:101E6000038C8488828B48F6FF752A404FF6FF4525
:101E70002A400D8820E00000002C014000040040B2
:101E800000080040000C004000100040001400401A
:101E900000340140004C014000500140005401401A
:101EA00000180040001C004000200040004001409D
:101EB00000440140004801404FF6FF7606EA052540
:101EC0002A434DF6FF752B400D8906EA05352B4355
:101ED0004D8806EA05352B43FA4DA84202D0FA4D4B
:101EE000A84208D14BF6FF752C408D894FF6FF763E
:101EF00006EA85152C4384808283CD88A0F8405063
:101F0000038470BD828B4FF2FF331A408283828B31
:101F10004FF6FF7303EA01231A4382837047F0B53B
:101F20000C461546002200210026078C4EF6FF7C49
:101F300007EA0C070784828B018C4FF6FF7707EACC
:101F4000043640F6FF473A404FF6FF7707EA052789
:101F50003A434FF6FF7707EA03373A43D94FB8427F
:101F60000ED0D94FB8420BD0B0F1804F08D0D74F28
:101F7000B84205D0D64FB84202D0D64FB84206D1AB
:101F80004DF6FF77394046F48057394305E047F670
:101F9000FF57394044F48057394382830184F0BDB0
:101FA000828B4FF6F3731A408283828B0A438283BB
:101FB0007047F0B50C461546002200210026078C1C
:101FC0004FF6FF6C07EA0C070784828B018C4FF6F3
:101FD000FF7707EA04264FF60C773A404FF6FF7773
:101FE00007EA03172F433A43B64FB8420ED0B64F15
:101FF000B8420BD0B0F1804F08D0B44FB84205D0F2
:10200000B34FB84202D0B34FB84206D14FF6FF5794
:10201000394046F48077394305E04FF2FF573940A5
:1020200044F48077394382830184F0BD028B4FF200
:10203000FF331A400283028B4FF6FF7303EA01233A
:102040001A4302837047F0B50C4615460022002162
:102050000026078C4FF6EF7C07EA0C070784028BFB
:10206000018C4FF6FF7707EA041640F6FF473A4027
:102070004FF6FF7707EA03373A434FF6FF7707EA51
:1020800005273A438F4FB8420ED08F4FB8420BD03E
:10209000B0F1804F08D08D4FB84205D08C4FB84278
:1020A00002D08C4FB84206D14FF6DF77394046F068
:1020B0001007394305E04FF65F77394044F01007C9
:1020C000394302830184F0BD028B4FF6F3731A404B
:1020D0000283028B0A4302837047F0B50C46154613
:1020E00000220021068C4FF6FE773E400684028BCC
:1020F000018C4FF60C7632407E1C06EA03162E4306
:102100003243704EB0420ED06F4EB0420BD0B0F1A1
:10211000804F08D06D4EB04205D06D4EB04202D017
:102120006C4EB04206D14FF6FD76314044F00106C8
:10213000314305E04FF6F576314044F00106314376
:1021400002830184F0BD70B505460C465D488542AA
:102150000ED05D4885420BD0B5F1804F08D05B486A
:10216000854205D05A48854202D05A48854200D15E
:1021700000E000BF208850B92389A28861882846E2
:10218000FFF7ABFFE1882846FFF79EFF25E0208898
:1021900004280AD12389A28861882846FFF753FFC3
:1021A000E1882846FFF742FF17E0208808280AD177
:1021B0002389A28861882846FFF7FBFEE18828462C
:1021C000FFF7EEFE09E02389A28861882846FFF721
:1021D000A6FEE1882846FFF795FE70BD2DE9F04187
:1021E00005460C4600260127608808B9022600E053
:1021F0000026A088012801D1022700E001272088BD
:10220000A0B92389A28861882846FFF766FFE18884
:102210002846FFF759FF23893A4631462846FFF7FB
:1022200012FFE1882846FFF701FF13E02389A28807
:1022300061882846FFF707FFE1882846FFF7F6FE8A
:1022400023893A4631462846FFF747FFE18828466A
:10225000FFF73AFFBDE8F0810A884B881A438B8864
:102260001A43CB881A430B891A434B891A438B892B
:102270001A43A0F8442070474FF6FF718180002177
:102280000180C1804180017270470021018041803E
:102290008180C180018141818181C181704700219C
:1022A00001804180012181800021C180018170472E
:1022B0000021018041808180C18001814181818133
:1022C00070470000002C0140003401400004004031
:1022D00000080040000C004021B1028842F00102D9
:1022E000028004E002884FF6FE731A4002807047B5
:1022F00031B1B0F8442042F40042A0F8442005E097
:10230000B0F84420C2F30E02A0F8442070471AB17E
:1023100083890B43838102E083898B4383817047E8
:102320008182704741EA0203A0F8483070471AB131
:1023300083890B43838102E083898B4383817047C8
:1023400001894FF6F8721140018170470A46002159
:1023500001894FF68F73194011430181704730B5E1
:1023600004460D4629462046FFF7F0FF208940F03D
:102370000700208130BD2DE9F04104460D46164688
:102380001F46602D06D13B46012231462046FFF70D
:102390005AFE05E03B46012231462046FFF79DFEEE
:1023A00029462046FFF7D2FF208940F00700208110
:1023B000BDE8F08130B50C4600210189C9B24FF665
:1023C000FF7505EA0325154325432943018130BDE7
:1023D0002DE9F04105460E4617469846002443462F
:1023E0003A4631462846FFF7E5FF2C894FF6F8704C
:1023F000044044F007044FF68F70044044F070042A
:102400002C81BDE8F081F0B504460D4616461F4606
:102410003B46324629462046FFF7CCFF208940F450
:1024200080402081F0BD0185828270470A460021EC
:1024300001884FF68F731940114301807047F0B542
:102440000C4615461E460021002200230189028BFE
:10245000038C4FF6F877394021434FF6FC473A405A
:1024600040F201173A434FF6DD773B404FF6FF77D6
:1024700007EA06172F433B43018102830384F0BD23
:102480000A460021018B4FF68F73194011430183D7
:1024900070470A460021018B48F6FF7319404FF63A
:1024A000FF7303EA02231943018370470A460021A0
:1024B000818B4FF68F7319401143818370470A4611
:1024C0000021818B48F6FF7319404FF6FF7303EA32
:1024D000022319438183704721B1028842F08002B0
:1024E000028004E002884FF67F731A400280704732
:1024F00021B1828842F00402828004E082884FF693
:10250000FB731A408280704721B1828842F0080232
:10251000828004E082884FF6F7731A408280704709
:1025200021B1828842F00102828004E082884FF665
:10253000FE731A40828070470A460021018B4FF6D5
:10254000F77319401143018370470A460021018B3C
:102550004FF2FF7319404FF6FF7303EA022319434A
:10256000018370470A460021818B4FF6F7731940AB
:102570001143818370470A460021818B4FF2FF731C
:1025800019404FF6FF7303EA022319438183704712
:102590000A460021018B4FF6FB731940114301835A
:1025A00070470A460021018B4FF6FF3319404FF662
:1025B000FF7303EA02231943018370470A4600218F
:1025C000818B4FF6FB7319401143818370470A4694
:1025D0000021818B4FF6FF3319404FF6FF7303EA5A
:1025E00002231943818370470A460021018B4FF66D
:1025F0007F7319401143018370470A460021018B04
:10260000C1F30E014FF6FF7303EA0223194301835E
:1026100070470A460021818B4FF67F7319401143A2
:10262000818370470A460021818BC1F30E014FF66A
:10263000FF7303EA02231943818370470A4600218E
:10264000018C4FF6FD7319401143018470470A460F
:102650000021018C4FF6F773194011430184704734
:102660000A460021018C4FF6DF7319404FF6FF73C5
:1026700003EA02131943018470470A460021018CC2
:102680004FF67F7319404FF6FF7303EA02131943A5
:10269000018470470A460021018C4FF6FF53194010
:1026A0004FF6FF7303EA02231943018470470A4679
:1026B0000021018C4FF2FF7319404FF6FF7303EABC
:1026C00002231943018470470A460021018C4DF60C
:1026D000FF7319404FF6FF7303EA02331943018475
:1026E000704730B5002301248C40A3B2048C9C4376
:1026F0000484048C02FA01F5ADB22C43048430BD8D
:1027000030B5002304248C40A3B2048C9C43048481
:10271000048C02FA01F5ADB22C43048430BD70B5CF
:102720000346002000241846183001258D40ACB225
:102730001D8CA5431D8409B1082909D100EB610056
:10274000056825F0700505600568154305600EE015
:102750000D1FC5F34E052844056825F4E0450560C6
:1027600005684FF6FF7606EA02263543056070BD20
:1027700021B1028842F00202028004E002884FF692
:10278000FD731A400280704721B1028842F00402B2
:10279000028004E002884FF6FB731A400280704703
:1027A00021B1828842F08002828004E082884FF664
:1027B0007F731A408280704702884FF6F7731A4081
:1027C000028002880A430280704782884FF68F7326
:1027D0001A40828082880A438280704702894FF6BD
:1027E000F8731A40028102890A4302817047028904
:1027F0004FF67F731A40028102890A4302817047B3
:102800008184704781857047818670470187704752
:1028100081877047A0F84010704702884FF6FF4349
:102820001A40028002880A43028070470146888E5F
:1028300070470146088F70470146888F70470146F0
:10284000B1F8400070470146888C70470146088DFA
:10285000704702460020138A0B4201D0012000E09D
:1028600000207047CA430282704730B502460020FC
:1028700000230024158A05EA0103958905EA01046D
:1028800013B10CB1012000E0002030BDCA43028228
:10289000704770477047704770477047754600F043
:1028A00029F8AE4605006946534620F007008546E4
:1028B00018B020B5FEF7DEFABDE820404FF0000664
:1028C0004FF000074FF000084FF0000B21F0070118
:1028D000AC46ACE8C009ACE8C009ACE8C009ACE85B
:1028E000C0098D4670470446AFF300802046FDF7CF
:1028F00066FC0000004870470005002041000B0EF8
:10290000D3F19E0208D950F400034FEA032323FABF
:1029100002F048BF4042704710B500F08CF800BF8D
:1029200049922480002070476FF0004282EA200024
:10293000704700004FF47F0C1CEAD0121EBF1CEA47
:10294000D11392EA0C0F93EA0C0F00F0478090EA43
:10295000010F48BF42F480724FF0004C4CEA002057
:102960004CEA012102EB0302A0FB0113A2F50002D5
:10297000002918BF43F001035B0028BF4FEA33036F
:1029800042EB22425FEA132C4CEBC2502EBFBCEB51
:10299000436FB2F57C0F70474FEA036CBCF1004FF8
:1029A00008BF20F00100B2F57C0F38BF70470BD58F
:1029B00082F0FF0212F5803FC8BF704700F1C040AF
:1029C000D8BF00F00040704700F5000C5FEA4C0CE7
:1029D00048BF7047B0F1C04000F073B890EA010FF3
:1029E0000CEAD11348BF42F48072624538BF634598
:1029F00004D280EA010000F00040704710B500F0FA
:102A00001AF800BF8900013E00F007B800F009B8CD
:102A10005FEA410C5FEA1C6C08D080EA010000F01C
:102A200050B85FEA400C5FEA1C6CF6D14FF00040F2
:102A3000A0F5800070470EF1020E2EF0030E5EF836
:102A4000044B244204D44FEA4102B2F17F4F11D823
:102A50004FEA4003B3F17F4F0CD80ED14FEAD07C40
:102A6000B2F17F4F0CEB4C0C0CF1020C08BF4CEB9D
:102A7000D17C04E04FF0080C01E04FEAD17C0CEB74
:102A80004C0324FA03F404F00704B4F1040C06D256
:102A90000EEB840CBDE810404CF0010C6047DFE801
:102AA0000CF0070802024FF00040A0F5800010BDB6
:102AB0000846420018BFD2F1807288BF00F0004083
:102AC00010BDFF2141EAD050C00570470000000052
:102AD00000000000002F00000000070007000014A5
:102AE0007F147F1400242A7F2A12006264081323B3
:102AF00000364955225000000503000000001C224A
:102B00004100000041221C000014083E0814000887
:102B1000083E0808000000A0600000080808080837
:102B2000000060600000002010080402003E5149CF
:102B3000453E0000427F400000426151494600216D
:102B400041454B31001814127F1000274545453987
:102B5000003C4A49493000017109050300364949E2
:102B6000493600064949291E00003636000000009B
:102B700056360000000814224100001414141414E6
:102B8000000041221408000201510906003249598F
:102B9000513E007C1211127C007F49494936003EAB
:102BA00041414122007F4141221C007F4949494166
:102BB000007F09090901003E4149497A007F080860
:102BC000087F0000417F4100002040413F01007F1D
:102BD00008142241007F40404040007F020C027FE9
:102BE000007F0408107F003E4141413E007F0909FB
:102BF0000906003E4151215E007F09192946004621
:102C0000494949310001017F0101003F4040403FF7
:102C1000001F2040201F003F4038403F0063140841
:102C2000146300070870080700615149454300001C
:102C30007F41410000552A552A55000041417F003F
:102C40000004020102040040404040400000010234
:102C50000400002054545478007F4844443800381D
:102C60004444442000384444487F003854545418A5
:102C700000087E0901020018A4A4A47C007F0804B7
:102C800004780000447D4000004080847D00007F87
:102C9000102844000000417F4000007C04180478A4
:102CA000007C0804047800384444443800FC2424A0
:102CB00024180018242418FC007C08040408004888
:102CC0005454542000043F444020003C4040207CA9
:102CD000001C2040201C003C4030403C0044281098
:102CE0002844001CA0A0A07C004464544C4414144C
:102CF0001414141400000000000000000000000084
:102D000000000000000000F8000000000000003398
:102D10003000000000100C06100C0600000000003F
:102D20000000000040C07840C0784000043F040428
:102D30003F040400007088FC08300000001820FFE9
:102D4000211E0000F008F000E018000000211C0324
:102D50001E211E0000F00888700000001E212324A0
:102D60001927211010160E000000000000000000BE
:102D700000000000000000E018040200000000074E
:102D80001820400000020418E00000000040201855
:102D900007000000404080F0804040000202010F28
:102DA00001020200000000F0000000000101011F0C
:102DB00001010100000000000000000080B0700070
:102DC0000000000000000000000000000001010100
:102DD000010101010000000000000000003030008F
:102DE0000000000000000000806018040060180669
:102DF0000100000000E010080810E000000F1020A3
:102E000020100F00001010F8000000000020203FEC
:102E10002020000000700808088870000030282476
:102E20002221300000300888884830000018202017
:102E300020110E000000C02010F80000000704243C
:102E4000243F240000F80888880808000019212081
:102E500020110E0000E0108888180000000F1120DB
:102E600020110E0000380808C83808000000003F94
:102E7000000000000070880808887000001C2221F3
:102E800021221C0000E010080810E00000003122A0
:102E900022110F00000000C0C00000000000003040
:102EA0003000000000000080000000000000806092
:102EB0000000000000008040201008000001020413
:102EC00008102000404040404040400004040404FA
:102ED00004040400000810204080000000201008B6
:102EE00004020100007048080808F00000000030EB
:102EF00036010000C030C828E810E0000718272479
:102F000023140B000000C038E0000000203C230226
:102F10000227382008F8888888700000203F202089
:102F200020110E00C03008080808380007182020BB
:102F30002010080008F808080810E000203F2020B2
:102F400020100F0008F88888E8081000203F202093
:102F50002320180008F88888E8081000203F200087
:102F600003000000C03008080838000007182020BF
:102F7000221E020008F808000008F808203F21017E
:102F800001213F20000808F8080800000020203F29
:102F90002020000000000808F8080800C080808099
:102FA0007F00000008F888C028180800203F200192
:102FB0002638200008F8080000000000203F2020EC
:102FC0002020300008F8F800F8F80800203F003F03
:102FD000003F200008F830C00008F808203F20001B
:102FE00007183F00E01008080810E0000F1020202C
:102FF00020100F0008F808080808F000203F210101
:1030000001010000E01008080810E0000F18242457
:1030100038504F0008F8888888887000203F2000CA
:10302000030C302000708808080838000038202180
:1030300021221C00180808F8080818000000203F8A
:103040002000000008F808000008F808001F2020F1
:1030500020201F000878880000C8380800000738C2
:103060000E010000F80800F80008F800033C070013
:10307000073C0300081868808068180820302C037B
:10308000032C30200838C800C83808000000203F52
:103090002000000010080808C83808002038262141
:1030A00020201800000000FE020202000000007F45
:1030B00040404000000C30C0000000000000000153
:1030C0000638C00000020202FE000000004040403E
:1030D0007F00000000000402020204000000000063
:1030E00000000000000000000000000080808080E0
:1030F00080808080000202040000000000000000C8
:103100000000000000008080808000000019242260
:1031100022223F2008F8008080000000003F11209C
:1031200020110E000000008080800000000E1120A1
:1031300020201100000000808088F800000E11207F
:1031400020103F200000808080800000001F22228D
:1031500022221300008080F0888888180020203FF9
:10316000202000000000808080808000006B94940C
:103170009493600008F8008080800000203F2100C8
:1031800000203F2000809898000000000020203F91
:1031900020200000000000809898000000C080807F
:1031A000807F000008F8000080808000203F24021B
:1031B0002D302000000808F8000000000020203F0B
:1031C000202000008080808080808000203F2000C0
:1031D0003F20003F8080008080800000203F210051
:1031E00000203F200000808080800000001F202001
:1031F00020201F00808000808000000080FFA12030
:1032000020110E000000008080808000000E112040
:1032100020A0FF80808080008080800020203F21CF
:103220002000010000008080808080000033242482
:1032300024241900008080E0808000000000001F2E
:10324000202000008080000000808000001F2020DF
:1032500020103F20808080000080808000010E30A0
:103260000806010080800080008080800F300C0301
:103270000C300F0000808000808080000020312E04
:103280000E312000808080000080808080818E70E0
:103290001806010000808080808080000021302C92
:1032A0002221300000000000807C020200000000AB
:1032B000003F404000000000FF0000000000000050
:1032C000FF0000000002027C800000000040403F40
:1032D00000000000000601010202040400000000DA
:1032E000000000000000FE82929292FE9292928272
:1032F000FE000000000000000000000000000000D0
:103300000000000080601F00001E1212121E40808C
:103310007F0000000000000000000000000000002E
:10332000000000004040405F555555755555555FAC
:1033300040404000000000000000000000000000CD
:10334000000000000040200F094989790909090F90
:10335000204000000000000000000000000000000D
:103360000000000000FE02424ACA4A4ACA4A4A42D3
:1033700002FE00000000000000000000000000004D
:103380000000000000FF40504C4340404F50505C54
:1033900040FF0000000000000000000000000000EE
:1033A000000000000000F888888888FF88888888E6
:1033B000F800000000000000000000000000000015
:1033C0000000000000001F080808087F888888881F
:1033D0009F80F000000000000000000000000000DE
:1033E0000000000080828282828282E2A2928A862B
:1033F000828080000000000000000000000000004B
:1034000000000000000000000040807F000000007D
:1034100000000000000000000000000000000000AC
:10342000000000002424A4FEA3220022CC0000FF00
:10343000000000000000000000000000000000008C
:1034400000000000080601FF00010404040404FF5A
:103450000202020000000000000000000000000066
:1034600000000000101010FF109008888888FF8866
:103470008888080000000000000000000000000034
:10348000000000000444827F01808040432C10280B
:1034900046818000000000000000000000000000E5
:1034A00000000000C43400080000002038000000C4
:1034B0006C010008FC34000838000020280B0000D4
:1034C000880100080000000000A24A04000000007B
:1034D00000000000010203040607080900000000C4
:1034E00000000000000000000000000001020304D2
:0C34F00001020304060708090204060894
:0400000508000131BD
:00000001FF
