:020000040800F2
:10000000700B002095110008890300088B0300087D
:100010008F03000893030008970300080000000006
:100020000000000000000000000000009B0300082A
:100030009D030008000000009F030008A1030008C2
:10004000AF110008AF110008AF110008AF11000890
:10005000AF110008AF110008AF110008AF11000880
:10006000AF110008AF11000845020008AF110008E9
:10007000AF110008AF110008AF110008AF11000860
:10008000AF110008AF110008AF110008A30300086A
:10009000A5030008AF110008AF110008AF11000858
:1000A000AF110008AF110008AF110008AF11000830
:1000B000AF110008AF110008AF110008AF11000820
:1000C000AF110008AF110008AF110008AF11000810
:1000D000AF1100080B110008AF110008AF110008A4
:1000E000AF110008AF110008AF110008AF110008F0
:1000F000AF110008AF110008AF110008AF110008E0
:10010000AF110008AF110008AF110008AF110008CF
:10011000AF110008AF110008AF110008AF110008BF
:10012000AF110008AF110008AF110008AF110008AF
:1001300000F002F800F03AF80AA090E8000C8244BF
:100140008344AAF10107DA4501D100F02FF8AFF29C
:10015000090EBAE80F0013F0010F18BFFB1A43F0A5
:10016000010318477C1E00009C1E0000103A24BFAB
:1001700078C878C1FAD8520724BF30C830C144BF0C
:1001800004680C607047000000230024002500264E
:10019000103A28BF78C1FBD8520728BF30C148BFEA
:1001A0000B6070471FB51FBD10B510BD01F097FE65
:1001B0001146FFF7F7FF00F028F801F0B5FE03B491
:1001C000FFF7F2FF03BC00F045FF000008B5012176
:1001D000042001F089FB41F60540ADF80000102035
:1001E0008DF8030003208DF802006946124801F0E3
:1001F000BFF84FF6FF70ADF8000004208DF8030043
:1002000069460E4801F0B4F808BD1CB500F0B8FE10
:10021000FFF7DCFF00BF00F0A0FE0128FBD10520A6
:1002200002210C234822CDE900101021044800F0DF
:1002300057FB00BFFEE7000000080140000C014032
:100240000010014010B5102001F03BFE5648007828
:10025000401C5549087008460078012817D15349B9
:10026000086000205249C1F8A8015249086004E022
:1002700050480068401C4F4908604E480068642898
:10028000F6D30120494908604B49C1F8A801464806
:100290000078022877D10020484908604848006863
:1002A00020F0100046490860081D006820F010008A
:1002B000091D08604348006880F008004149086053
:1002C00000203B49C1F8B0013849203908600120BD
:1002D0000860002008600120086034490831086087
:1002E0000020091F08603349086034E000202F49CE
:1002F0002039086001202E49C1F888013248006881
:10030000C0B2324908800020284920390860012005
:100310002749C1F888012C480068C0B22C490880E0
:10032000244800682B49884210D9224800682A498D
:1003300088420BD2264800782449097840EA0120F7
:100340001C490968234A891A244A505419480068EC
:10035000401C1849086017480068B0F5163FC5D31F
:1003600001201249091D086000200F490870144837
:10037000006840F0100012490860081D006840F055
:100380001000091D086010BD704700BFFEE700BFE8
:10039000FEE700BFFEE700BFFEE77047704770470B
:1003A000704770477047000000000020A8012142FC
:1003B000000021420400002000002242A801224245
:1003C000000401400C080140080C01400800002016
:1003D0000A00002070110100581501005C00002087
:1003E0000CB50020019000906C48006840F480300B
:1003F0006A49086000BF6948006800F40030009056
:100400000198401C0190009818B90198B0F5A06FB0
:10041000F1D16248006800F4003010B10120009072
:1004200001E0002000900098012843D15C4800685A
:1004300040F010005A4908600846006820F00300A8
:1004400008600846006840F00200086053484068B1
:10045000524948600846406848600846406840F491
:10046000806048600846406820F47C104860084678
:10047000406840F4E81048600846006840F080702A
:10048000086000BF4548006800F000700028F9D0FF
:100490004248406820F003004049486008464068F0
:1004A00040F00200486000BF3C48406800F00C008B
:1004B0000828F9D10CBD10B5FFF792FF10BD10B59B
:1004C0003648006840F0010034490860084640683A
:1004D00034490840314948600846006832490840BC
:1004E0002E4908600846006820F48020086008460D
:1004F000406820F4FE0048604FF41F008860FFF75A
:10050000DAFF4FF000602949086010BD10B50021E6
:1005100000200022214B5B6803F00C0121B104296B
:1005200006D0082928D107E0214B224C236027E080
:100530001F4B204C236023E0184B5B6803F47010C2
:10054000164B5B6803F48032022303EB904022B920
:10055000194B4343174C23600DE0104B5B6803F4C9
:10056000003323B1144B4343124C236003E0104B80
:100570004343104C236003E00D4B0E4C236000BF3F
:1005800000BF064B5B68C3F303130C4CE15C094BE3
:100590001B68CB40074C236010BD000000100240D8
:1005A000002002400000FFF8FFFFF6FE08ED00E02B
:1005B00000127A000C00002000093D00100000200D
:1005C0009D48806940F010009B4988619B484068C5
:1005D00020F47F20994948600846406840F44C3038
:1005E00048600846C06840F4C050C860704710B505
:1005F000012093490860642000F0DBFC0120914950
:10060000C1F8B001642000F0D4FC00208C490860DF
:10061000642000F0CEFC00208A49C1F8B0016420BB
:1006200000F0C7FC10BD10B50020854908606420AB
:1006300000F0BFFC01208349C1F8B001642000F044
:10064000B8FC01207E490860642000F0B2FC10BDB7
:1006500010B501207A490860642000F0AAFC01204E
:100660007849C1F8B001642000F0A3FC002074496F
:10067000091D0860642000F09CFC00207149C1F84D
:10068000AC01642000F095FC10BD10B56B484068CB
:1006900020F47040694948600846406840F4405082
:1006A0004860012066490860642000F082FC012057
:1006B0006449C1F8B001642000F07BFC002060496F
:1006C000091D0860642000F074FC01205D49C1F838
:1006D000AC0110BD10B501205949091D0860642006
:1006E00000F067FC5548406820F47040534948606A
:1006F0000846406840F400404860642000F059FC1F
:100700005048D0F82C01C4B2642000F052FC002004
:100710004B49091D0860642000F04BFC204610BDC9
:1007200070B5064600241EE006FA04F000F08000D2
:1007300018B101204249086002E0002040490860E9
:10074000642000F036FC01203D49091D086064204A
:1007500000F02FFC00203B49C1F8B001642000F0FC
:1007600028FC601CC4B2082CDEDB642000F021FCF5
:100770003248406820F4704030494860084640687C
:1007800040F400404860642000F013FC01202C4934
:10079000091D08604FF47A7000F00BFC2948D0F86E
:1007A0002C01012801D1002500E001250020244969
:1007B000091D0860642000F0FCFB2048406820F41C
:1007C00070401E4948600846406840F44050486008
:1007D000284670BD70B500241848406820F4704069
:1007E000164948600846406840F40040486064206C
:1007F00000F0DFFB08251BE0642000F0DAFB01209D
:100800000F49091D0860642000F0D3FB6006040E48
:100810000C48D0F82C01012801D1601CC4B2002082
:100820000749091D0860642000F0C3FB681EC5B2BB
:10083000002DE1DC204670BD001002400010014098
:10084000AC0122420000224210B50446204600F0CE
:10085000C1FC00214FF0006000F0F3FC10BD024627
:10086000002100BF08E0404850F82100904201D12B
:1008700008467047481CC1B20629F4DB0020F8E79F
:100880000246002100BF08E0384830F811009042CD
:1008900001D108467047481CC1B21029F4DB002082
:1008A000F8E72DE9F84307460D4616461C464FF07B
:1008B00000083846FFF7D3FF80462D4951F828003D
:1008C000012101F011F88DF80360ADF800500CB172
:1008D0008DF802406946384600F04AFDBDE8F883CD
:1008E0002DE9FE4F07460D4690461E46DDE90C9A5F
:1008F0004FF0000B00243846FFF7B1FF834628462F
:10090000FFF7BEFF04460023424629463846FFF75C
:10091000C8FF0121084600F0E7FF164A115D164A9C
:1009200012F80B0000F03AFE144850F82400019031
:1009300000208DF808008DF8096001208DF80A006C
:1009400001A801F047FA0E48005D8DF800008DF80F
:1009500001908DF802A001208DF80300684600F098
:100960003EFCBDE8FE8F0000200000203C1F000878
:100970005C1F00087F1F0008781F0008901F0008F8
:10098000D01F000870B505460C46FFF730FE422028
:10099000FFF7C6FE18B9FFF746FE002070BD6420C1
:1009A00000F007FB2846FFF7BBFE18B9FFF73BFE38
:1009B0000020F3E7642000F0FCFA2046FFF7B0FEC9
:1009C00018B9FFF730FE0020E8E7FFF72CFE012002
:1009D000E4E770B50446FFF70AFE4220FFF7A0FEE9
:1009E00018B9FFF720FE002070BD642000F0E1FA86
:1009F0002046FFF795FE18B9FFF715FE0020F3E734
:100A0000FFF711FE642000F0D4FAFFF7F0FD432059
:100A1000FFF786FE18B9FFF706FE0020E4E7642022
:100A200000F0C7FAFFF7D6FE0546FFF711FEFFF705
:100A3000FAFD2846D8E710B504213A20FFF7A2FFB7
:100A4000D0214020FFF79EFF14211220FFF79AFFCC
:100A500080213220FFF796FF16211720FFF792FF23
:100A600004211820FFF78EFF02211920FFF78AFFCB
:100A70007B211A20FFF786FF06210320FFF782FF64
:100A800000210C20FFF77EFF00213E20FFF77AFFB8
:100A90003A217020FFF776FF35217120FFF772FFB2
:100AA00011217220FFF76EFF00217320FFF76AFF0C
:100AB0000221A220FFF766FF81211120FFF762FFCC
:100AC00020217A20FFF75EFF1C217B20FFF75AFFD1
:100AD00028217C20FFF756FF3C217D20FFF752FFA5
:100AE00055217E20FFF74EFF68217F20FFF74AFF48
:100AF00076218020FFF746FF80218120FFF742FF0B
:100B000088218220FFF73EFF8F218320FFF73AFFE5
:100B100096218420FFF736FFA3218520FFF732FFBF
:100B2000AF218620FFF72EFFC4218720FFF72AFF81
:100B3000D7218820FFF726FFE8218920FFF722FF31
:100B4000E0211320FFF71EFF00210846FFF71AFFE0
:100B500000211020FFF716FF00210D20FFF712FFE4
:100B600028211420FFF70EFF0521A520FFF70AFF1B
:100B70000721AB20FFF706FF75212420FFF702FFB6
:100B800063212520FFF7FEFEA5212620FFF7FAFEB0
:100B900078219F20FFF7F6FE6821A020FFF7F2FEE4
:100BA0000321A120FFF7EEFEDF21A620FFF7EAFEDA
:100BB000DF21A720FFF7E6FEF021A820FFF7E2FEE5
:100BC0009021A920FFF7DEFE9421AA20FFF7DAFE8C
:100BD000E5211320FFF7D6FE61210E20FFF7D2FE9C
:100BE0004B210F20FFF7CEFE02211620FFF7CAFE91
:100BF00037211E20FFF7C6FE02212120FFF7C2FE8B
:100C000091212220FFF7BEFE07212920FFF7BAFE1F
:100C10000B213320FFF7B6FE0B213520FFF7B2FE84
:100C20001D213720FFF7AEFE71213820FFF7AAFE05
:100C30002A213920FFF7A6FE78213C20FFF7A2FEEB
:100C400040214D20FFF79EFE20214E20FFF79AFE07
:100C500000216920FFF796FE60216B20FFF792FECE
:100C600019217420FFF78EFE4F218D20FFF78AFE99
:100C700000218E20FFF786FE00218F20FFF782FEE5
:100C800000219020FFF77EFE00219120FFF77AFEE1
:100C900000219220FFF776FE00219620FFF772FEDA
:100CA00080219A20FFF76EFE8421B020FFF76AFEB4
:100CB0000C21B120FFF766FE0E21B220FFF762FE85
:100CC0008221B320FFF75EFE0A21B820FFF75AFE0B
:100CD00014214320FFF756FEF0214420FFF752FE77
:100CE00034214520FFF74EFE58214620FFF74AFEEB
:100CF00028214720FFF746FE3A214820FFF742FE11
:100D000088215920FFF73EFE88215A20FFF73AFE3E
:100D100044215B20FFF736FE67215C20FFF732FE9F
:100D200049215D20FFF72EFE0E215E20FFF72AFEEF
:100D300004216420FFF726FE20216520FFF722FE14
:100D400005216620FFF71EFE04219420FFF71AFEFE
:100D500008219520FFF716FE0A216C20FFF712FEEE
:100D600055216D20FFF70EFE11216E20FFF70AFEC0
:100D70009F216F20FFF706FE40216A20FFF702FE49
:100D800040210120FFF7FEFD40210220FFF7FAFD80
:100D9000E7211320FFF7F6FD00211520FFF7F2FDF4
:100DA00080214F20FFF7EEFD80215020FFF7EAFD64
:100DB00000215120FFF7E6FD22215220FFF7E2FD3E
:100DC0005E215320FFF7DEFD80215420FFF7DAFD7E
:100DD0009E215820FFF7D6FD08214120FFF7D2FDC4
:100DE00000213F20FFF7CEFD05217520FFF7CAFD4A
:100DF000E1217620FFF7C6FD00214C20FFF7C2FD60
:100E000001217720FFF7BEFDC2213D20FFF7BAFD8B
:100E100009214B20FFF7B6FD6021C920FFF7B2FD85
:100E200038214120FFF7AEFD40215620FFF7AAFDF3
:100E300011213420FFF7A6FD02213B20FFF7A2FD80
:100E40008921A420FFF79EFD00219620FFF79AFD3F
:100E500030219720FFF796FD20219820FFF792FD83
:100E600030219920FFF78EFD84219A20FFF78AFD1B
:100E700029219B20FFF786FD03219C20FFF782FD9F
:100E80004C219D20FFF77EFD3F219E20FFF77AFD3C
:100E900004217820FFF776FD01217920FFF772FD0C
:100EA000F021C820FFF76EFD0F217920FFF76AFDC2
:100EB0000021C820FFF766FD10217920FFF762FDB1
:100EC0007E21C820FFF75EFD0A217920FFF75AFD39
:100ED0008021C820FFF756FD0B217920FFF752FD36
:100EE0000121C820FFF74EFD0C217920FFF74AFDB4
:100EF0000F21C820FFF746FD0D217920FFF742FDA5
:100F00002021C820FFF73EFD09217920FFF73AFD97
:100F10008021C820FFF736FD02217920FFF732FD3E
:100F2000C021C820FFF72EFD03217920FFF72AFDFD
:100F30004021C820FFF726FD05217920FFF722FD7B
:100F40003021C820FFF71EFD26217920FFF71AFD6A
:100F500000210920FFF716FD10BD10B5FFF730FB8B
:100F6000802421461220FFF70DFD08B9002010BD96
:100F70000A2000F042F8FFF75EFD0120F7E70000CD
:100F800010B56FF0040000F074F92E4800682E4987
:100F9000B0FBF1F02D4908700846007800EB4001E5
:100FA000C1EBC0104FF6FF7101EAC000284908806C
:100FB00010BD0146254A12784A434FF0E0235A619A
:100FC00000229A611A46126942F001021A6100BFBA
:100FD0004FF0E022106900F001021AB100F48032F3
:100FE000002AF5D04FF0E022126922F001024FF002
:100FF000E0231A6100229A6170470146144A128860
:101000004A434FF0E0235A6100229A611A4612695E
:1010100042F001021A6100BF4FF0E022106900F0B7
:1010200001021AB100F48032002AF5D04FF0E0221C
:10103000126922F001024FF0E0231A6100229A6146
:10104000704700000C00002000127A003C000020D5
:101050003E000020014600BF704700BF494A128889
:1010600002F04002002AF9D0C2B2464B1B1D1A8082
:10107000704710B586B00446012144F2050000F027
:1010800033FC4FF40070ADF8140003208DF8160007
:1010900018208DF8170005A93B4800F069F94FF4B6
:1010A0008060ADF8140004208DF8170005A93648BB
:1010B00000F05EF925208DF8000003208DF8010076
:1010C0008DF8020001208DF80300684600F087F8D3
:1010D00001940020ADF80800ADF80A00ADF80C004E
:1010E000ADF810000C20ADF80E0001A9254800F065
:1010F000A2FC012240F22551224800F034FD0121DA
:10110000204800F024FD06B010BD10B540F2255176
:101110001C4800F00DFE10B31A4800F089FDC4B25F
:101120001A48008800F40040C8B91848008800F444
:10113000804060B10A2C03D000201449088020E0D0
:101140001248008840F400401049088019E00D2C36
:1011500006D10E48008840F480400C49088010E019
:101160000A480088C0F30D0009490C54074800885C
:10117000401C0649088008460088C72801DD002079
:10118000088010BD003801400008014044000020E4
:10119000440400200948804709480047FEE7FEE76D
:1011A000FEE7FEE7FEE7FEE7FEE7FEE7FEE7FEE717
:1011B00004480549054A064B70470000BF04000873
:1011C0003101000870050020700B0020700700201E
:1011D0007007002031490143314A1160704770B5F2
:1011E000002100230F22C47804B32D4C246804F49A
:1011F000E064C4F5E064210AC1F10403CA40447804
:1012000004FA03F18478144021430901254C06783F
:10121000A155047804F01F050124AC4005786D1138
:10122000AD0005F1E025C5F8004109E0047804F0BF
:101230001F050124AC401C4D0678761145F8264068
:1012400070BD1A4A0A400243154B1B1F1A607047B3
:1012500039B1134A121D12680243114B1B1D1A604B
:1012600006E00F4A121D126882430D4B1B1D1A60C7
:101270007047042808D14FF0E021096941F00401CA
:101280004FF0E022116107E04FF0E021096921F001
:1012900004014FF0E0221161704700000000FA05E0
:1012A0000CED00E000E400E080E100E080FFFF1FC3
:1012B00010B50446CC48844208D10121042000F036
:1012C0002DFB0021042000F029FB46E0C7488442A2
:1012D00008D10121082000F021FB0021082000F0A6
:1012E0001DFB3AE0C248844208D10121102000F0E1
:1012F00015FB0021102000F011FB2EE0BD488442B8
:1013000008D10121202000F009FB0021202000F05D
:1013100005FB22E0B848844208D10121402000F0BA
:10132000FDFA0021402000F0F9FA16E0B3488442AB
:1013300008D10121802000F0F1FA0021802000F086
:10134000EDFA0AE0AE48844207D10121801500F091
:10135000E5FA0021A01500F0E1FA10BD10B5012159
:10136000084600F0DBFA0021012000F0D7FA10BD9A
:101370002DE9F0410246002500260020002300242C
:10138000002791F803C00CF00F0591F803C00CF092
:10139000100CBCF1000F03D091F802C04CEA050517
:1013A00091F800C0BCF1000F31D0146800202BE090
:1013B0004FF0010C0CFA00F3B1F800C00CEA030680
:1013C0009E4220D183004FF00F0C0CFA03F7BC4370
:1013D00005FA03FC4CEA040491F803C0BCF1280FA1
:1013E00006D14FF0010C0CFA00FCC2F814C00AE060
:1013F00091F803C0BCF1480F05D14FF0010C0CFA75
:1014000000FCC2F810C0401C0828D1D31460B1F809
:1014100000C0BCF1FF0F34DD546800202EE000F165
:10142000080C4FF0010808FA0CF3B1F800C00CEA00
:1014300003069E4221D183004FF00F0C0CFA03F7F4
:10144000BC4305FA03FC4CEA040491F803C0BCF168
:10145000280F05D100F1080C08FA0CF8C2F8148026
:1014600091F803C0BCF1480F07D100F1080C4FF010
:10147000010808FA0CF8C2F81080401C0828CED3E6
:101480005460BDE8F0814FF6FF7101800221817048
:101490000421C17070470246002093680B400BB1D5
:1014A000012000E0002070470146886880B2704744
:1014B00002460020D3680B400BB1012000E0002061
:1014C00070470146C86880B270470161704741614A
:1014D00070470AB1016100E041617047C160704727
:1014E0004FF480320A43826181618261826982693C
:1014F000704702460020434B18684FF6807318402F
:1015000040EA021008433F4B186070473E49C861EB
:101510007047F0B50A46002300240021002500F0A2
:101520000046B6F1004F02D1364EF16901E0354E6A
:101530007168C0F3034583B200F44016B6F5401F4E
:1015400008D121F070612F4E766826F070662D4F1D
:101550007E6012E000F48016B6F5801F06D10326E7
:1015600006FA05F4A14341F0706106E0460D36012C
:1015700003FA06F6B14341F0706122B1460D36011F
:1015800003FA06F6314300F00046B6F1004F02D1EF
:101590001C4EF16101E01B4E7160F0BD30B50022C0
:1015A0008B071C0F0F2303FA04F2164B08338C1021
:1015B00053F824309343134C08348D1044F82530ED
:1015C00023468C1053F824308C07240F00FA04F4BF
:1015D00023430C4C08348D1044F8253030BD0A49A3
:1015E000DC3108607047000000080140000C014039
:1015F000001001400014014000180140001C01408F
:10160000002001400000014000002042DF48006847
:1016100040F00100DD49086008464068DC490840A8
:10162000DA49486008460068DA490840D749086046
:101630000846006820F4802008600846406820F4CE
:10164000FE0048604FF41F0088607047CF4909686A
:1016500021F48031CD4A11601146096821F48021BE
:101660001160B0F5803F03D0B0F5802F0ED106E0B9
:10167000C649096841F48031C44A116007E0C34992
:10168000096841F4A021C14A116000E000BF00BF19
:10169000704710B501460022002300204A11012A9C
:1016A00002D1BA4C236806E0022A02D1B74C236A61
:1016B00001E0B64C636A01F01F02012494401C4013
:1016C0000CB1012000E0002010BD38B500200090D2
:1016D0000024002500BF3120FFF7DBFF05460098FE
:1016E000401C00900098B0F5A06F01D0002DF2D002
:1016F0003120FFF7CEFF08B1012400E0002420468E
:1017000038BD01460020A14A106820F0F80040EAE8
:10171000C10010607047A049086070470246002071
:101720009A4B586820F47C1042EA01031843974B07
:101730005860704798490866704701460020934AF0
:10174000506820F003000843506070478F4840689D
:1017500000F00C007047014600208C4A506820F0D1
:10176000F00008435060704701460020874A5068E7
:1017700020F4E06008435060704701460020834A2F
:10178000506820F4605040EAC1005060704729B1B1
:101790007E4A527A02437D4B5A7204E07B4A527A67
:1017A00082437A4B5A7270477B49D8310860704740
:1017B00001460020754A506820F4404008435060BC
:1017C00070470021714A20321170704A82F820104F
:1017D000012802D004280AD104E001216B4A2032FA
:1017E000117005E00521694A2032117000E000BF48
:1017F00000BF70476949086070476449096A01433E
:10180000624A11627047654944390860704730B5D3
:1018100000210022002400235C4D6D6805F00C01BE
:1018200021B1042905D0082923D105E05C4D0560CC
:1018300022E05B4D05601FE0544D6D6805F47012A9
:10184000524D6D6805F48034022505EB92421CB9B7
:10185000544D554305600BE04C4D6D6805F4003563
:101860001DB1504D5543056002E04D4D5543056097
:1018700002E04B4D056000BF00BF444D6D6805F0B0
:10188000F0010909484D6B5C0568DD4045603F4D3E
:101890006D6805F4E061090A434D6B5C4568DD4005
:1018A00085603A4D6D6805F46051C90A3E4D6B5C28
:1018B0004568DD40C560354D6D6805F44041890BD4
:1018C0003A4D6B5CC568B5FBF3F5056130BD29B1D8
:1018D0002E4A526902432D4B5A6104E02B4A526949
:1018E00082432A4B5A61704729B1284A92690243C0
:1018F000264B9A6104E0254A92698243234B9A6100
:10190000704729B1214AD2690243204BDA6104E0D1
:101910001E4AD26982431D4BDA61704729B11B4AC6
:10192000D2680243194BDA6004E0184AD268824355
:10193000164BDA60704729B1144A12690243134BFF
:101940001A6104E0114A12698243104B1A61704710
:1019500012494039086070470F49C86470470B4905
:10196000C87170470948406A40F080700749486272
:10197000704701460020054A92680A400AB10120DA
:1019800000E0002070470149887270470010024053
:101990000000FFF8FFFFF6FE0000424280044242D2
:1019A00000127A0000093D00460000205600002089
:1019B00010B50446FB48844209D101218803FFF792
:1019C000ADFF00214FF48040FFF7A8FF32E0F6485A
:1019D000844209D101214804FFF7ADFF00214FF4F3
:1019E0000030FFF7A8FF25E0F048844209D101212B
:1019F0008804FFF7A0FF00214FF48020FFF79BFF32
:101A000018E0EB48844209D10121C804FFF793FF95
:101A100000214FF40020FFF78EFF0BE0E5488442E1
:101A200008D101210805FFF786FF00214FF480103F
:101A3000FFF781FF10BD2DE9F04786B005460E4641
:101A40000024A24600BFA1460027B08900B100BF14
:101A50002F462C8A4CF6FF700440F08804432C82F9
:101A6000AC894EF6F3100440B0883189084371897F
:101A700008430443AC81AC8A4FF6FF400440B08970
:101A80000443AC8201A8FFF7C2FEC648874202D1D8
:101A9000DDF810A001E0DDF80CA0A88900F40040FA
:101AA00040B10AEBCA0000EB0A1031684900B0FBF4
:101AB000F1F807E00AEBCA0000EB0A103168890070
:101AC000B0FBF1F86420B8FBF0F0040120096421B8
:101AD00001FB1089A88900F4004040B1322000EBDE
:101AE000C900B0FBF1F000F00700044308E0322029
:101AF00000EB09106421B0FBF1F000F00F0004438B
:101B00002C8106B0BDE8F0874FF41651016000212A
:101B10008180C18001810C21418100218181704738
:101B200010B502460020108A4FF2FF0318400B88C0
:101B30004C8823438C882343CC882343184310824A
:101B400010BD0021018041808180C180704721B19A
:101B5000828942F40052828104E082894DF6FF734B
:101B60001A4082817047F0B5034600240026002504
:101B7000002040F66A17B94200D100BF1846C1F3F1
:101B8000421401F01F06012707FA06F5012C01D1C6
:101B90000C3004E0022C01D1103000E014301AB1F6
:101BA00007682F43076002E00768AF430760F0BD96
:101BB0001AB1838A0B43838202E0838A8B43838238
:101BC0007047028A4FF6F0731A400282028A0A4373
:101BD0000282704782894FF2FF731A4082818289A4
:101BE0000A438281704721B1828942F002028281D8
:101BF00004E082894FF6FD731A4082817047028AA1
:101C00004FF6DF731A400282028A0A43028270474B
:101C100021B1028A42F48042028204E0028A4BF639
:101C2000FF731A4002827047C1F308028280704736
:101C300001468888C0F308007047818941F001019E
:101C400081817047028BD2B20283028B42EA012269
:101C500002837047028B02F47F420283028B0A43A5
:101C60000283704721B1828A42F02002828204E01E
:101C7000828A4FF6DF731A408282704721B1828ACE
:101C800042F01002828204E0828A4FF6EF731A401B
:101C90008282704721B1828A42F00802828204E087
:101CA000828A4FF6F7731A408282704721B1828987
:101CB00042F40042828103E08289C2F30E028281F3
:101CC000704721B1828A42F40062828204E0828AF3
:101CD0004FF2FF731A4082827047828A4FF6FB737D
:101CE0001A408282828A0A438282704721B1828AA4
:101CF00042F00202828204E0828A4FF6FD731A40AB
:101D00008282704702460020B1F5007F00D100BFFB
:101D100013880B400BB1012000E00020704701F454
:101D20000072B2F5007F00D100BFCA430280704745
:101D300070B50246002400230025002040F66A16F4
:101D4000B14200D100BFC1F3421501F01F030126CB
:101D500006FA03F3012D02D19689334006E0022DE5
:101D600002D1168A334001E0968A33400C120126D4
:101D700006FA04F41688344013B10CB1012000E0D7
:101D8000002070BD10B50022002340F66A14A14265
:101D900000D100BF0A1201249440A3B2DC430480A6
:101DA00010BD0000003801400044004000480040E1
:101DB000004C004000500040002044490860091DCC
:101DC0000860091D0860091D086041483F49143139
:101DD0000860704700213D498279002A3AD00A46BE
:101DE000126803689A430B461A600A1D126803685A
:101DF0009A430B1D1A60027911440A6803681A435A
:101E00000A60324A0832126803689A432F4B08333B
:101E10001A601A1D126803689A432C4B0C331A601F
:101E20004279102A0ED11A1F126803681A43274BF1
:101E300008331A601A1D126803681A43234B0C33C7
:101E40001A600DE02149427911440A6803681A4377
:101E50000A6005E0027911440A6803689A430A603F
:101E600070470021016001710C21417100218171D5
:101E700070471649103109680143144A1032116045
:101E8000704701460020114A143212680A400AB114
:101E9000012000E0002070470C49143108607047B1
:101EA000014600200022094B1B6803EA0102074B90
:101EB00014331B680B4013B10AB1012000E000206D
:101EC0007047024914310860704700000004014067
:101ED000FFFF0F00704770477047704770477546A7
:101EE00000F028F8AE4605006946534620F007008A
:101EF000854618B020B5FFF75BF9BDE820404FF0EC
:101F000000064FF000074FF000084FF0000B21F0E3
:101F10000701AC46ACE8C009ACE8C009ACE8C009B0
:101F2000ACE8C0098D4670470446AFF300802046F8
:101F3000FEF745F9004870470C050020010002003B
:101F40000400080010002000400080000001000292
:101F50000004000800100020004000800400000081
:101F600008000000100000002000000040000000F9
:101F700080000000000100000001020304050600CB
:101F80000102030405060708090A0B0C0D0E0F00D9
:101F90000100000002000000040000000800000032
:101FA0001000000020000000400000008000000041
:101FB0000001000000020000000400000008000012
:101FC0000010000000200000004000000080000021
:101FD000060708090A171717171728282828282876
:101FE00000200008000000205C0000006C010008D8
:101FF0005C2000085C000020140B00008801000831
:1020000000000000000000000000000000A24A04E0
:102010000000000000000000010203040607080998
:1020200000080140000C0140001001400014014074
:1020300000180140001C0140002001400000000089
:102040000000000000000000000001020304010283
:0C2050000304060708090204060800004B
:0400000508000131BD
:00000001FF
